:100000000C945F070C9487070C9487070C94870760
:100010000C9487070C9487070C9487070C94870728
:100020000C9487070C9487070C94760F0C94E80FB8
:100030000C9487070C9487070C9487070C94870708
:100040000C9487070C94DA0C0C9487070C948707A0
:100050000C9487070C9487070C9487070C946A0A02
:100060000C9487070C9487070C9487070C948707D8
:100070000C9487070C9487070C9487070C948707C8
:100080000C94EB0D0C9487070C9487070C9487074E
:100090000C9487070C9487070C9487070C948707A8
:1000A0000C9487070C9487070C9487079314961475
:1000B000851489148D14B714B714B7149A149E14A8
:1000C000A214A814AC14B714B214A615AB15B0152D
:1000D000BA15C4150E160E160E16CE15D815E21545
:1000E000EC15F9150E1601161C2222222410122AD4
:1000F00021414141424A2424180000000000000030
:1001000000000000000000000000000000000000EF
:10011000F0F89C8E8783878E9CF8F00000FEFF032A
:1001200003030303070EFCF80000FEFF03030303B1
:1001300003070EFCF80000FFFF00000000000000B5
:10014000FFFF0000FEFF8383838383C7EE7C3800BC
:1001500000F8FC0E07030303070EFCF800003F7FC6
:10016000E0C08080C0E07F3FFFFF0101010101018D
:1001700001FFFF0000FFFF0C0C0C0C1C3E77E3C1DD
:1001800000007FFFC0C0C0C0C0E0703F1F00001F64
:100190003F70E0C0C0C0E0703F1F00007FFFC1C1E2
:1001A000C1C1C1E3773E1C00001F3F70E0C0C0C06A
:1001B000E0703F1F000000000001FFFF0100000091
:1001C000D5F08D14A1C881CFD9F1AF20001402134E
:1001D00002120215020702080204010C01060100C6
:1001E000902F0032809029006380F0905700328079
:1001F00090520021809057004280F0903900218079
:100200009045005380F0000000000000FEFFFFFE5C
:1002100000C0C08000000000FEFFFE00FFFFFFFFE7
:10022000C0FFFF7F0000000001030383FFFFFFFF0B
:10023000800000000000000000000000000000003E
:100240000000000000000002CF9EF0F8FCFCB88027
:10025000F07000000000000C0D8BBFFFFFBF8F038C
:10026000000000000000902F0021809029003280C3
:10027000F0000000000000001878F870B0FCDECE3E
:100280008C08C8F0F0E04080000000000000000092
:10029000000000000000004267EFFB80878F0F0C1A
:1002A000070101898D818041423A0C000000000065
:1002B00000C04000E0F0D04E8E4321B110890C0008
:1002C00000F80402020203FC4488F0E00000000091
:1002D0000000010204040404023A77606021231E36
:1002E0000E19204864623F3000000000000000004A
:1002F00000000000000000001078F878B0F8DCCEB4
:100300008E0CC8F0F0E0408000000000000000000B
:10031000000000000000002467EFFB80878F0F0CB7
:10032000070101898D818041423A0C0000000000E4
:10033000008080C0E0C08050747E1E234180D96858
:100340002000C0340A0207F8E000000000000000AE
:10035000000101020204040404020608303062664F
:1003600066285869762A0601000000000000000097
:100370000000000000000000001878F870B0FCDEFB
:10038000CE8C08C8F0F0E0408000000000000000C3
:1003900000000000000000004267EFFB80878F0F25
:1003A0000C070101898D818041423A0C0000000058
:1003B000000000C080C0D07C58063523408180CC2E
:1003C000C850703000FE211E000000000000000038
:1003D000000203030202040404127B6064242C382C
:1003E000103020626334381000000000000000006C
:1003F00000000000000000001078F878B0F8DCCEB3
:100400008E0CC8F0F0E0408000000000000000000A
:10041000000000000000002467EFFB80878F0F0CB6
:10042000070101898D818041423A0C0000000000E3
:10043000008080C0E0C08050747E1E234180D96857
:100440002000C0340A0207F8E000000000000000AD
:10045000000101020204040404020608303062664E
:1004600066285869762A0601000000000000000096
:1004700000000000000000001878F870B0FCDECE2C
:100480008C08C8B070A0C000000000000000000090
:10049000000000000000004267EFFB80878A0DCA61
:1004A000A760214899808101427A0C000000000079
:1004B00000C04000E0F0D04E8E4321B110890C0006
:1004C00000F80402020203FC4488F0E0000000008F
:1004D0000000010204040404023A77606021231E34
:1004E0000E19204864623F30000000000000000048
:1004F00000000000000000000000000000000000FC
:1005000000000000000000000000000000000000EB
:100510000080601008F8D87C2C3C1494840CE8E02F
:10052000C080D0F06098DCDCD0A0C00000000000EB
:10053000000728409F9F98C81E4EE417033161C1F1
:10054000C0230000A00F8A0D0A8F82030206010358
:10055000FC000002060F0908080F0F0C0C04000332
:100560000202040C0C0C07060406060E0E0A0E0E00
:1005700005000000000000001878F870B0FCDECE26
:100580008C08C8F070E0C08000008000000000000F
:10059000000000000000004267EFFB80878F0CAF77
:1005A0004781E1E9ECE1E1433E8167271F04000058
:1005B00000C04000E0F0D0488C4221B110890C000E
:1005C00001FA0602020204FC030000000000000021
:1005D0000000010204040404023A77606021231E33
:1005E0000E19204864623F30000000000000000047
:1005F000009047007480904C01DE80F00000000005
:10060000000000000000000000000080C0406020EA
:10061000309010588808E8880888E888080888C852
:100620006808884898101030206040C080000000A2
:1006300000000000000000000000000000000000BA
:10064000000000C06030180CC6F3F1691CA45A41C8
:100650002F2411120B090805C5F1FCF9E00484C52B
:10066000E4F5F7EA8914172F4652B83C31D963866E
:100670000C1830E08000000000000000000000C006
:10068000701C8781841C1E8C60110806010000000C
:10069000000000002070F8FA06FDFDFD06FA383A69
:1006A000FAF0E000C1E5F67674E0E0C1060911E475
:1006B0000E37D04861071C70C00000000000FC0726
:1006C00000E0F3E30301F807000000000000000071
:1006D000000080C4CE7E1E4100FFFFFF0007070719
:1006E00007030000030303020203030BF0000000F2
:1006F00007F80062C36360C007FC000000007FC011
:100700000000000000003FC00000E01070E08080AA
:10071000E0E4EC1D0300010018372F6F602020106B
:1007200010112340800000020610E10100000000CB
:10073000E01F00C02A7A2604C07F000000000007E6
:100740001C70C000000000030C304788B0408119C5
:1007500018383B76F4E8E8EAE0F4F0F0F0F0F0184E
:100760000C0C0402011000288060103B90781807E0
:10077000000C0D1911C3701C0700000000000000E0
:10078000000001071E00709010101000FE01018192
:100790007D01792579017D116D0179257901792511
:1007A00058047C047A2679010101FE011010109092
:1007B0007000180E0301000000000000000000009F
:1007C00000000000000038272020202027242424B7
:1007D000242424180414152524252425252425251E
:1007E000241514041824242424242720202020271E
:1007F000380000000000000000000000080B0002AC
:1008000002020100090400000102020000052400A8
:10081000100105240101010424020605240600013B
:100820000705810310004009040100020A000000CE
:100830000705020240000007058302400000040390
:10084000090412010002EF02014041233680000139
:100850000102030141726475696E6F204C4C4300C4
:1008600041726475696E6F204C656F6E6172646F62
:100870000000000000003E5B4F5B3E3E6B4F6B3E56
:100880001C3E7C3E1C183C7E3C181C577D571C1C93
:100890005E7F5E1C00183C1800FFE7C3E7FF0018EE
:1008A000241800FFE7DBE7FF30483A060E262979D7
:1008B0002926407F050507407F05253F5A3CE73C38
:1008C0005A7F3E1C1C08081C1C3E7F14227F2214E9
:1008D0005F5F005F5F06097F017F006689956A6040
:1008E0006060606094A2FFA29408047E0408102057
:1008F0007E201008082A1C08081C2A08081E101050
:1009000010100C1E0C1E0C30383E3830060E3E0EF9
:1009100006000000000000005F0000000700070064
:10092000147F147F14242A7F2A122313086462364A
:10093000495620500008070300001C2241000041D6
:10094000221C002A1C7F1C2A08083E080800807010
:100950003000080808080800006060002010080443
:10096000023E5149453E00427F4000724949494696
:100970002141494D331814127F1027454545393C14
:100980004A49493141211109073649494936464901
:1009900049291E0000140000004034000000081423
:1009A000224114141414140041221408020159099C
:1009B000063E415D594E7C1211127C7F49494936F1
:1009C0003E414141227F4141413E7F494949417F6A
:1009D000090909013E414151737F0808087F004120
:1009E0007F41002040413F017F081422417F404069
:1009F00040407F021C027F7F0408107F3E4141413E
:100A00003E7F090909063E4151215E7F09192946A9
:100A1000264949493203017F01033F4040403F1FBF
:100A20002040201F3F4038403F63140814630304F4
:100A30007804036159494D43007F41414102040854
:100A40001020004141417F04020102044040404027
:100A500040000307080020545478407F284444385D
:100A60003844444428384444287F385454541800A7
:100A7000087E090218A4A49C787F08040478004426
:100A80007D40002040403D007F1028440000417F11
:100A900040007C047804787C08040478384444449A
:100AA00038FC1824241818242418FC7C0804040892
:100AB000485454542404043F44243C4040207C1CAB
:100AC0002040201C3C4030403C44281028444C909E
:100AD00090907C4464544C440008364100000077F8
:100AE0000000004136080002010204023C262326D1
:100AF0003C1EA1A161123A4040207A385454555905
:100B0000215555794121545478412155547840203C
:100B1000545579400C1E5272123955555559395455
:100B200054545939555454580000457C41000245ED
:100B30007D420001457C40F0292429F0F028252839
:100B4000F07C545545002054547C547C0A097F495C
:100B500032494949323248484832324A4848303AA4
:100B60004141217A3A42402078009DA0A07D39443D
:100B70004444393D4040403D3C24FF2424487E49C4
:100B800043662B2FFC2F2BFF0929F620C0887E09F6
:100B90000320545479410000447D413048484A3292
:100BA000384040227A007A0A0A727D0D19317D267A
:100BB00029292F28262929292630484D4020380860
:100BC00008080808080808382F10C8ACBA2F1028E1
:100BD00034FA00007B000008142A142222142A147C
:100BE000089500220095AA005500AAAA55AA55AA60
:100BF000000000FF00101010FF00141414FF00107C
:100C000010FF00FF1010F010F0141414FC00141466
:100C1000F700FF0000FF00FF1414F404FC14141785
:100C2000101F10101F101F1414141F00101010F0AC
:100C3000000000001F101010101F10101010F010F6
:100C4000000000FF101010101010101010FF100006
:100C50000000FF140000FF00FF00001F101700003D
:100C6000FC04F414141710171414F404F40000FF17
:100C700000F714141414141414F700F714141417B0
:100C80001410101F101F141414F4141010F010F08E
:100C900000001F101F0000001F14000000FC1400C3
:100CA00000F010F01010FF10FF141414FF141010B7
:100CB000101F00000000F010FFFFFFFFFFF0F0F03A
:100CC000F0F0FFFFFF0000000000FFFF0F0F0F0F0D
:100CD0000F38444438447C2A2A3E147E0202060619
:100CE000027E027E0263554941633844443C04401D
:100CF0007E201E2006027E020299A5E7A5991C2AE5
:100D0000492A1C4C7201724C304A4D4D30304878A3
:100D10004830BC625A463D3E494949007E010101C6
:100D20007E2A2A2A2A2A44445F444440514A4440A5
:100D300040444A51400000FF0103E080FF000008EA
:100D4000086B6B083612362436060F090F060000B2
:100D500018180000001010003040FF0101001F01B2
:100D6000011E00191D1712003C3C3C3C0000000015
:100D70000006011501260137014A015D0172018853
:100D8000019F01B801D201EE010B022A024B026E53
:100D9000029302BA02E40210033F037003A403DCCF
:100DA00003170455049704DD0427057505C80520BD
:100DB000067D06E0064907B8072D08A9082D09B9E0
:100DC000094D0AEA0A900B400CFA0CC00D910E6F07
:100DD0000F5A1053115B1272139A14D415201780F6
:100DE00018F519801B231DDE1EB420A622B524E4AD
:100DF000263429A72B402E0031EA330037453ABC70
:100E00003D68414C456B49C84D68524F57805C0066
:100E10006210111213151617181A1C1D1F212325F5
:100E200027292C2E3134373A3E4145494E52575CE2
:100E300062686E757B838B939CA5AFB9C4D0DCE9E7
:100E4000F700000000240027002A002D00300000D9
:100E500000000200090F0000030401000C00000064
:100E60000000000000000000000000000000040876
:100E700002011040804010204080408008020401A0
:100E8000804020100201108010204040200000000F
:100E900000250028002B002E003100040404040467
:100EA000030405020202020403020202020606060D
:100EB000060606040402020204040301231D112491
:100EC0001FBECFEFDAE0DEBFCDBF26E0A6E5B1E082
:100ED00001C01D92AB33B207E1F711E0A0E0B1E031
:100EE000E4E5F2E402C005900D92A635B107D9F70A
:100EF00017E0CFE5D7E004C02197FE010E947E1DD8
:100F0000CE35D107C9F70E946A160C9428210C949B
:100F100000003FB7F8948091990190919A01A091B7
:100F20009B01B0919C0126B5A89B05C02F3F19F0ED
:100F30000196A11DB11D3FBFBA2FA92F982F882759
:100F4000820F911DA11DB11DBC01CD0142E0660FB4
:100F5000771F881F991F4A95D1F70895CF92DF9286
:100F6000EF92FF920F931F93CF93DF936C017A015F
:100F70008B01C0E0D0E0CE15DF0589F0D8016D917E
:100F80008D01D601ED91FC910190F081E02DC6011B
:100F90000995892B11F47E0102C02196ECCFC7017F
:100FA000DF91CF911F910F91FF90EF90DF90CF9045
:100FB0000895089580E090E00895CF93DF93EC01C9
:100FC0002CE330E0B9010E946A1DFB0144E64C9F0E
:100FD000C0014D9F900D1124B9010E946A1DCB01E3
:100FE00064E670E00E946A1D20915601309157011D
:100FF000280F391F2333310524F031962456310947
:10100000F9CF3093570120935601CF01DF91CF9153
:101010000895CF92DF92EF920F931F93CF93DF93B8
:101020006C0164E970E00E946A1DEE24E39400E123
:1010300024E148EE50E065E070E0E0E8F0E0DF0138
:10104000A81BB90BCD010E9472128091880190916A
:1010500089010091820110918301C0E0D0E00597E1
:1010600034F141E0B801CE010E94DC132196C03872
:10107000D105B9F7E0918C01F0918D01CF018C1968
:101080009D09C0918A01D0918B01CC19DD0980386E
:10109000910514F56091860170918701EE24E39427
:1010A00008E120E146E052E00E94721215C041E0E2
:1010B000B801CE010E94DC132196C630D105B9F7E4
:1010C000CAE1D0E041E0B801CE010E94DC132196D4
:1010D000C038D105B9F7CECFC038D1056CF46091D6
:1010E000580170915901EE24E39408E120E146E3B0
:1010F00052E0CE010E947212DF91CF911F910F91A9
:10110000EF90DF90CF9008950E94841DCF93DF93DE
:1011100000D000D0CDB7DEB761157105810591050E
:1011200079F09B01AC0169833A834B835C830E9415
:10113000782029813A814B815C810E948E2003C0F6
:1011400060E070E0CB010F900F900F900F90DF9157
:10115000CF910895CF92DF92EF92FF92CF93DF93DA
:10116000EC0180918C0190918D0140968C179D0728
:10117000F4F56AE070E080E090E00E94860825E0E7
:10118000269FA001279F500D11249E0121553F4FFE
:10119000C901840F951F90938D0180938C01C0909D
:1011A0008201D09083018FEFC81AD80A0D2C000C51
:1011B000EE08FF0880E4C816D104E104F10484F4C9
:1011C00080E490E0A0E0B0E0BC01CD016C197D09A5
:1011D0008E099F090E948608C60ED71EE81EF91EBA
:1011E00088E1C81AD108D0928701C0928601C53F14
:1011F00081E0D8070CF486C080918A0190918B0120
:1012000040968C179D07E4F56AE070E080E090E07E
:101210000E948608C853DF4F26E0269FA001279F23
:10122000500D1124C40FD51FD0938B01C0938A0198
:10123000C0908201D09083018FEFC81AD80A0D2C7C
:10124000000CEE08FF0880E4C816D104E104F104A4
:1012500084F480E490E0A0E0B0E0BC01CD016C1922
:101260007D098E099F090E948608C60ED71EE81EBA
:10127000F91E88E1C81AD108D0925901C0925801CC
:1012800040918A0150918B0180918C0190918D0148
:101290009A01281B390BB90161507109673071053A
:1012A00030F4485F5F4F50938B0140938A01295F70
:1012B0003F4F2730310528F4089690938D01809395
:1012C0008C0140918A0150918B0180918C01909109
:1012D0008D019A01281B390BB901665171096A31D8
:1012E000710530F4405E5F4F50938B0140938A014B
:1012F000215D3F4F2A31310528F4809690938D016E
:1013000080938C01DF91CF91FF90EF90DF90CF9091
:10131000089582E090E0909395018093940110925B
:101320008F0110928E018BE490E090939101809355
:10133000900180E89FEF90938B0180938A019093B6
:101340008D0180938C0180E090E00E94AA081092A9
:1013500085011092840110928901109288010895EC
:101360001092E4051092E3051092E6051092E5054F
:10137000809191018F93809190018F9380918E0144
:1013800090918F016AE070E00E946A1D7F936F93D5
:1013900085E391E09F938F938AE591E09F938F93EC
:1013A0000E94891D8DB79EB708960FB6F8949EBF10
:1013B0000FBE8DBF8AE591E00C941B1440919F01F4
:1013C0005091A00120919D0130919E014217530739
:1013D000B4F49091E8009570E1F39091E80092FDEB
:1013E00019C08093F10080919F019091A001019616
:1013F0008F739927892B19F48EEF8093E8008091E1
:101400009F019091A00101969093A00180939F016C
:1014100081E0089580E00895615030F02091F1005E
:10142000FC0120830196F8CF289884E68093C201BE
:1014300008958F929F92AF92BF92CF92DF92EF92D8
:10144000FF926B017C010E9489074B015C01C11472
:10145000D104E104F104F1F00E948907DC01CB0121
:1014600088199909AA09BB09883E9340A105B105CD
:1014700070F321E0C21AD108E108F10888EE880E65
:1014800083E0981EA11CB11CC114D104E104F10435
:1014900019F7DDCFFF90EF90DF90CF90BF90AF9026
:1014A0009F908F900895CF93C82F83EE91E00E9474
:1014B0005A16CC2369F00E941812811107C061E00E
:1014C00070E080E090E00E94190AF5CFC150F1CFA2
:1014D000CF9108951F920F920FB60F9211242F9360
:1014E0003F938F939F93AF93BF938091CB01909144
:1014F000CC01A091CD01B091CE013091980123E0B3
:10150000230F2D3720F40196A11DB11D05C026E83B
:10151000230F0296A11DB11D209398018093CB014A
:101520009093CC01A093CD01B093CE01809199010D
:1015300090919A01A0919B01B0919C010196A11DEF
:10154000B11D8093990190939A01A0939B01B09350
:101550009C01BF91AF919F918F913F912F910F90DF
:101560000FBE0F901F9018958091AE0181110DC094
:1015700082E08093AA0184E08093AB011092AD01D8
:101580001092AC0181E08093AE018AEA91E0089567
:10159000CF93DF931F92CDB7DEB76983DC01ED9166
:1015A000FC910280F381E02D41E050E0BE016F5FCD
:1015B0007F4F09950F90DF91CF91089583E080933D
:1015C000E9008091F200882319F08AE38093E80013
:1015D0000895FC018485958597FD0BC09FB7F8940D
:1015E00082E08093E9008091F2009FBF90E0019635
:1015F00008959FB7F89482E08093E9008091F2000B
:101600009FBF90E008958F929F92AF92BF92CF922A
:10161000DF92EF92FF920F931F93CF93DF935C01C2
:101620006B017A0180910B01882309F45BC08091E2
:10163000C301882309F456C08091A30180FF05C02F
:101640008091E00082608093E000E70110E00AEF03
:1016500083E0882E9AE3992E2097D9F10E9457149F
:1016600081110AC0015009F43DC061E070E080E0E2
:1016700090E00E94190AF0CF282F30E0C217D3075C
:101680000CF48C2F4FB7F8948092E9009091E80009
:1016900095FF1DC0282F30E0C21BD30BF601982FF9
:1016A000915020F081918093F100FACFC20ED31EA9
:1016B000112319F09092E80009C08091E80085FD9F
:1016C00006C09092E80011E0209709F010E04FBFAB
:1016D000C3CF1111C3CF5D9884E68093A9011E1476
:1016E0001F0444F081E090E0F5019383828380E061
:1016F00090E001C0C701DF91CF911F910F91FF9042
:10170000EF90DF90CF90BF90AF909F908F90089513
:101710000E94571490E008950F931F93CF93DF9387
:101720001F92CDB7DEB78C01FC018485958597FFAC
:101730000EC0CE0101960E942D14019719F4298143
:1017400030E002C02FEF3FEFF80135872487F80122
:10175000848595850F90DF91CF911F910F9108950A
:10176000CF93DF931F92CDB7DEB7FC0184859585BB
:1017700097FD05C02FEF3FEF358724870BC0CE01C3
:1017800001960E942D14019719F4898190E002C0FE
:101790008FEF9FEF0F90DF91CF910895CF92DF925F
:1017A000EF92FF920F931F93CF93DF931F92CDB7CA
:1017B000DEB7182F062FE42E862F880F8E5F9983B1
:1017C0000E94DE0983E00E94DE09F12EC12E99817C
:1017D000D92E8C2D8F19801798F4F601E7FE02C0E0
:1017E000849101C080810E94DE09182F80E00E9450
:1017F000DE098123FFEFCF1ADF0A8111EACF01C092
:1018000081E00F90DF91CF911F910F91FF90EF90AA
:10181000DF90CF900895DF92EF92FF920F931F9386
:10182000CF93DF93D82E8A017B01E40EF51EEB01E6
:10183000CE15DF0571F0D7FE03C0FE01849101C013
:1018400088810E94DE0921968111F2CF8FEF9FEFF0
:1018500001C0C801DF91CF911F910F91FF90EF90D0
:10186000DF9008950F931F93CF93DF931F92CDB70F
:10187000DEB782E0898342E450E06CEF77E080E8F5
:101880000E940B0C0E94B40ADC0112960D911C916F
:1018900013970115110569F0D801ED91FC910280B3
:1018A000F381E02DBE016F5F7F4FC801099597FF5F
:1018B00007C089810F90DF91CF911F910F910895FB
:1018C000F80100851185E5CFCF92DF92EF92FF926C
:1018D0000F931F93CF93E82FF0E0E654F14FC4919C
:1018E000E62FF0E0603330F4EF5EF14FE4910E2F1D
:1018F00010E006C0EE0FFF1FEF5EF24F059114914E
:101900006801E12CF12C60E074E284EF90E0A70123
:1019100096010E948E20BA01A90141505109610926
:1019200071094115510581E06807710580F060E992
:1019300070ED83E090E0A70196010E948E20BA012D
:10194000A901415051096109710983E001C081E099
:10195000C130C9F0C33031F590919100987F892B47
:101960008093910050939900409398001093C10187
:101970000093C00181E08093BF018091710082607B
:10198000809371000FC090918100987F892B809384
:101990008100509389004093880080916F0082609D
:1019A00080936F00CF911F910F91FF90EF90DF9088
:1019B000CF9008951F920F920FB60F9211242F937C
:1019C0003F938F939F93AF93BF93EF93FF93809138
:1019D000BA01882309F44DC08091B6019091B701F6
:1019E000A091B801B091B901892B8A2B8B2B51F1B1
:1019F0008091C701E091C801F091C90190818927C8
:101A000080838091B6019091B701A091B801B09107
:101A1000B901181619061A061B06A4F58091B6011D
:101A20009091B701A091B801B091B9010197A109B6
:101A3000B1098093B6019093B701A093B801B09318
:101A4000B90120C01092BA0180916F008D7F809300
:101A50006F009091C701E091C801F091C9018081A8
:101A6000282F30E0892F90E0809590958223932352
:101A700008C08091C701E091C801F091C90190812F
:101A800089278083FF91EF91BF91AF919F918F91B3
:101A90003F912F910F900FBE0F901F901895E82F38
:101AA000F0E0E654F14FE491E13019F0E33069F0F1
:101AB000089580916F008D7F80936F009091C70192
:101AC000E091C801F091C90108C01092BF01909146
:101AD000C401E091C501F091C6018081282F30E05A
:101AE000892F90E080959095822393238083089599
:101AF000E091A601F091A701BF016F5F7F4F709346
:101B0000A7016093A6014491942F907F842F8F703A
:101B1000903819F40E944F0DEBCF903981F4329632
:101B2000F093A701E093A601FB0164919091CA0193
:101B30008917F0F667FDDCCF0E94640CD9CF903E88
:101B400049F48091A4019091A5019093A7018093FD
:101B5000A601CECF903F19F41092A801089597FDE9
:101B6000C7CF3296F093A701E093A601FB01249121
:101B700030E0342BA091C001B091C1010E94E2205D
:101B80006C507E4F8F4F9F4F28EE33E040E050E087
:101B90000E94C0202093BB013093BC014093BD0143
:101BA0005093BE018091BB019091BC01A091BD01F9
:101BB000B091BE01892B8A2B8B2B61F481E090E0E0
:101BC000A0E0B0E08093BB019093BC01A093BD0165
:101BD000B093BE0108951F920F920FB60F92112479
:101BE0002F933F934F935F936F937F938F939F9325
:101BF000AF93BF93EF93FF938091BF01882349F088
:101C00008091C401E091C501F091C60190818927BE
:101C100080838091A801882329F18091BB01909154
:101C2000BC01A091BD01B091BE01892B8A2B8B2BE9
:101C3000C9F08091BB019091BC01A091BD01B09110
:101C4000BE010197A109B1098093BB019093BC012A
:101C5000A093BD01B093BE01892B8A2B8B2B11F46D
:101C60000E94780DFF91EF91BF91AF919F918F915D
:101C70007F916F915F914F913F912F910F900FBE88
:101C80000F901F901895A42FA695A695A695B0E045
:101C9000772747705527B695BA2FAA27B795A795E6
:101CA0006A0F7B1FFC01E60FF71F81E090E001C087
:101CB000880F4A95EAF7222319F09489892B03C0EB
:101CC000809594898923848B08952F923F924F9217
:101CD0005F926F927F928F929F92AF92BF92CF92BC
:101CE000DF92EF92FF920F931F93CF93DF93CDB7C5
:101CF000DEB72A970FB6F894DEBF0FBECDBF6A30AD
:101D000091F4FC01E85EFB4F4081329720813181E4
:101D100058E0459F200D311D1124318320833297D7
:101D200011821082CAC06D3009F4C7C09A878987B2
:101D3000885E9B4F9C838B83DC012C90E985FA8520
:101D4000EA5EFB4F60807180E985FA85EC5EFB4FAF
:101D5000FA83E9830081118100381105D4F0AB8149
:101D6000BC812C91422F50E0E981FA8180819181E0
:101D7000F6E02F9F800D911D1124A981BA818D93CA
:101D80009C93E985FA85E75EFB4F2081211167C0AE
:101D900094C0B0E46B16710414F7C801E5E02E9E00
:101DA000800D911D112418161906CCF6422C512CC9
:101DB000C301F8E02F9E800D911D112418161906FD
:101DC00074F655E0659F900111243F832E83E12C2A
:101DD000F12C85E0E816F10441F0EE81FF81EE0D73
:101DE000FF1DEF58F74F349001C0312C430138E00C
:101DF000932D91709D8358018A2D801B8215F0F4DC
:101E000064018C2D88198215A8F4A0E8AA16B104E3
:101E100068F4B0E4CB16D10448F42D81A601B501D5
:101E200089859A8538870E94430E3885EFEFCE1A50
:101E3000DE0AE7CFFFEFAF1ABF0ADECF369431508C
:101E4000840C951C3111D4CF2FEFE21AF20A040D45
:101E5000151D36E0E316F10409F0BBCF80CF6AEF21
:101E600064039001659F300D112420583F4F2817BF
:101E700039071CF5A985BA85ED91FC911197019060
:101E8000F081E02D6AE0CD012A960FB6F894DEBF0E
:101E90000FBECDBFDF91CF911F910F91FF90EF90BB
:101EA000DF90CF90BF90AF909F908F907F906F907A
:101EB0005F904F903F902F9009942A960FB6F89418
:101EC000DEBF0FBECDBFDF91CF911F910F91FF906D
:101ED000EF90DF90CF90BF90AF909F908F907F90CA
:101EE0006F905F904F903F902F9008951F920F92A8
:101EF0000FB60F9211248F939F938091E1009091E0
:101F0000E100937F9093E10083FF0FC01092E900FE
:101F100091E09093EB001092EC0092E39093ED002F
:101F20001092C30198E09093F00082FF20C093E0EC
:101F30009093E9009091F200992319F09AE390931D
:101F4000E8009091A901992339F09091A90191504D
:101F50009093A901992389F19091C201992339F0B5
:101F60009091C20191509093C201992341F184FF55
:101F700010C08091E2008E7E81608093E2008091AB
:101F8000E1008F7E8093E1008091A3018E7E8061CD
:101F900011C080FF16C08091E2008E7E8061809328
:101FA000E2008091E1008E7E8093E1008091A301A8
:101FB0008E7E81608093A30104C05D9ACDCF289A64
:101FC000D6CF9F918F910F900FBE0F901F901895B5
:101FD0001F920F920FB60F921124CF92DF92EF92C1
:101FE000FF920F931F932F933F934F935F936F93A2
:101FF0007F938F939F93AF93BF93EF93FF93CF9371
:10200000DF93CDB7DEB76C97DEBFCDBF1092E9008E
:102010008091E80083FFEDC168E0CE0145960E9403
:102020000C0A82EF8093E8008D8987FF05C09091AC
:10203000E80090FFFCCF03C09EEF9093E800982F3C
:10204000907609F0C6C09E892F89188D91110CC019
:10205000803829F48091A2018093F10002C010928F
:10206000F1001092F10048C1422F50E0512B913005
:1020700051F4811141C14130510509F03DC18091B8
:10208000A2018D7F0BC0933061F4811135C14130C5
:10209000510509F031C18091A20182608093A201B3
:1020A0002BC1953041F48091E80080FFFCCF20687F
:1020B0002093E30021C1963009F05FC0EB8CFC8CCB
:1020C0001092E9001092A00110929F01123091F538
:1020D00010929E0110929D010E94320C99E0BE0167
:1020E0006F5F7F4FDB01E92F1D92EA95E9F7998336
:1020F0001A8391E09E8390EA98879AEF99872091BE
:102100009F013091A001275F3F4F3C832B838D833C
:102110001092E9001092A00110929F01F0929E018E
:10212000E0929D0149E050E080E00E940B0C0E948B
:10213000320CE2C0F0929E01E0929D010E94B40A2E
:10214000DC011296ED90FC901397E114F10409F470
:10215000C0C0D701ED91FC910480F581E02DBE0156
:102160006B5E7F4FC7010995009719F00CF0C4C052
:10217000C7C0F701E084F184E8CF973009F4C0C00C
:10218000983021F481E08093F100B6C0993009F0D5
:10219000B3C0837009F0B4C0E1E1F1E081E021E077
:1021A00036E39081992361F08093E9002093EB005E
:1021B00091919093EC003093ED008F5F873089F719
:1021C0008EE78093EA001092EA008F898093C30122
:1021D00093C08B8D9C8D1092E9001092A0011092FB
:1021E0009F0190939E0180939D01898D811156C01E
:1021F0008E899D89913A59F4813209F081C047E076
:1022000050E064E071E080E00E940B0C75C09132F8
:1022100009F076C0833289F4888D90E0982F882762
:102220002F89822BA0E0B0E0809300019093010100
:10223000A0930201B09303015FC0803269F48091E2
:10224000E80082FFFCCF67E084E091E00E940C0A86
:102250008BEF8093E80006C0823209F04DC08F8971
:1022600080930B018091A101882319F0EEEFFAE031
:1022700002C0E0E0F8E08091040190910501A09196
:102280000601B0910701803B9440A105B10509F01A
:102290007BC080910B0180FF93C076C00E94B40A7E
:1022A000DC0112960D911C9113970115110541F156
:1022B000D801ED91FC910190F081E02DBE016B5EA3
:1022C0007F4FC8010995811117C0F801008511855C
:1022D000ECCF113009F44EC0133091F48F8988236C
:1022E00009F445C0823081F440E860E180E698E07E
:1022F0000E94CE0B882321F08EEF8093E80079C0F6
:1023000081E28093EB0075C0813029F440E86BE0F6
:1023100084E598E0EDCF833099F70E94B40ADC01A0
:102320001296ED90FC9013978E010F5F1F4F68017E
:10233000E114F10479F0D701ED91FC910680F78169
:10234000E02DB801C7010995080F111DF701E084C0
:10235000F184EECFD8011C92F60101900020E9F73C
:102360003197BF016C197D0940E0C601C1CF6EE312
:1023700078E002C062E478E06115710509F2FB01C2
:10238000449150E080E840CF0FB6F894A895809132
:102390006000886180936000109260000FBEA89575
:1023A000EE3F2AE0F20739F08091FE0A9091FF0A91
:1023B00091838083A1CF1092FF0A1092FE0A9CCFD6
:1023C000EE3F8AE0F80731F0808191819093FF0A17
:1023D0008093FE0A87E797E7918380839BE088E1FB
:1023E0000FB6F894A895809360000FBE909360009C
:1023F00083CF6C960FB6F894DEBF0FBECDBFDF91D2
:10240000CF91FF91EF91BF91AF919F918F917F916C
:102410006F915F914F913F912F911F910F91FF907D
:10242000EF90DF90CF900F900FBE0F901F901895F8
:102430002FB7F8948091CB019091CC01A091CD0160
:10244000B091CE012FBF2091E101222391F0209184
:10245000D901382F321B3093E2012091D6013091FF
:10246000D7012F5F3F4F3093D7012093D6011092B1
:10247000E1014091DD015091DE016091DF01709139
:10248000E00184179507A607B70774F4481B42308C
:1024900038F183B7817F83BF83B7816083BF88951D
:1024A00083B78E7F83BF1CC02091D801AC01BD01D2
:1024B000420F511D611D711D4093DD015093DE01DE
:1024C0006093DF017093E0018093D9019093DA016A
:1024D000A093DB01B093DC0181E08093E1010895DA
:1024E00080E008952F923F924F925F926F927F9279
:1024F0008F929F92AF92BF92CF92DF92EF92FF9214
:102500000F931F93CF93DF93CDB7DEB728970FB606
:10251000F894DEBF0FBECDBF222E312C9C01220DC0
:10252000331D37FD30C1803891050CF02CC19B0163
:10253000200F311D37FD27C1603471050CF023C118
:10254000DB0177FF04C0AA27BB27A61BB70BA77028
:10255000BB279B0177FF02C0295F3F4F13E03595F2
:1025600027951A95E1F777FF08C02150310968E0F7
:1025700070E05B01AA1ABB0AD501E02FE695E6954B
:10258000E695CE2ED12C077019F00FEFC01AD00AA5
:10259000B9017695762F662777956795680F791F2D
:1025A0005601A20EB31EBC82AB82412C512CF8E026
:1025B000CF2ED12C86010A1B1B0B1A830983AB80FB
:1025C000BC802A153B0509F4DEC02830310509F42A
:1025D000DAC02F3F1FEF31070CF4CAC03B01E0E81F
:1025E0006E0E711C8B010D591D4F1E830D834C0106
:1025F00000E010E0021513050CF0BAC0E0E88E16FA
:10260000910409F4B5C097FCA8C02F3FFFEF3F0726
:1026100009F4B5C0F801E40DF51DCD80DE80C618C3
:10262000D708AA24A394E40FF51FEA1013C0E4917D
:10263000C60ED71EF0E05F010A2E02C0AA0CBB1C1A
:102640000A94E2F7B886AF82F601B080EF81F88590
:10265000EB292BC0E11017C0E491C60ED71EF0E0A5
:102660000A2E02C0EE0FFF1F0A94E2F75F01A0944A
:10267000B094B886AF82F601A080B12CEF81F885C6
:10268000AE22BF2213C0E491C60ED71EF0E05F0158
:102690000A2E02C0AA0CBB1C0A94E2F7B886AF82CD
:1026A000F601B080EF81F885EB255F01F601A0828D
:1026B000109709F452C02730310509F44EC0F801D3
:1026C000E40DF51DAA24A394EA1011C0E40FF51F30
:1026D000E491CE2ED12C5601098002C0B594A79466
:1026E0000A94E2F7ED81FE81D080AD2835C0CD801F
:1026F000DE80C618D708E40FF51FE11018C0E4917A
:10270000C60CD71CAE2EB12C098002C0B594A7947C
:102710000A94E2F7F501E095F095F887EF83F6016A
:10272000A080B12CEF81F885AE22BF2214C0E491C5
:10273000C60CD71CAE2EB12CF501098002C0F59550
:10274000E7950A94E2F7F887EF83F601B080EF810E
:10275000F885EB255F01F601A0820F5F1F4FED8129
:10276000FE813196FE83ED83FFEF8F1A9F0A42CFE1
:102770002F5F3F4F420C531C60587F4F20CF109764
:1027800009F09DCFEACF28960FB6F894DEBF0FBEB2
:10279000CDBFDF91CF911F910F91FF90EF90DF9010
:1027A000CF90BF90AF909F908F907F906F905F90F1
:1027B0004F903F902F900895DF92EF92FF920F93EA
:1027C0001F93CF93DF937C01D42E8B010F5F1F4F9C
:1027D000EB0177FF12C0C0E0D0E00FC0CE17DF07DB
:1027E0009CF480E8E816F10438F42D2DAE01B70111
:1027F0008FEC91E00E94430E2196F80101341105FF
:102800006CF3E0E4F0E0EACFDF91CF911F910F91FC
:10281000FF90EF90DF90089520E083EE91E0B22FDB
:10282000B111BFEFFC010024B193B193B193B19307
:102830000394D1F70895009769F0FC0101900020FE
:10284000E9F73197AF01481B590BBC018FEC91E0C0
:102850000C94AE0780E090E00895FC018091C301E4
:10286000811103C08FEF9FEF08959FB7F89482E026
:102870008093E9002091F20030E01216130614F460
:1028800021E030E02115310559F0289884E6809345
:10289000C2018091F10080838091F200882319F0B9
:1028A0009FBFC90108958BE68093E800F9CF2FB749
:1028B000F89483E08093E9009091E800892F80727A
:1028C00095FF04C09091F20080E4891B2FBF08950A
:1028D000362F90E0FC01E15BF14F4491FC01E2599D
:1028E000F14F2491FC01E556F14F8491882309F4BE
:1028F00051C04423E1F150E0FA013197EF30F10586
:10290000B0F5EA5AFF4F0C947E1D909180009F779E
:1029100007C0909180009F7D03C090918000977FB9
:102920009093800024C094B59F7702C094B59F7D9A
:1029300094BD1DC0909190009F7707C0909190002A
:102940009F7D03C090919000977F909390000FC05F
:102950009091C0009F7703C09091C0009F7D90939D
:10296000C00005C09091C200977F9093C200E82FED
:10297000F0E0EE0FFF1FE357F14FA591B4918FB731
:10298000F894EC91311103C020952E2301C02E2B19
:102990002C938FBF0895CF93DF9390E0FC01E25911
:1029A000F14F2491FC01E556F14F8491882361F1A8
:1029B00090E0880F991FFC01EF5BF14FC591D49116
:1029C000FC01E357F14FA591B491611109C09FB784
:1029D000F8948881209582238883EC912E230BC064
:1029E000623061F49FB7F8943881822F80958323F9
:1029F0008883EC912E2B2C939FBF06C08FB7F89441
:102A0000E8812E2B28838FBFDF91CF910895CF933C
:102A1000DF939091CA01923009F46EC0C82F292F1C
:102A200030E0F901E654F14FD491F901E751FA4F42
:102A300080839F5F9093CA0161E00E94CB14D130E4
:102A400019F0D33039F158C01092800010928100F3
:102A500080918100886080938100809181008160F5
:102A6000809381008C2F90E0FC01E556F14FE491BA
:102A7000F0E0EE0FFF1FE357F14F259134913093B3
:102A8000C9012093C801FC01E259F14F8491809360
:102A9000C70132C010929000109291008091910075
:102AA0008860809391008091910081608093910073
:102AB0008C2F90E0FC01E556F14FE491F0E0EE0F31
:102AC000FF1FE357F14F259134913093C6012093B6
:102AD000C501FC01E259F14F84918093C4018091BA
:102AE000CA01882321F06CE380E00E94640C80E03E
:102AF000DF91CF910C944F0DDF91CF9108951F93EB
:102B0000CF93DF93182FEB0161E00E94CB14209745
:102B100011F460E004C0CF3FD10539F461E0812FAA
:102B2000DF91CF911F910C946814E12FF0E0E15BED
:102B3000F14FE4914E2F50E0FA013197EF30F1055B
:102B400008F06CC0EB59FF4F0C947E1D84B5806873
:102B500084BDC7BD68C084B5806284BDC8BD63C084
:102B600080918000806880938000D0938900C0931A
:102B7000880059C080918000806280938000D0934B
:102B80008B00C0938A004FC0809180008860809342
:102B90008000D0938D00C0938C0045C08091900040
:102BA000806880939000D0939900C09398003BC0B8
:102BB00080919000806280939000D0939B00C0939E
:102BC0009A0031C080919000886080939000D093EB
:102BD0009D00C0939C0027C08091C00080688093B6
:102BE000C0008091C0008F7B8093C000C093CF0055
:102BF0001AC08091C00080628093C000C093D00052
:102C000012C08091C20088608093C2008091C2008F
:102C10008B7F8093C200C093D20005C0C038D1051D
:102C20000CF07CCF76CFDF91CF911F910895EF927A
:102C3000FF921F93CF93DF931F92CDB7DEB7162F6E
:102C4000EE24EA94F12CB701681B71098AE04983EC
:102C50000E947F15B701611B71098BE00E947F15EF
:102C60004981B701641B710989E00F90DF91CF9111
:102C70001F91FF90EF900C947F158FB12CB193B101
:102C800030E02095309520743327A90123E0559535
:102C900047952A95E1F7292F30E02095309520714E
:102CA00033273595279535952795242B8095807F5B
:102CB000822B0895FC0121912EBD9C5F21910DB4C2
:102CC00007FEFDCF2EBDE817F907C1F70DB407FECB
:102CD000FDCF0895789484B5826084BD84B5816009
:102CE00084BD85B5826085BD85B5816085BD8091D7
:102CF0006E00816080936E0010928100809181004F
:102D00008260809381008091810081608093810046
:102D1000809180008160809380008091910082602A
:102D200080939100809191008160809391008091C7
:102D300090008160809390008091C10084608093B6
:102D4000C1008091C10082608093C1008091C10068
:102D500081608093C1008091C30081608093C30033
:102D60008091C00082608093C0008091C200816029
:102D70008093C20080917A00846080937A00809171
:102D80007A00826080937A0080917A0081608093DB
:102D90007A0080917A00806880937A001092C30153
:102DA0001092A2011092A3018091D70081608093BC
:102DB000D70080EA8093D80089B5806189BD89B544
:102DC000826089BD09B400FEFDCF61E070E080E063
:102DD00090E00E94190A8091D8008F7C80618093D6
:102DE000D8008091E000807F8093E0008091E10036
:102DF0008E7E8093E1008DE08093E200559A209AC8
:102E0000EEEFFFE7859194918B3F9C4D19F481E0A3
:102E10008093A10110929701109296018091E20196
:102E200034E6839FC00111246091D80170E00E94B4
:102E30006A1D672B09F03BC1CFB7F89480917B01E5
:102E4000811127C0ECEAFEE08491EFE7FEE0949167
:102E5000E82FF0E0EE0FFF1FEF5BF14FA591B4916B
:102E6000EC91E92321F461E081E10E94681461E0C2
:102E700081E10E94CB148CB580618CBD8CB58064DF
:102E80008CBD61E08FE00E94CB1461E080E10E9484
:102E9000CB1480917B018F5F80937B01CFBFCDEC02
:102EA000D1E0FE018491229631966491882319F035
:102EB0000E94CB14F6CF61E086E00E94681461E0C6
:102EC00070E080E090E00E94190A60E086E00E94D5
:102ED00068146AE070E080E090E00E94190A61E006
:102EE00086E00E946814E7EAFEE0E491F0E0EE0F6D
:102EF000FF1FE357F14F8591949190938101809347
:102F00008001EAE7FEE0E491E0937F01EFE9FEE073
:102F1000E491F0E0EE0FFF1FE357F14F859194919C
:102F200090937E0180937D01E2E7FEE0E491E093DF
:102F30007C018CB58C7F8CBD8DB581608DBDE091A1
:102F40008001F0918101908180917F01982B908385
:102F5000A0917D01B0917E012C9190917C01909582
:102F600092239C939081809589238083E0ECF1E00B
:102F700021E0ED3CF20749F084918EBD00000DB4D4
:102F800007FEFDCF8EB53196F3CFE0917D01F09134
:102F90007E01908180917C01892B8083E09180016A
:102FA000F0918101908180917F01809589238083B8
:102FB00080916400816080936400809164008260ED
:102FC00080936400809164008068809364008091A5
:102FD00064008064809364008091650081608093C8
:102FE00065000E943D1687FF10C080E094E01EBC83
:102FF00000000DB407FEFDCF2EB50197C1F74FEFCE
:103000006FEF8FEF0E941716FFCFCEEEDFEF18E1C4
:1030100040E060E0812F8C1B0E9417160E940C1468
:10302000EE24E39400E128E540E151E0BE0184E1B3
:1030300090E00E94721283EE91E00E945A166BE1BA
:1030400070E080E090E00E94190AC03F31F46AEF1E
:1030500070E080E090E00E94190A2196C931D10504
:10306000B9F66EEE72E080E090E00E94190A40E04E
:1030700060E080E00E94171685E00E9407158DE051
:103080000E9407151092A80182E090E00E9486201D
:10309000882369F080916400877F80936400809129
:1030A0006500877F8093650081E080937A018CE3DF
:1030B00090E0909383018093820180E290E090936E
:1030C00093018093920181E090E090939501809329
:1030D0009401FAE02F2E312C0E941812882309F453
:1030E00044C48091960190919701019680365AEEE2
:1030F000950729F0909397018093960104C0109250
:103100009701109296010E943D160E943D1684FD83
:1031100002C06CE301C060E06093D50170E088EE0E
:1031200093E00E946A1D6093D80180919401909170
:103130009501019709F0AAC10E943D1682FDAEC318
:10314000C8E1D0E00E940C14EE24E39400E420E4F3
:103150004CEF55E060E070E080E290E00E94721277
:1031600081E00E94530A219769F781EF95E09093DF
:10317000A5018093A4019093A7018093A6010E94CA
:10318000780D81E08093A80140E860E080E60E942D
:10319000171686E00E94530A40E060E080E00E943B
:1031A00017168CE30E94530AE12C00E220E241E76B
:1031B00055E06BE070E084E390E00E94721220E240
:1031C00041E755E06BE070E084E390E00E9472120A
:1031D00020E241E755E06BE070E084E390E00E947C
:1031E000721220E241E755E06DE070E087E390E085
:1031F0000E94721220E241E755E06DE070E087E343
:1032000090E00E94721220E241E755E06DE070E02C
:1032100087E390E00E947212A12CB12CE3E08E2E85
:10322000912C62E070E080E090E00E9486082B0123
:103230003C01EFEF4E1A5E0A6E0A7E0A62E070E011
:1032400080E090E00E9486088B019C010F5F1F4F79
:103250002F4F3F4FC501B4010E946A1DA801445F72
:103260005F4F6A01E201E696892B19F4EE24E3949C
:1032700001C0E12C00E220E241E755E0B601CE01B9
:103280000E94721220E241E755E0B601CE010E9491
:10329000721220E241E755E0B601CE010E9472129F
:1032A00083EE91E00E945A1681E00E94530A5FEF7C
:1032B000A51AB50A64E2A616B10409F0B2CFCCE0B3
:1032C000D0E02091920130919301C217D3070CF006
:1032D0005CC0CE01B1010E946A1D6F5F7F4FC60FB7
:1032E000D71F2C173D070CF4E9010E940C14EE24A3
:1032F000E39400E420E44CEF55E060E070E080E20D
:1033000090E00E947212E12C00E220E241E755E0D9
:10331000BE0185E390E00E94721220E241E755E091
:10332000BE0187E390E00E94721220E241E755E07F
:103330006E0171E0C71AD108B60185E390E00E94E2
:10334000721220E241E755E0B60187E390E00E9467
:10335000721220E241E755E0BE016F5F7F4F86E3C6
:1033600090E00E947212EE24E39420E241E755E0DF
:10337000BE0186E390E00E94721283EE91E00E940B
:103380005A1681E00E94530A9CCF86E692E0909301
:10339000A5018093A4019093A7018093A6010E94A8
:1033A000780D81E08093A80188E70E94530A7FE7A7
:1033B000872E912CC12CD12C2E0181E0481A510866
:1033C000560197E3C916D1041CF066E3A62EB12C72
:1033D00057E3652E712C6A187B08E12C00E220E28D
:1033E00041E755E0BE01C3010E947212E0E2CE1631
:1033F000D10424F47601EE0CFF1C01C0740100E03E
:1034000010E040E0B701C8010E94DC130F5F1F4FBE
:1034100000381105B1F7E12C00E220E241E755E068
:10342000BE0185E390E08A199B090E94721286E32F
:1034300090E09C012A193B09590120E241E755E03F
:10344000B201C5010E94721220E241E755E0BE01BF
:10345000C3010E947212EE24E39420E241E755E09A
:10346000BE01C5010E94721281E00E94530A3FEF23
:10347000C31AD30A42E0841A910850E4C516D10455
:1034800009F09ECF8AE00E94530A08C20E940C14E1
:103490008091D6019091D70165E070E00E94561DA1
:1034A000892B09F078C00E943D1685FF10C080E589
:1034B00090E09093E4058093E30582E390E090939D
:1034C000E6058093E50587E491E00E941B140E94C5
:1034D0003D1686FF10C08DE590E09093E405809343
:1034E000E30582E390E09093E6058093E50589E4A7
:1034F00091E00E941B140E943D1687FF10C084E5D6
:1035000090E09093E4058093E3058DE290E0909342
:10351000E6058093E5058BE491E00E941B140E9470
:103520003D1684FF10C084E590E09093E4058093FD
:10353000E30587E390E09093E6058093E5058EE44C
:1035400091E00E941B140E943D1683FF10C086E686
:1035500090E09093E4058093E30582E390E09093FC
:10356000E6058093E50581E591E00E941B140E9429
:103570003D1682FF10C08EE690E09093E4058093A4
:10358000E30582E390E09093E6058093E50583E50B
:1035900091E00E941B1480919401909195018230DA
:1035A000910509F018C10E94890924E6C22ED12C88
:1035B00034EFA32EBB24B394CBEFD1E011E0809184
:1035C00096019091970101969093970180939601AF
:1035D00080919001909191010E94DD070097F9F090
:1035E00020918E0130918F01280F391FC901B6013A
:1035F0000E946A1DFB01E55BFF4FC901B5010E94F6
:103600006A1D660F771F660F771F6E0F7F1F7093FF
:1036100091016093900130938F0120938E018091EE
:103620008E0190918F010E94AA088091940190913F
:103630009501029789F5E0908401F0908501E114ED
:10364000F10429F00E943D1687FD97C1AFC10E9489
:103650003D1683FD92C1F6CF8D3091050CF4C3C1A8
:103660008031910509F4BFC18231910509F4BBC1D4
:103670008431910509F4C0C18631910509F4BCC1BA
:10368000873291050CF4BEC1109289011092880115
:1036900010928501109284010E940C1480918E0179
:1036A00090918F010E940908809188019091890171
:1036B000E0919201F0919301E81BF90B892BB1F491
:1036C0008091960190919701B1010E94561DAB0126
:1036D000437055275695542F4427579547954F5873
:1036E0005D4FEE24E39400E220E206C0EE24E39472
:1036F00000E220E241E752E0BF0180E090E00E945A
:1037000072120E94B00980918E0190918F014091B8
:103710008C0150918D01481B590B20918A013091E9
:103720008B01281B390B809192019091930160913C
:10373000880170918901861B970B413251051CF558
:10374000E0918601F091870157FF03C0405F5F4F12
:1037500005C060E270E0641B750BAB01E817F90768
:1037600034F4BF01685E7F4F681B790B05C0BC0154
:10377000605E7F4F6E1B7F0B4A30510524F06D3029
:1037800071050CF055C1213231050CF540918601CF
:103790005091870137FF03C0205F3F4F05C0E0E233
:1037A000F0E0E21BF30B9F01481759073CF4485E19
:1037B0005F4FBA01681B790BCB0103C08096841B55
:1037C000950B2A3031051CF00D970CF031C181E0CA
:1037D0000E94530AF4CE039709F0C3C08BEE91E028
:1037E0009093A5018093A4019093A7018093A601D3
:1037F0000E94780D81E08093A801C9EFDFEF8091EE
:10380000960190919701019690939701809396016C
:103810000E940C1480918E0190918F010E940908E2
:10382000C230D105C0F0CE0109970297A0F0609197
:103830009201709193018091880190918901681B98
:10384000790BEE24E39400E220E241E754E080E0CB
:1038500090E00E9472120E94B00983EE91E00E94F3
:103860005A1681E00E94530A2196C131D10539F6DA
:10387000C0908E01D0908F01C1E0D0E011E0809126
:1038800096019091970101969093970180939601EC
:103890000E943D1682FF05C00E943D160E948909C4
:1038A00064C080918801909189018D3F7FEF9707D7
:1038B0000CF4C5C001979093890180938801CD2BAA
:1038C000B1F00496B9F42CEF3FEF309389012093C7
:1038D000880140EE51E05093A5014093A40150931C
:1038E000A7014093A6010E94780D1093A801C0E0A3
:1038F000D0E002C0C1E0D0E0E0909001F0909101F2
:103900001E141F0464F4C7010E94DD0751E0E51A8C
:10391000F108F0929101E0929001C80ED91EC60103
:103920000E94AA080E940C14C6010E940908609116
:103930009201709193018091880190918901681B97
:10394000790BEE24E39400E220E241EF54E080E0C2
:1039500090E00E9472120E94B00981E00E94530A16
:103960008ECF83EE91E00E945A1680E090E0892B82
:1039700009F4B2CB0E940000ACCB61E070E0709320
:1039800085016093840185E090E0909389018093A4
:103990008801D093A501C093A401D093A701C0933F
:1039A000A6010E94780D1093A80176CEE114F104CF
:1039B00009F472CEC701019690938501809384012A
:1039C0008630910534F480918801909189010696A2
:1039D0002AC0893091050CF03FCE809188019091EA
:1039E0008901029620C080918801909189010196F9
:1039F0001AC04A970CF450CE8091880190918901A9
:103A0000019711C08132910534F080918801909125
:103A10008901069708C08E3191055CF38091880179
:103A2000909189010297909389018093880134CE07
:103A300083E090E0909395018093940196CFCD2BF5
:103A400009F041CF54CFEBEEF5E01382128288EEFD
:103A500093E0A0E0B0E084839583A683B7838BE1F5
:103A600091E0918380838FEF9FEF95878487EFECC0
:103A7000F1E0138212828DE291E0918380838CE3E6
:103A8000868380E181871086178216861786108AC2
:103A9000118A128A1092E4051092E3051092E6054D
:103AA0001092E50581E08093E7050895AA1BBB1BF2
:103AB00051E107C0AA1FBB1FA617B70710F0A61B2E
:103AC000B70B881F991F5A95A9F780959095BC014F
:103AD000CD01089597FB072E16F4009407D077FDCB
:103AE00009D00E94561D07FC05D03EF490958195A3
:103AF0009F4F0895709561957F4F0895EE0FFF1FBA
:103B00000590F491E02D099481E090E0F8940C94F4
:103B10002821AEE0B0E0EFE8FDE10C94FF200D8934
:103B20001E8986E08C831A8309838FEF9FE79E832B
:103B30008D83AE01475E5F4F6F89788DCE01019610
:103B40000E94AC1D2F813885F801E20FF31F10820F
:103B50002E96E4E00C941B21ACE0B0E0E2EBFDE13A
:103B60000C94F1207C016B018A01FC011782168202
:103B7000838181FFBDC1CE0101964C01F701938184
:103B8000F60193FD859193FF81916F01882309F4DC
:103B9000ABC1853239F493FD859193FF81916F011B
:103BA000853229F4B70190E00E94941FE7CF512C91
:103BB000312C20E02032A0F48B3269F030F48032D6
:103BC00059F0833269F420612CC08D3239F0803392
:103BD00039F4216026C02260246023C0286021C0FF
:103BE00027FD27C030ED380F3A3078F426FF06C0A5
:103BF000FAE05F9E300D1124532E13C08AE0389EE8
:103C0000300D1124332E20620CC08E3221F426FD9B
:103C10006BC1206406C08C3611F4206802C088365F
:103C200041F4F60193FD859193FF81916F0181111C
:103C3000C1CF982F9F7D9554933028F40C5F1F4F70
:103C4000FFE3F9830DC0833631F0833771F083359C
:103C500009F05BC022C0F801808189830E5F1F4F8D
:103C600044244394512C540115C03801F2E06F0EE6
:103C7000711CF801A080B18026FF03C0652D70E0A3
:103C800002C06FEF7FEFC5012C870E94891F2C01B6
:103C900083012C852F77222E17C03801F2E06F0E9A
:103CA000711CF801A080B18026FF03C0652D70E073
:103CB00002C06FEF7FEFC5012C870E947E1F2C0191
:103CC0002C852068222E830123FC1BC0832D90E0CD
:103CD00048165906B0F4B70180E290E00E94941FA4
:103CE0003A94F4CFF50127FC859127FE81915F017D
:103CF000B70190E00E94941F31103A94F1E04F1AFE
:103D000051084114510471F7E5C0843611F0893629
:103D100039F5F80127FF07C06081718182819381A5
:103D20000C5F1F4F08C060817181072E000C880B4B
:103D3000990B0E5F1F4F2F76722E97FF09C090953B
:103D40008095709561957F4F8F4F9F4F2068722EA1
:103D50002AE030E0A4010E94CC1FA82EA81844C07D
:103D6000853729F42F7EB22E2AE030E025C0F22FCD
:103D7000F97FBF2E8F36C1F018F4883579F0B4C0C2
:103D8000803719F0883721F0AFC02F2F2061B22E75
:103D9000B4FE0DC08B2D8460B82E09C024FF0AC06C
:103DA0009F2F9660B92E06C028E030E005C020E1C4
:103DB00030E002C020E132E0F801B7FE07C06081C8
:103DC0007181828193810C5F1F4F06C06081718178
:103DD00080E090E00E5F1F4FA4010E94CC1FA82E30
:103DE000A818FB2DFF777F2E76FE0BC0372D3E7F68
:103DF000A51450F474FE0AC072FC08C0372D3E7E34
:103E000005C0BA2C372D03C0BA2C01C0B52C34FF25
:103E10000DC0FE01EA0DF11D8081803311F4397E61
:103E200009C032FF06C0B394B39404C0832F8678D0
:103E300009F0B39433FD13C030FF06C05A2CB314FD
:103E400018F4530C5B18B32CB31468F4B70180E278
:103E500090E03C870E94941FB3943C85F5CFB31447
:103E600010F43B1801C0312C34FF12C0B70180E3BD
:103E700090E03C870E94941F3C8532FF17C031FDC3
:103E800003C088E790E002C088E590E0B7010CC06D
:103E9000832F867859F031FF02C08BE201C080E2A7
:103EA00037FD8DE2B70190E00E94941FA51438F40D
:103EB000B70180E390E00E94941F5A94F7CFAA9430
:103EC000F401EA0DF11D8081B70190E00E94941F7A
:103ED000A110F5CF332009F451CEB70180E290E074
:103EE0000E94941F3A94F6CFF7018681978102C011
:103EF0008FEF9FEF2C96E2E10C940D21FC010590D1
:103F0000615070400110D8F7809590958E0F9F1FDB
:103F10000895FC016150704001900110D8F7809520
:103F200090958E0F9F1F08950F931F93CF93DF934C
:103F3000FB01238121FD03C08FEF9FEF28C022FFEB
:103F400016C046815781248135814217530744F4B6
:103F5000A081B1819D012F5F3F4F318320838C93DE
:103F6000268137812F5F3F4F3783268310C0EB01B7
:103F7000092F182F0084F185E02D0995892BE1F692
:103F80008E819F8101969F838E83812F902FDF9159
:103F9000CF911F910F910895FA01AA27283051F16E
:103FA000203181F1E8946F936E7F6E5F7F4F8F4F6A
:103FB0009F4FAF4FB1E03ED0B4E03CD0670F781FC9
:103FC000891F9A1FA11D680F791F8A1F911DA11DAE
:103FD0006A0F711D811D911DA11D20D009F46894E7
:103FE0003F912AE0269F11243019305D3193DEF68F
:103FF000CF010895462F4770405D4193B3E00FD045
:10400000C9F7F6CF462F4F70405D4A3318F0495D2F
:1040100031FD4052419302D0A9F7EACFB4E0A69512
:104020009795879577956795BA95C9F70097610534
:10403000710508959B01AC010A2E0694579547958A
:1040400037952795BA95C9F7620F731F841F951F7F
:10405000A01D08958F929F92AF92BF92CF92DF9250
:10406000EF92FF92CF93DF93EC01688179818A818F
:104070009B81611571058105910521F464E279ED5B
:104080008BE597E02DE133EF41E050E00E948E2078
:1040900049015A019B01AC01A7EAB1E40E94AD209D
:1040A0006B017C01ACEEB4EFA50194010E94BB2032
:1040B000DC01CB018C0D9D1DAE1DBF1DB7FF03C0E4
:1040C0000197A109B04888839983AA83BB83BC0167
:1040D000CD019F77DF91CF91FF90EF90DF90CF9050
:1040E000BF90AF909F908F9008950E942A200895CE
:1040F0008CE091E00E942A20089560930C01709357
:104100000D0180930E0190930F010895F999FECF50
:1041100092BD81BDF89A992780B50895052E97FB29
:104120001EF400940E94A52057FD07D00E94C020D5
:1041300007FC03D04EF40C94A52050954095309583
:1041400021953F4F4F4F5F4F089590958095709503
:1041500061957F4F8F4F9F4F08950E94E220A59F4A
:10416000900DB49F900DA49F800D911D1124089572
:10417000B7FF0C94AD200E94AD20821B930B0895D5
:10418000A1E21A2EAA1BBB1BFD010DC0AA1FBB1F5B
:10419000EE1FFF1FA217B307E407F50720F0A21BCD
:1041A000B30BE40BF50B661F771F881F991F1A943A
:1041B00069F760957095809590959B01AC01BD0164
:1041C000CF010895A29FB001B39FC001A39F700DBE
:1041D000811D1124911DB29F700D811D1124911D0F
:1041E00008952F923F924F925F926F927F928F929B
:1041F0009F92AF92BF92CF92DF92EF92FF920F9376
:104200001F93CF93DF93CDB7DEB7CA1BDB0B0FB67F
:10421000F894DEBF0FBECDBF09942A88398848883C
:104220005F846E847D848C849B84AA84B984C884D2
:10423000DF80EE80FD800C811B81AA81B981CE0FC9
:10424000D11D0FB6F894DEBF0FBECDBFED010895AE
:04425000F894FFCF10
:10425400FFFFFFFF00E1000000000000010000007C
:1042640000C1808100000000000000C80A030B8820
:104274000BDE0AE90AB00B8C0B00000000650EAEE1
:1042840007DA07D907444953543A202564202053B8
:1042940050443A202564003C003E002F5C005C2F13
:0642A40000410042000091
:00000001FF
