:100000000C94CA050C94F2050C94F2050C94F205BC
:100010000C94F2050C94F2050C94F2050C94F20584
:100020000C94F2050C94F2050C94C20E0C94340F4F
:100030000C94F2050C94F2050C94F2050C94F20564
:100040000C94F2050C945D0D0C94F2050C94F205E1
:100050000C94F2050C94F2050C94F2050C9494099E
:100060000C94F2050C94F2050C94F2050C94F20534
:100070000C94F2050C94F2050C94F2050C94F20524
:100080000C94FB0D0C94F2050C94F2050C94F20503
:100090000C94F2050C94F2050C94F2050C94F20504
:1000A0000C94F2050C94F2050C94F2051C131F132A
:1000B0000E13121316134013401340132313271368
:1000C0002B133113351340133B132F1434143914ED
:1000D00043144D14971497149714571461146B1408
:1000E0007514821497148A141F010101011F010D58
:1000F0000D011F1F13131F1F1F1F1F1FF0F89C8EC2
:100100008783878E9CF8F00000FEFF030303030340
:10011000070EFCF80000FEFF0303030303070EFCB9
:10012000F80000FFFF00000000000000FFFF0000DB
:10013000FEFF8383838383C7EE7C380000F8FC0EC8
:1001400007030303070EFCF800003F7FE0C0808038
:10015000C0E07F3FFFFF01010101010101FFFF003E
:1001600000FFFF0C0C0C0C1C3E77E3C100007FFF6E
:10017000C0C0C0C0C0E0703F1F00001F3F70E0C0A3
:10018000C0C0E0703F1F00007FFFC1C1C1C1C1E31B
:10019000773E1C00001F3F70E0C0C0C0E0703F1FF2
:1001A000000000000001FFFF01000000D5F08D14E9
:1001B000A1C881CFD9F1AF20001402130212021599
:1001C000020702080204010C01060100001E121EB3
:1001D0000000001E0000001A1A160000121A1E006D
:1001E000000E081C0000161A1A00001E1818000045
:1001F00002021E00001E1A1E00000E0A1E00000051
:100200001400000000000000000E1008100E001E78
:10021000001E04081E000000000000000000000096
:1002200000000000000000000000000000000000CE
:1002300000000000000000000000000000000000BE
:10024000000000000000FFFFFFFFFFFFFFFF0000B6
:1002500000000000C0F0F8FCFEFEFFFF7F7F3F3F84
:100260007F7FFFFFFEFEFC783000000000000000F2
:10027000000000000000000000000000000000007E
:10028000000000000000000000000000000000006E
:10029000000000000000000000000000000000005E
:1002A00000000000000000000000FFFFFFFFFFFF54
:1002B000FFFF0000000000003FFFFFFFFFFFFFF80F
:1002C000F0E0E0C0C08080030100000000000000FA
:1002D000000000000000000000000000000000001E
:1002E000000000000000000000000000000000000E
:1002F00000000000000000000000000000000000FE
:100300000000000000000000000000000000FFFFEF
:10031000FFFFFFFFFFFF00000000000000000103DF
:1003200007070F0F1F1F3F3F7F7FFFFFFFFEFEFCF2
:10033000F8F0C00000000000000000000000000015
:100340000002020202020202020101010101010196
:10035000010101010101010101010101010101018D
:10036000010101010171F1F9F9FDFDF1E1E1E1E1C5
:10037000E1E1FFFFFFFFFFFF7F0F0202020232F207
:10038000FAFAFCFCFCF4E4E4C4C8C8C8C8D0F0F134
:10039000FFFFFFFFFFFF7FC0C08080000000000064
:1003A000000000000000000000000000000000004D
:1003B000000000000000000000000000000000003D
:1003C0000000000000000000000000010307070714
:1003D0000F0F0F0F0F0F0F0707070301000000009B
:1003E0000000000001030307070F0F0F0F1F1F1F5F
:1003F0001F1F0F0F0F0F0703030100000001010370
:10040000079EFEFCF8E00000000000000000000075
:1004100000000000000000000000000000000000DC
:100420000000000000000000000000000000CE00FE
:100430000640C08A4682C680CEC8C640C6CEC6C068
:10044000CE0C0C0E0A020C02000A040E0E02000E64
:100450000E000000000000000000808080C0E0E08E
:10046000F030783C1E1F0F07030000000000000062
:10047000000000000000000000000000000000007C
:10048000000000000000000000000000000000006C
:100490000000010000000100010100010100000155
:1004A00000018181818080C0C0C0C0E0E0606070D8
:1004B0007030303818181C1C0C0E0E06070703038A
:1004C0000101010000000000000000000000000029
:1004D00000080B00020202010009040000010202F0
:1004E0000000052400100105240101010424020676
:1004F00005240600010705810310004009040100DE
:10050000020A0000000705020240000007058302FE
:100510004000000403090412010002EF02014041FF
:1005200023368000010102030141726475696E6F18
:10053000204C4C430041726475696E6F204C656FAE
:100540006E6172646F0000000000003E5B4F5B3E16
:100550003E6B4F6B3E1C3E7C3E1C183C7E3C181C88
:10056000577D571C1C5E7F5E1C00183C1800FFE77F
:10057000C3E7FF0018241800FFE7DBE7FF30483A25
:10058000060E2629792926407F050507407F052587
:100590003F5A3CE73C5A7F3E1C1C08081C1C3E7F0F
:1005A00014227F22145F5F005F5F06097F017F00D6
:1005B0006689956A606060606094A2FFA2940804F6
:1005C0007E040810207E201008082A1C08081C2A17
:1005D00008081E101010100C1E0C1E0C30383E386F
:1005E00030060E3E0E06000000000000005F000016
:1005F0000007000700147F147F14242A7F2A122387
:100600001308646236495620500008070300001C96
:100610002241000041221C002A1C7F1C2A08083E9F
:1006200008080080703000080808080800006060B2
:100630000020100804023E5149453E00427F400020
:1006400072494949462141494D331814127F1027F8
:10065000454545393C4A4949314121110907364947
:10066000494936464949291E00001400000040341B
:100670000000000814224114141414140041221420
:100680000802015909063E415D594E7C1211127C47
:100690007F494949363E414141227F4141413E7FA8
:1006A000494949417F090909013E414151737F0888
:1006B00008087F00417F41002040413F017F08142E
:1006C00022417F404040407F021C027F7F0408108F
:1006D0007F3E4141413E7F090909063E4151215E6D
:1006E0007F09192946264949493203017F01033F01
:1006F0004040403F1F2040201F3F4038403F631490
:1007000008146303047804036159494D43007F4191
:1007100041410204081020004141417F04020102CE
:1007200004404040404000030708002054547840F3
:100730007F284444383844444428384444287F3887
:100740005454541800087E090218A4A49C787F0809
:1007500004047800447D40002040403D007F102884
:10076000440000417F40007C047804787C08040445
:10077000783844444438FC1824241818242418FCDD
:100780007C08040408485454542404043F44243C82
:100790004040207C1C2040201C3C4030403C4428F1
:1007A0001028444C9090907C4464544C440008368B
:1007B00041000000770000004136080002010204F9
:1007C000023C2623263C1EA1A161123A4040207A19
:1007D0003854545559215555794121545478412163
:1007E0005554784020545579400C1E527212395598
:1007F0005555593954545459395554545800004595
:100800007C410002457D420001457C40F0292429BD
:10081000F0F0282528F07C545545002054547C5491
:100820007C0A097F493249494932324848483232C4
:100830004A4848303A4141217A3A42402078009D66
:10084000A0A07D39444444393D4040403D3C24FF14
:100850002424487E4943662B2FFC2F2BFF0929F6C1
:1008600020C0887E090320545479410000447D4112
:100870003048484A32384040227A007A0A0A727D6B
:100880000D19317D2629292F282629292926304886
:100890004D4020380808080808080808382F10C8F4
:1008A000ACBA2F102834FA00007B000008142A1478
:1008B0002222142A14089500220095AA005500AAA5
:1008C000AA55AA55AA000000FF00101010FF00143E
:1008D0001414FF001010FF00FF1010F010F014149B
:1008E00014FC001414F700FF0000FF00FF1414F4C0
:1008F00004FC141417101F10101F101F1414141FC1
:1009000000101010F0000000001F101010101F1039
:10091000101010F010000000FF1010101010101038
:100920001010FF10000000FF140000FF00FF000087
:100930001F10170000FC04F414141710171414F4FB
:1009400004F40000FF00F714141414141414F70036
:10095000F7141414171410101F101F141414F41487
:100960001010F010F000001F101F0000001F1400F6
:100970000000FC140000F010F01010FF10FF141421
:1009800014FF141010101F00000000F010FFFFFFF4
:10099000FFFFF0F0F0F0F0FFFFFF0000000000FFAD
:1009A000FF0F0F0F0F0F38444438447C2A2A3E149F
:1009B0007E02020606027E027E02635549416338CA
:1009C00044443C04407E201E2006027E020299A57B
:1009D000E7A5991C2A492A1C4C7201724C304A4DD9
:1009E0004D303048784830BC625A463D3E4949490E
:1009F000007E0101017E2A2A2A2A2A44445F4444B7
:100A000040514A444040444A51400000FF0103E045
:100A100080FF000008086B6B083612362436060F7C
:100A2000090F06000018180000001010003040FFE9
:100A30000101001F01011E00191D1712003C3C3C62
:100A40003C000000000006011501260137014A01A3
:100A50005D01720188019F01B801D201EE010B0214
:100A60002A024B026E029302BA02E40210033F0311
:100A70007003A403DC03170455049704DD04270561
:100A80007505C80520067D06E0064907B8072D084C
:100A9000A9082D09B9094D0AEA0A900B400CFA0C75
:100AA000C00D910E6F0F5A1053115B1272139A14EE
:100AB000D41520178018F519801B231DDE1EB420C5
:100AC000A622B524E4263429A72B402E0031EA3390
:100AD0000037453ABC3D68414C456B49C84D6852AA
:100AE0004F57805C006210111213151617181A1C4C
:100AF0001D1F21232527292C2E3134373A3E41450D
:100B0000494E52575C62686E757B838B939CA5AF90
:100B1000B9C4D0DCE9F700000000240027002A0057
:100B20002D0030000000000200090F000003040146
:100B3000000C0000000000000000000000000000A9
:100B40000000000408020110408040102040804056
:100B50008008020401804020100201108010204013
:100B6000402000000000250028002B002E0031004E
:100B70000404040404030405020202020403020242
:100B80000202060606060606040402020204040324
:100B900001008C1B11241FBECFEFDAE0DEBFCDBFFA
:100BA00027E0AEEBB1E001C01D92AF37B207E1F72D
:100BB00011E0A0E0B1E0E2E8FBE302C005900D9295
:100BC000AE3BB107D9F715E0CAECD5E004C02197D8
:100BD000FE010E94F91BC93CD107C9F70E94DE142F
:100BE0000C94BF1D0C9400003FB7F8948091DD0277
:100BF0009091DE02A091DF02B091E00226B5A89BA1
:100C000005C02F3F19F00196A11DB11D3FBFBA2F9E
:100C1000A92F982F8827820F911DA11DB11DBC01FE
:100C2000CD0142E0660F771F881F991F4A95D1F7C3
:100C30000895FB019C01205F3F4FDC016D917D9188
:100C4000CD01419151916417750731F4A217B30793
:100C5000A1F781E090E0089580E090E00895FC0124
:100C60008BE090E091838083660F771FDB01A654B1
:100C7000BD4F81E02D913C912130310509F080E09C
:100C8000282F30E0DB01A656BD4F4D915C914130DD
:100C9000510529F42F5F3F4F43E050E00DC08823FA
:100CA00039F081E090E09783868342E050E002C013
:100CB00043E050E020E030E0DB01A658BD4F8D91CD
:100CC0009C91019719F42F5F3F4F0EC021153105FC
:100CD00059F0DA01AA0FBB1FAE0FBF1F2D933C9333
:100CE0004150510920E030E0DB01A65ABD4F8D9103
:100CF0009C91019719F42F5F3F4F0EC021153105CC
:100D000059F0DA01AA0FBB1FAE0FBF1F2D933C9302
:100D10004150510920E030E0DB01A65CBD4F8D91D0
:100D20009C91019719F42F5F3F4F0EC0211531059B
:100D300059F0DA01AA0FBB1FAE0FBF1F2D933C93D2
:100D40004150510920E030E0DB01A65EBD4F8D919E
:100D50009C91019719F42F5F3F4F0EC0211531056B
:100D600059F0DA01AA0FBB1FAE0FBF1F2D933C93A2
:100D70004150510920E030E0DB01A650BE4F8D917B
:100D80009C91019719F42F5F3F4F0EC0211531053B
:100D900059F0DA01AA0FBB1FAE0FBF1F2D933C9372
:100DA0004150510920E030E0DB01A652BE4F8D9149
:100DB0009C91019739F4440F551FE40FF51F2F5FE5
:100DC0003F4F07C02115310531F0440F551FE40F87
:100DD000F51F3183208308952F923F924F925F92A7
:100DE0006F927F928F929F92AF92BF92CF92DF923B
:100DF000EF92FF920F931F93CF93DF9300D01F9238
:100E0000CDB7DEB73C014983152F85E0869D1001E3
:100E1000879D300C11242B01A12CB12C1B821A822E
:100E2000F201819091902F018091D2029091D30292
:100E3000892B99F08091CC029091CD022A813B813F
:100E40002817390751F48091CA029091CB02681695
:100E5000790619F432E0830E911CC980D12EE12C61
:100E6000F12CF601819191916F01F5E0F89FA001BD
:100E7000F99F500D112444535E4F60910D03709102
:100E80000E03620D731D80910F039091100305975F
:100E900005E025E08E199F090E94641125E0E20E0D
:100EA000F11C34E1E316F104E1F685E0889DA00130
:100EB000899D500D112448515F4F60910D03709131
:100EC0000E03620D731D80910F039091100325E0B6
:100ED0008A0D9B1D0E946411EA81FB813196FB8380
:100EE000EA83F5E0AF0EB11C2A813B812830310541
:100EF00009F096CF0F900F900F90DF91CF911F9137
:100F00000F91FF90EF90DF90CF90BF90AF909F90A8
:100F10008F907F906F905F904F903F902F900895AB
:100F20004F925F926F927F92AF92BF92CF92DF9279
:100F3000EF92FF920F931F93CF93DF936B01FC010E
:100F4000118210827C015C01F0E1AF0EB11CC3E0A4
:100F5000D0E000E010E022E0422E512C612C712CF8
:100F60000E94461DA30192010E945C1DF70161933E
:100F700071937F01613071058105910519F40F5F4F
:100F80001F4F0DC00115110551F0FE01EE0FFF1F9F
:100F9000EC0DFD1D11830083219700E010E0EA14A1
:100FA000FB04F1F60115110531F0CC0FDD1FCC0D5E
:100FB000DD1D19830883DF91CF911F910F91FF9061
:100FC000EF90DF90CF90BF90AF907F906F905F9049
:100FD0004F9008958BE090E0909339018093380111
:100FE00090933B0180933A0190933D0180933C01A3
:100FF00090933F0180933E019093310180933001A3
:1010000090933301809332019093350180933401A2
:1010100090933701809336019093290180932801A2
:1010200090932B0180932A0190932D0180932C01A2
:1010300090932F0180932E019093210180932001A2
:1010400090932301809322019093250180932401A2
:1010500090932701809326019093190180931801A2
:1010600090931B0180931A0190931D0180931C01A2
:1010700090931F0180931E019093110180931001A2
:1010800090931301809312019093150180931401A2
:1010900090931701809316019093090180930801A2
:1010A00090930B0180930A0190930D0180930C01A2
:1010B00090930F0180930E019093010180930001A2
:1010C00090930301809302019093050180930401A2
:1010D0009093070180930601EAEAF2E011921192DF
:1010E00082E0EA3BF807D1F7EAE8F2E011921192C8
:1010F00082E0EA39F807D1F7EAE6F2E011921192BC
:1011000082E0EA37F807D1F7EAE4F2E011921192AF
:1011100082E0EA35F807D1F7EAE2F2E011921192A3
:1011200082E0EA33F807D1F7EAE0F2E01192119297
:1011300082E0EA31F807D1F7EAEEF1E0119211927C
:1011400081E0EA3FF807D1F7EAECF1E01192119261
:1011500081E0EA3DF807D1F768E371E08AEB92E0BD
:101160000E94900760E371E08AE992E00E94900794
:1011700068E271E08AE792E00E94900760E271E025
:101180008AE592E00E94900768E171E08AE392E0CC
:101190000E94900760E171E08AE192E00E9490076E
:1011A00068E071E08AEF91E00E94900760E071E0F2
:1011B0008AED91E00E94900760E070E088E791E09E
:1011C0000E942F0661E070E080E791E00E942F0608
:1011D00062E070E088E691E00E942F0663E070E034
:1011E00080E691E00E942F0664E070E088E591E0DF
:1011F0000E942F0665E070E080E591E00E942F06D6
:1012000066E070E088E491E00E942F0667E070E0FD
:1012100080E491E00E942F0681E090E09093D30259
:101220008093D2021092D1021092D0028091D60205
:101230009091D7029093C7018093C6010895409181
:10124000E3025091E4022091E1023091E202421760
:101250005307B4F49091E8009570E1F39091E800A1
:1012600092FD19C08093F1008091E3029091E40215
:1012700001968F739927892B19F48EEF8093E800DC
:101280008091E3029091E40201969093E4028093AE
:10129000E30281E0089580E00895615030F02091EC
:1012A000F100FC0120830196F8CF289884E6809312
:1012B000040308958F929F92AF92BF92CF92DF92D4
:1012C000EF92FF926B017C010E94F4054B015C01DF
:1012D000C114D104E104F104F1F00E94F405DC0131
:1012E000CB0188199909AA09BB09883E9340A10539
:1012F000B10570F321E0C21AD108E108F10888EEC7
:10130000880E83E0981EA11CB11CC114D104E10415
:10131000F10419F7DDCFFF90EF90DF90CF90BF90F1
:10132000AF909F908F9008951F920F920FB60F92DB
:1013300011242F933F938F939F93AF93BF938091EB
:10134000D9029091DA02A091DB02B091DC023091D7
:10135000D80223E0230F2D3720F40196A11DB11DE3
:1013600005C026E8230F0296A11DB11D2093D802C7
:101370008093D9029093DA02A093DB02B093DC024F
:101380008091DD029091DE02A091DF02B091E00237
:101390000196A11DB11D8093DD029093DE02A09302
:1013A000DF02B093E002BF91AF919F918F913F9187
:1013B0002F910F900FBE0F901F9018952F923F9274
:1013C0004F925F926F927F928F929F92AF92BF9255
:1013D000CF92DF92EF92FF920F931F93CF93DF9301
:1013E00000D000D000D0CDB7DEB76A3091F4FC0158
:1013F000E85EFB4F408132972081318158E0459F64
:10140000200D311D112431832083329711821082E7
:10141000E4C06D3009F4E1C0FC01E85EFB4FD08010
:101420003297608071801C017CEE271A7BEF370AAF
:10143000D1012D913C910D2D10E0203831057CF02B
:10144000B6E0DB9E200D311D1124F1013183208394
:10145000FC01E75EFB4F4081411194C0BEC0F0E447
:101460006F1671046CF7A90175E0D79E400D511DF0
:1014700011241416150624F7A80173E0440F551F14
:101480007A95E1F7460D571D14161506CCF6E5E0E2
:101490006E9FD0011124BA83A983490160E070E0F6
:1014A00044244394512C6530710541F0E981FA815F
:1014B000E60FF71FEA5BFA4FE49101C0E0E0530149
:1014C000F8E04E2F4170C42E9C828B824B814819CC
:1014D0004D1508F048C0A501F42EB42FBA19BD155A
:1014E000D8F5AB81BC81A038B10598F540345105E1
:1014F00080F5AF2DA695A695A695EA2EF12CDA01DA
:10150000A770BB27BE83AD83D701B695BA2FAA2794
:10151000B795A795EB80FC80AE0DBF1DA80FB91F36
:1015200072010D8002C0EE0CFF1C0A94E2F7FE82ED
:10153000ED82CC2031F05496FC905497ED80EF284A
:1015400006C0ED80E0945496FC905497EF2054969A
:10155000EC924F5F5F4FC0CF4B815C814F5F5F4F1D
:101560005C834B83B3CFE695F150A00EB11EF11111
:10157000A8CF6F5F7F4F800E911E6630710509F016
:1015800092CF5ECF6AEF6003A001619F500D1124DE
:1015900040585F4F4217530704F5DC01ED91FC9171
:1015A0000190F081E02D6AE026960FB6F894DEBF38
:1015B0000FBECDBFDF91CF911F910F91FF90EF90A4
:1015C000DF90CF90BF90AF909F908F907F906F9063
:1015D0005F904F903F902F90099426960FB6F89405
:1015E000DEBF0FBECDBFDF91CF911F910F91FF9056
:1015F000EF90DF90CF90BF90AF909F908F907F90B3
:101600006F905F904F903F902F900895CF92DF9210
:10161000EF92FF920F931F93CF93DF936C017A01A8
:101620008B01C0E0D0E0CE15DF0589F0D8016D91C7
:101630008D01D601ED91FC910190F081E02DC60164
:101640000995892B11F47E0102C02196ECCFC701C8
:10165000DF91CF911F910F91FF90EF90DF90CF908E
:1016600008958091EE0281110DC082E08093EA021C
:1016700084E08093EB021092ED021092EC0281E084
:101680008093EE028AEE92E00895CF93DF931F924B
:10169000CDB7DEB76983DC01ED91FC910280F38167
:1016A000E02D41E050E0BE016F5F7F4F09950F9044
:1016B000DF91CF91089583E08093E9008091F2005B
:1016C000882319F08AE38093E8000895FC0184855B
:1016D000958597FD0BC09FB7F89482E08093E90051
:1016E0008091F2009FBF90E0019608959FB7F89413
:1016F00082E08093E9008091F2009FBF90E008951E
:10170000089580E090E008950E94F31C8F929F92CC
:10171000AF92BF92CF92DF92EF92FF920F931F93FF
:10172000CF93DF935C016B017A0180918D01882357
:1017300009F45BC080910503882309F456C08091A9
:10174000E70280FF05C08091E00082608093E000A6
:10175000E70110E00AEF83E0882E9AE3992E2097A4
:10176000D9F10E94E01281110AC0015009F43DC074
:1017700061E070E080E090E00E945A09F0CF282FED
:1017800030E0C217D3070CF48C2F4FB7F894809237
:10179000E9009091E80095FF1DC0282F30E0C21BA2
:1017A000D30BF601982F915020F081918093F10096
:1017B000FACFC20ED31E112319F09092E80009C08F
:1017C0008091E80085FD06C09092E80011E0209726
:1017D00009F010E04FBFC3CF1111C3CF5D9884E66D
:1017E0008093E9021E141F0444F081E090E0F501AB
:1017F0009383828380E090E001C0C701DF91CF91A5
:101800001F910F91FF90EF90DF90CF90BF90AF901E
:101810009F908F9008950E94E01290E008950F939A
:101820001F93CF93DF931F92CDB7DEB78C01FC01DE
:101830008485958597FF0EC0CE0101960E94B61251
:10184000019719F4298130E002C02FEF3FEFF80132
:1018500035872487F801848595850F90DF91CF9196
:101860001F910F910895CF93DF931F92CDB7DEB7ED
:10187000FC018485958597FD05C02FEF3FEF3587E7
:1018800024870BC0CE0101960E94B612019719F46D
:10189000898190E002C08FEF9FEF0F90DF91CF9191
:1018A0000895CF92DF92EF92FF920F931F93CF9301
:1018B000DF931F92CDB7DEB7182F062FE42E862FA9
:1018C000880F8E5F99830E941F0983E00E941F0981
:1018D000F12EC12E9981D92E8C2D8F19801798F455
:1018E000F601E7FE02C0849101C080810E941F09B9
:1018F000182F80E00E941F098123FFEFCF1ADF0A13
:101900008111EACF01C081E00F90DF91CF911F914B
:101910000F91FF90EF90DF90CF900895DF92EF92BC
:10192000FF920F931F93CF93DF93D82E8A017B01F1
:10193000E40EF51EEB01CE15DF0571F0D7FE03C0F6
:10194000FE01849101C088810E941F0921968111A6
:10195000F2CF8FEF9FEF01C0C801DF91CF911F91B0
:101960000F91FF90EF90DF9008950F931F93CF9307
:10197000DF931F92CDB7DEB782E0898342E450E067
:1019800061ED74E080E80E948E0C0E94310BDC0156
:1019900012960D911C9113970115110569F0D8014C
:1019A000ED91FC910280F381E02DBE016F5F7F4FCE
:1019B000C801099597FF07C089810F90DF91CF91EA
:1019C0001F910F910895F80100851185E5CFCF9201
:1019D000DF92EF92FF920F931F93CF93E82FF0E0E7
:1019E000E157F44FC491E62FF0E0603330F4EA5150
:1019F000F54FE4910E2F10E006C0EE0FFF1FEA51E5
:101A0000F64F059114916801E12CF12C60E074E22D
:101A100084EF90E0A70196010E945C1DBA01A90124
:101A200041505109610971094115510581E068076B
:101A3000710580F060E970ED83E090E0A701960108
:101A40000E945C1DBA01A901415051096109710947
:101A500083E001C081E0C130C9F0C33031F590911D
:101A60009100987F892B8093910050939900409327
:101A70009800109303030093020381E08093010315
:101A8000809171008260809371000FC090918100FD
:101A9000987F892B80938100509389004093880020
:101AA00080916F00826080936F00CF911F910F91A2
:101AB000FF90EF90DF90CF9008951F920F920FB696
:101AC0000F9211242F933F938F939F93AF93BF93C4
:101AD000EF93FF938091FA02882309F44DC080911F
:101AE000F6029091F702A091F802B091F902892BC9
:101AF0008A2B8B2B51F180910903E0910A03F0911D
:101B00000B039081892780838091F6029091F702E0
:101B1000A091F802B091F902181619061A061B06D0
:101B2000A4F58091F6029091F702A091F802B0918D
:101B3000F9020197A109B1098093F6029093F70287
:101B4000A093F802B093F90220C01092FA0280919B
:101B50006F008D7F80936F0090910903E0910A03DD
:101B6000F0910B038081282F30E0892F90E0809541
:101B700090958223932308C080910903E0910A0382
:101B8000F0910B03908189278083FF91EF91BF91A2
:101B9000AF919F918F913F912F910F900FBE0F901A
:101BA0001F901895E82FF0E0E157F44FE491E130F1
:101BB00019F0E33069F0089580916F008D7F809374
:101BC0006F0090910903E0910A03F0910B0308C0A4
:101BD0001092010390910603E0910703F09108032E
:101BE0008081282F30E0892F90E080959095822386
:101BF0009323808308951F920F920FB60F921124A2
:101C00002F933F934F935F936F937F938F939F9304
:101C1000AF93BF93EF93FF9380910103882349F023
:101C200080910603E0910703F091080390818927D2
:101C300080838091E802882309F493C08091FD029B
:101C40009091FE02A091FF02B0910003892B8A2B94
:101C50008B2B09F486C08091FD029091FE02A09129
:101C6000FF02B09100030197A109B1098093FD0221
:101C70009093FE02A093FF02B0930003892B8A2B5E
:101C80008B2B09F06EC0E091FB02F091FC02BF01CA
:101C90006F5F7F4F7093FC026093FB024491942F1F
:101CA000907F842F8F70903819F40E94D20DEBCF63
:101CB000903981F43296F093FC02E093FB02FB0131
:101CC000649190910C038917F0F667FDDCCF0E94B8
:101CD000E70CD9CF903E29F41092FC021092FB023F
:101CE000D2CF903F19F41092E8023BC097FDCBCFC2
:101CF0003296F093FC02E093FB02FB01249130E06A
:101D0000342BA0910203B09103030E94B01D6C50CC
:101D10007E4F8F4F9F4F28EE33E040E050E00E940F
:101D20008E1D2093FD023093FE024093FF025093DC
:101D300000038091FD029091FE02A091FF02B091FC
:101D40000003892B8A2B8B2B61F481E090E0A0E0CB
:101D5000B0E08093FD029093FE02A093FF02B09347
:101D60000003FF91EF91BF91AF919F918F917F9170
:101D70006F915F914F913F912F910F900FBE0F90F8
:101D80001F9018951F920F920FB60F9211248F93E8
:101D90009F938091E1009091E100937F9093E10007
:101DA00083FF0FC01092E90091E09093EB00109236
:101DB000EC0092E39093ED001092050398E090936D
:101DC000F00082FF20C093E09093E9009091F20030
:101DD000992319F09AE39093E8009091E9029923EE
:101DE00039F09091E90291509093E902992389F199
:101DF00090910403992339F09091040391509093AA
:101E00000403992341F184FF10C08091E2008E7E8B
:101E100081608093E2008091E1008F7E8093E100F9
:101E20008091E7028E7E806111C080FF16C0809194
:101E3000E2008E7E80618093E2008091E1008E7EE0
:101E40008093E1008091E7028E7E81608093E702BB
:101E500004C05D9ACDCF289AD6CF9F918F910F90D5
:101E60000FBE0F901F9018951F920F920FB60F92F2
:101E70001124CF92DF92EF92FF920F931F932F9333
:101E80003F934F935F936F937F938F939F93AF9302
:101E9000BF93EF93FF93CF93DF93CDB7DEB76C97EC
:101EA000DEBFCDBF1092E9008091E80083FFEDC155
:101EB00068E0CE0145960E944D0982EF8093E800CC
:101EC0008D8987FF05C09091E80090FFFCCF03C08B
:101ED0009EEF9093E800982F907609F0C6C09E89F7
:101EE0002F89188D91110CC0803829F48091E60259
:101EF0008093F10002C01092F1001092F10048C1ED
:101F0000422F50E0512B913051F4811141C14130A9
:101F1000510509F03DC18091E6028D7F0BC09330E1
:101F200061F4811135C14130510509F031C1809111
:101F3000E60282608093E6022BC1953041F48091E5
:101F4000E80080FFFCCF20682093E30021C1963099
:101F500009F05FC0EB8CFC8C1092E9001092E40257
:101F60001092E302123091F51092E2021092E10217
:101F70000E94B50C99E0BE016F5F7F4FDB01E92F36
:101F80001D92EA95E9F799831A8391E09E8390EA7E
:101F900098879AEF99872091E3023091E402275FB6
:101FA0003F4F3C832B838D831092E9001092E40213
:101FB0001092E302F092E202E092E10249E050E086
:101FC00080E00E948E0C0E94B50CE2C0F092E2020A
:101FD000E092E1020E94310BDC011296ED90FC9040
:101FE0001397E114F10409F4C0C0D701ED91FC91FD
:101FF0000480F581E02DBE016B5E7F4FC70109951E
:10200000009719F00CF0C4C0C7C0F701E084F18458
:10201000E8CF973009F4C0C0983021F481E0809374
:10202000F100B6C0993009F0B3C0837009F0B4C0B4
:10203000E3E9F1E081E021E036E39081992361F06A
:102040008093E9002093EB0091919093EC00309302
:10205000ED008F5F873089F78EE78093EA0010925A
:10206000EA008F898093050393C08B8D9C8D10921D
:10207000E9001092E4021092E3029093E20280934E
:10208000E102898D811156C08E899D89913A59F45A
:10209000813209F081C047E050E066E871E080E0FD
:1020A0000E948E0C75C0913209F076C0833289F49B
:1020B000888D90E0982F88272F89822BA0E0B0E0B0
:1020C0008093820190938301A0938401B093850152
:1020D0005FC0803269F48091E80082FFFCCF67E046
:1020E00086E891E00E944D098BEF8093E80006C0DE
:1020F000823209F04DC08F8980938D018091E50275
:10210000882319F0EEEFFAE002C0E0E0F8E08091F9
:10211000860190918701A0918801B0918901803B4F
:102120009440A105B10509F07BC080918D0180FF2D
:1021300093C076C00E94310BDC0112960D911C9168
:1021400013970115110541F1D801ED91FC91019012
:10215000F081E02DBE016B5E7F4FC80109958111B2
:1021600017C0F80100851185ECCF113009F44EC07D
:10217000133091F48F89882309F445C0823081F4AB
:1021800040E860E185E395E00E94510C882321F04E
:102190008EEF8093E80079C081E28093EB0075C0F8
:1021A000813029F440E86BE089E295E0EDCF83309F
:1021B00099F70E94310BDC011296ED90FC90139779
:1021C0008E010F5F1F4F6801E114F10479F0D70110
:1021D000ED91FC910680F781E02DB801C7010995CA
:1021E000080F111DF701E084F184EECFD8011C9295
:1021F000F60101900020E9F73197BF016C197D09C4
:1022000040E0C601C1CF63E175E002C067E175E05F
:102210006115710509F2FB01449150E080E840CF5F
:102220000FB6F894A8958091600088618093600053
:10223000109260000FBEA895EE3F2AE0F20739F039
:102240008091FE0A9091FF0A91838083A1CF109222
:10225000FF0A1092FE0A9CCFEE3F8AE0F80731F0A9
:10226000808191819093FF0A8093FE0A87E797E728
:10227000918380839BE088E10FB6F894A8958093C2
:1022800060000FBE9093600083CF6C960FB6F894F9
:10229000DEBF0FBECDBFDF91CF91FF91EF91BF9118
:1022A000AF919F918F917F916F915F914F913F91EE
:1022B0002F911F910F91FF90EF90DF90CF900F9093
:1022C0000FBE0F901F9018952F923F924F925F92E2
:1022D0006F927F928F929F92AF92BF92CF92DF9236
:1022E000EF92FF920F931F93CF93DF93CDB7DEB79B
:1022F00027970FB6F894DEBF0FBECDBFA22EB12C2C
:102300009C012A0D3B1D37FDC1C0803891050CF0A2
:10231000BDC09B01200F311D37FDB8C06034710571
:102320000CF0B4C0DB0177FF04C0AA27BB27A61BB3
:10233000B70BA770BB279B0177FF02C0295F3F4FF8
:10234000F3E035952795FA95E1F777FF08C021501E
:10235000310968E070E04B018A1A9B0AD401402ED3
:10236000469446944694512C077019F00FEF401A8A
:10237000500AB9017695762F662777956795680F8D
:10238000791F420E531EE12CF12CE8E0F0E04F01E2
:102390008A1A9B0A9F828E822415350509F476C01D
:1023A0002830310509F472C02F3F0FEF30070CF4CD
:1023B00063C03B0110E8610E711C8B0109551C4F75
:1023C0006C011B821A828A809B808A149B040CF009
:1023D00053C0E0E8CE16D10409F44EC0D7FC41C08A
:1023E0002F3FFFEF3F0709F44EC0EA81FB81EE0D5E
:1023F000FF1DE40FF51FE491480186189708860E2B
:10240000971E2E2E312CF1010A2E02C0EE0FFF1F57
:102410000A94E2F7FD83EC83F4012080EC81FD81D6
:10242000E229FD83EC833C80F40130821097C9F0EF
:1024300027303105B1F0EA81FB81EE0DFF1DE40F7D
:10244000F51FE491F0E01F010E8002C0359427943F
:102450000A94E2F7F8019080F101E9294F01F801AF
:102460008082EA81FB813196FB83EA830F5F1F4FF5
:10247000FFEFCF1ADF0AA7CF2F5F3F4FEA0CFB1CFD
:1024800060587F4F89CF1097B1F6EBCF27960FB6E4
:10249000F894DEBF0FBECDBFDF91CF911F910F919A
:1024A000FF90EF90DF90CF90BF90AF909F908F9074
:1024B0007F906F905F904F903F902F90089520E015
:1024C00087E293E0B22FB111BFEFFC010024B1937A
:1024D000B193B193B1930394D1F70895EF92FF9222
:1024E0000F931F93CF93DF93EC01C40FD11DDB013A
:1024F000A20FB11D01E010E08C179D0784F59B0130
:1025000077FF24C020E030E021C0241735072CF5E8
:1025100080389105C8F4422F469546954695FC01B2
:1025200050E8459FE00DF11D1124ED5EFC4FA9011F
:1025300047705527780102C0EE0CFF1C4A95E2F760
:10254000A7015489452B448B2F5F3F4FAD01A13428
:10255000B105DCF240E450E0D8CF0196CDCFDF9159
:10256000CF911F910F91FF90EF900895FC01809102
:102570000503811103C08FEF9FEF08959FB7F89473
:1025800082E08093E9002091F20030E012161306F9
:1025900014F421E030E02115310559F0289884E643
:1025A000809304038091F10080838091F20088235E
:1025B00019F09FBFC90108958BE68093E800F9CF19
:1025C0002FB7F89483E08093E9009091E800892F79
:1025D000807295FF04C09091F20080E4891B2FBFA8
:1025E0000895362F90E0FC01EC5DF44F4491FC011E
:1025F000ED5BF44F2491FC01E059F44F8491882362
:1026000009F451C04423E1F150E0FA013197EF3071
:10261000F105B0F5EA5AFF4F0C94F91B9091800038
:102620009F7707C0909180009F7D03C090918000AC
:10263000977F9093800024C094B59F7702C094B593
:102640009F7D94BD1DC0909190009F7707C0909191
:1026500090009F7D03C090919000977F9093900091
:102660000FC09091C0009F7703C09091C0009F7DE4
:102670009093C00005C09091C200977F9093C200D4
:10268000E82FF0E0EE0FFF1FEE59F44FA591B49143
:102690008FB7F894EC91311103C020952E2301C01F
:1026A0002E2B2C938FBF0895CF93DF9390E0FC01E6
:1026B000ED5BF44F2491FC01E059F44F84918823A1
:1026C00061F190E0880F991FFC01EA5EF44FC5911B
:1026D000D491FC01EE59F44FA591B491611109C058
:1026E0009FB7F8948881209582238883EC912E23CC
:1026F0000BC0623061F49FB7F8943881822F8095C7
:1027000083238883EC912E2B2C939FBF06C08FB719
:10271000F894E8812E2B28838FBFDF91CF91089505
:10272000CF93DF9390910C03923009F46EC0C82FC1
:10273000292F30E0F901E157F44FD491F901E35D1D
:10274000F84F80839F5F90930C0361E00E945413C5
:10275000D13019F0D33039F158C010928000109266
:102760008100809181008860809381008091810048
:102770008160809381008C2F90E0FC01E059F44F40
:10278000E491F0E0EE0FFF1FEE59F44F25913491E4
:1027900030930B0320930A03FC01ED5BF44F84910B
:1027A0008093090332C010929000109291008091A2
:1027B0009100886080939100809191008160809366
:1027C00091008C2F90E0FC01E059F44FE491F0E08F
:1027D000EE0FFF1FEE59F44F25913491309308030B
:1027E00020930703FC01ED5BF44F84918093060373
:1027F00080910C03882321F06CE380E00E94E70CB9
:1028000080E0DF91CF910C94D20DDF91CF910895AC
:102810001F93CF93DF93182FEB0161E00E945413B5
:10282000209711F460E004C0CF3FD10539F461E096
:10283000812FDF91CF911F910C94F112E12FF0E0E5
:10284000EC5DF44FE4914E2F50E0FA013197EF30F8
:10285000F10508F06CC0EB59FF4F0C94F91B84B5DF
:10286000806884BDC7BD68C084B5806284BDC8BDB2
:1028700063C080918000806880938000D09389003D
:10288000C093880059C0809180008062809380004E
:10289000D0938B00C0938A004FC0809180008860E5
:1028A00080938000D0938D00C0938C0045C08091B0
:1028B0009000806880939000D0939900C093980016
:1028C0003BC080919000806280939000D0939B00E9
:1028D000C0939A0031C080919000886080939000EE
:1028E000D0939D00C0939C0027C08091C000806859
:1028F0008093C0008091C0008F7B8093C000C09304
:10290000CF001AC08091C00080628093C000C09345
:10291000D00012C08091C20088608093C200809174
:10292000C2008B7F8093C200C093D20005C0C03824
:10293000D1050CF07CCF76CFDF91CF911F91089518
:102940008FB12CB193B130E02095309520743327AE
:10295000A90123E0559547952A95E1F7292F30E005
:1029600020953095207133273595279535952795F6
:10297000242B8095807F822B0895FC0121912EBD10
:102980009C5F21910DB407FEFDCF2EBDE817F9071E
:10299000C1F70DB407FEFDCF0895FB01EE0FFF1F39
:1029A000E80FF91F80819181892B29F481E090E063
:1029B000918380830895118210820895CF93DF93CD
:1029C000CDB7DEB72A970FB6F894DEBF0FBECDBFE6
:1029D000789484B5826084BD84B5816084BD85B5FA
:1029E000826085BD85B5816085BD80916E00816006
:1029F00080936E00109281008091810082608093AC
:102A000081008091810081608093810080918000AD
:102A1000816080938000809191008260809391001A
:102A200080919100816080939100809190008160FD
:102A3000809390008091C10084608093C100809158
:102A4000C10082608093C1008091C1008160809349
:102A5000C1008091C30081608093C3008091C00059
:102A600082608093C0008091C20081608093C20028
:102A700080917A00846080937A0080917A008260ED
:102A800080937A0080917A00816080937A008091AF
:102A90007A00806880937A00109205031092E60213
:102AA0001092E7028091D70081608093D70080EA7E
:102AB0008093D80089B5806189BD89B5826089BD60
:102AC00009B400FEFDCF61E070E080E090E00E947C
:102AD0005A098091D8008F7C80618093D8008091C2
:102AE000E000807F8093E0008091E1008E7E809303
:102AF000E1008DE08093E200559A209AEEEFFFE727
:102B0000859194918B3F9C4D19F481E08093E5026F
:102B10001092D7021092D6028091260334E6839F4A
:102B2000C001112460911C0370E00E94E51B672B1B
:102B300009F063C11FB7F8948091BF01811127C0CC
:102B4000E1E8FBE08491E4E5FBE09491E82FF0E01C
:102B5000EE0FFF1FEA5EF44FA591B491EC91E923CB
:102B600021F461E081E10E94F11261E081E10E94C3
:102B700054138CB580618CBD8CB580648CBD61E0D4
:102B80008FE00E94541361E080E10E945413809111
:102B9000BF018F5F8093BF011FBF09EB11E0F801F8
:102BA00084910E5F1F4F31966491882319F00E9423
:102BB0005413F5CF61E086E00E94F11261E070E00D
:102BC00080E090E00E945A0960E086E00E94F112E5
:102BD0006AE070E080E090E00E945A0961E086E0DF
:102BE0000E94F112ECE7FBE0E491F0E0EE0FFF1F32
:102BF000EE59F44F859194919093C5018093C4014F
:102C0000EFE4FBE0E491E093C301E4E7FBE0E4914F
:102C1000F0E0EE0FFF1FEE59F44F859194919093E1
:102C2000C2018093C101E7E4FBE0E491E093C001BD
:102C30008CB58C7F8CBD8DB581608DBDE091C4015C
:102C4000F091C50190818091C301982B9083A09150
:102C5000C101B091C2012C919091C0019095922335
:102C60009C939081809589238083ECEAF1E021E0B8
:102C7000E93BF20749F084918EBD00000DB407FED8
:102C8000FDCF8EB53196F3CFE091C101F091C20135
:102C900090818091C001892B8083E091C401F091E3
:102CA000C50190818091C3018095892380838091A3
:102CB00064008160809364008091640082608093EE
:102CC0006400809164008068809364008091640057
:102CD00080648093640080916500816080936500CA
:102CE0000E94A01487FF1AC080E094E01EBC000080
:102CF0000DB407FEFDCF2EB50197C1F760E070E07F
:102D00008AE00E94081460E070E08BE00E940814E2
:102D100060E070E089E00E940814FFCF1EEEC12E33
:102D2000DD24DA9418E1EE24EA94F12C812F8C1939
:102D3000B701681B71098AE00E9408146FEF70E008
:102D40008BE00E9408146FEF70E089E00E94081485
:102D50000E945F1200E128E54CEF50E0B60184E1EB
:102D600090E00E94641187E293E00E94BD146BE141
:102D700070E080E090E00E945A0930EFC31206C074
:102D80006AEF70E080E090E00E945A098FEFC81A65
:102D9000D80A99E1C916D10449F66EEE72E080E0D6
:102DA00090E00E945A096FEF70E08AE00E940814D8
:102DB0006FEF70E08BE00E9408146FEF70E089E025
:102DC0000E94081485E00E9490138DE00E949013E9
:102DD0001092E80282E090E00E94541D882369F07E
:102DE00080916400877F8093640080916500877F75
:102DF0008093650081E08093BE012FB7F8948091A5
:102E0000D9029091DA02A091DB02B091DC022FBFCF
:102E100020912503222391F020911D03E82FE21B2E
:102E2000E093260320911A0330911B032F5F3F4F3D
:102E300030931B0320931A03109225034091210322
:102E40005091220360912303709124038417950706
:102E5000A607B7077CF4481B423008F407C383B7C2
:102E6000817F83BF83B7816083BF889583B78E7F5F
:102E700083BFFCC220911C03AC01BD01420F511D58
:102E8000611D711D4093210350932203609323031E
:102E90007093240380931D0390931E03A0931F033C
:102EA000B093200381E0809325038091D602909116
:102EB000D70201968036FAEE9F0729F09093D70249
:102EC0008093D60204C01092D7021092D6020E94BC
:102ED0005F128091D4029091D502892B41F48091A8
:102EE000D6029091D7029093D5028093D40280911C
:102EF000800190918101892BF9F08091D602909107
:102F0000D7022091D4023091D502821B930B8837CF
:102F1000910558F408E324E645E152E068E070E0EA
:102F200080E090E00E9464119DC210928101109295
:102F300080010E94EA0796C26AEA72E08AEB92E098
:102F40000E9419068C016AE872E08AE992E00E9408
:102F50001906080F191F6AE672E08AE792E00E94DC
:102F60001906080F191F6AE472E08AE592E00E94D0
:102F70001906080F191F6AE272E08AE392E00E94C4
:102F80001906080F191F6AE072E08AE192E00E94B8
:102F90001906080F191F6AEE71E08AEF91E00E948E
:102FA0001906080F191F6AEC71E08AED91E00E9482
:102FB0001906800F911F089771F41092D302109296
:102FC000D20205E02DE048E052E065E070E080E0EC
:102FD00090E00E9464118091D0029091D102892BDF
:102FE000A9F480911A0390911B0363E070E00E94A2
:102FF000D11B892B59F40E94A01486FF4BC28091EB
:10300000CE029091CF02892B09F438C28091D2026E
:103010009091D302892B41F08091D6029091D702F2
:103020009093C9018093C801A090C801B090C901D4
:103030008091C6019091C701A81AB90AC50160E143
:103040007EE00E94E51B072E000C880B990B0E9466
:10305000371C0E94721C0E94FF1B6B017C01C50182
:103060006CE370E00E94E51B072E000C880B990BA7
:103070000E94371C0E94721C0E94FF1BCB016CE354
:1030800070E00E94E51B5C01C6016AE070E00E94EE
:10309000E51B072E000C880B990B0E94371C0E9421
:1030A000721C0E94FF1B2B013C01B5E0B69FA001E2
:1030B000B79F500D112444535E4F05E025E060E0BA
:1030C00070E080E090E00E94641116EF920112031C
:1030D000C001139F900D1124C80ED91E35E03C9DF0
:1030E000A0013D9D500D112444535E4F25E060E04A
:1030F00070E084E090E00E94641125E04EEF51E022
:1031000060E070E088E090E00E946411C5016AE030
:1031100070E00E94E51B072E000C880B990B0E94A3
:10312000371C0E94721C0E94FF1B6B017C0185E012
:103130008C9DA0018D9D500D112444535E4F25E0C0
:1031400060E070E08CE090E00E9464119601120350
:10315000C001139F900D1124A80EB91E35E03A9DB1
:10316000A0013B9D500D112444535E4F25E060E0CB
:1031700070E080E190E00E94641188E7682E81E0B1
:10318000782E90E7892E91E0992E28E6A22E21E054
:10319000B22E30E6C32E31E0D32E48E5442E41E076
:1031A000542E50E5252E51E0352E88E491E09C8385
:1031B0008B83A0E4B1E0BA83A983E12CF12CF30165
:1031C000819191913F01F5E0F89FA001F99F500D89
:1031D000112444535E4F60910D0370910E036650AD
:1031E00071096E197F0905E025E080910F03909128
:1031F00010030E946411D4018D919D914D01B5E0A1
:10320000B89FA001B99F500D112444535E4F6091A7
:103210000D0370910E03665071096E197F0980913C
:103220000F039091100325E005960E946411F501AB
:10323000819191915F01F5E0F89FA001F99F500DF8
:10324000112444535E4F60910D0370910E0366503C
:1032500071096E197F0980910F039091100325E089
:103260000A960E946411D6018D919D916D01B5E081
:10327000B89FA001B99F500D112444535E4F609137
:103280000D0370910E03665071096E197F098091CC
:103290000F039091100325E00F960E946411F20134
:1032A000819191912F01F5E0F89FA001F99F500DB8
:1032B000112444535E4F60910D0370910E036650CC
:1032C00071096E197F0980910F039091100325E019
:1032D00044960E946411D1018D919D911D01B5E02C
:1032E000B89FA001B99F500D112444535E4F6091C7
:1032F0000D0370910E03665071096E197F0980915C
:103300000F039091100325E049960E946411EB8110
:10331000FC8181919191FC83EB83F5E0F89FA00102
:10332000F99F500D112444535E4F60910D0370912D
:103330000E03665071096E197F0980910F039091F9
:10334000100325E04E960E946411A981BA818D91E7
:103350009D91BA83A983B5E0B89FA001B99F500D94
:10336000112444535E4F60910D0370910E0366501B
:1033700071096E197F0980910F039091100325E068
:1033800083960E946411E5E0EE0EF11CF4E1EF1665
:10339000F10409F014CF48E351E06AEA72E080E0FA
:1033A00090E00E94EC0640E351E06AE872E081E0C0
:1033B00090E00E94EC0648E251E06AE672E082E0AA
:1033C00090E00E94EC0640E251E06AE472E083E0A3
:1033D00090E00E94EC0648E151E06AE272E084E08D
:1033E00090E00E94EC0640E151E06AE072E085E086
:1033F00090E00E94EC0648E051E06AEE71E086E061
:1034000090E00E94EC0640E051E06AEC71E087E059
:1034100090E00E94EC06E0910F03F0911003809180
:10342000110390911203482F4E0F60910D0370917C
:103430000E0320E48E0F9F1F0E946E12E0910D0379
:10344000F0910E03609111037091120380910F03AC
:10345000262F2E0F482F460F6E0F7F1F90911003BF
:103460000E946E1287E293E00E94BD1480E090E01B
:10347000892B09F4C2CC0E940000BFCC8091CC0201
:103480009091CD028630910514F4019617C087E023
:1034900090E014C00E94A01485FF15C08091CE0258
:1034A0009091CF02009709F0B1CD2091CC023091DC
:1034B000CD022230310514F0C90101979093CD025D
:1034C0008093CC021AC00E94A01484FF1DC080917A
:1034D000CE029091CF02892B09F098CD8091CA023B
:1034E0009091CB028630910514F4019602C087E0DA
:1034F00090E09093CB028093CA0281E090E0909399
:10350000CF028093CE0282CD0E94A01487FFA4C078
:103510008091CE029091CF02009709F077CD209153
:10352000CA023091CB022230310514F0C901019753
:103530009093CB028093CA0281E090E09093CF02F7
:103540008093CE020E94A01482FF60CD2AEB32E06D
:103550003E832D838AEA92E098878F83AAE9B2E0BE
:10356000BC83AB83EAE8F2E0FA83E9836AE7262EBC
:1035700062E0362E7AE6472E72E0572EEAE56E2E8E
:10358000E2E07E2EFAE48F2EF2E09F2EAAE3AA2E2E
:10359000A2E0BA2EBAE2EB2EB2E0FB2E0AE112E074
:1035A0006AE072E04AEF51E02AEE31E08AED91E004
:1035B0009A878987EAECF1E080E090E08830910515
:1035C00009F424CDAD81BE81CD90DD90BE83AD8365
:1035D000AF81B885CD92DD92B887AF83AB81BC81D6
:1035E000CD90DD90BC83AB83A981BA81CD92DD9271
:1035F000BA83A983D101CD90DD901D01D201CD9276
:10360000DD922D01D301CD90DD903D01D401CD920D
:10361000DD924D01D501CD90DD905D01D701CD92B8
:10362000DD927D01D801CD90DD908D01DB01CD9241
:10363000DD92BD01DA01CD90DD90AD01D901CD92D1
:10364000DD929D01A985BA85CD90DD90BA87A987C5
:10365000C192D1920196B2CF0E94A01483FF57C0AD
:103660008091CE029091CF02892B09F0CFCC81E0DE
:1036700090E09093CF028093CE028091D2029091FD
:10368000D302892BB9F18091CA029091CB0260914B
:10369000CC027091CD02009719F48AEA92E028C01A
:1036A0008130910519F48AE892E022C082309105B8
:1036B00019F48AE692E01CC08330910519F48AE47B
:1036C00092E016C08430910519F48AE292E010C0AD
:1036D0008530910519F48AE092E00AC086309105A0
:1036E00019F48AEE91E004C0079721F48AEC91E086
:1036F0000E94CD140E94A01482FF88CC81E090E04B
:103700009093D1028093D0020E94EA077FCC10925E
:10371000CF021092CE027ACCEFE2F7E0138212824F
:1037200088EE93E0A0E0B0E084839583A683B7831E
:103730008DE991E0918380838FEF9FEF9587848758
:10374000E3E1F3E0138212828FEA91E091838083B8
:103750008CE3868380E18187108617821686178620
:10376000108A118A128A1092280710922707109245
:103770002A071092290781E080932B0788E290E0C6
:10378000909312038093110387E590E090931003C8
:1037900080930F0387E190E090930E0380930D03D5
:1037A0000895AA1BBB1B51E107C0AA1FBB1FA61788
:1037B000B70710F0A61BB70B881F991F5A95A9F7DA
:1037C00080959095BC01CD01089597FB072E16F4C6
:1037D000009407D077FD09D00E94D11B07FC05D0CB
:1037E0003EF4909581959F4F0895709561957F4F18
:1037F0000895EE0FFF1F0590F491E02D09940E94AB
:10380000061C6894B1110C94ED1C08950E94BA1C1A
:1038100088F09F5798F0B92F9927B751B0F0E1F091
:10382000660F771F881F991F1AF0BA95C9F714C041
:10383000B13091F00E94EC1CB1E008950C94EC1CA6
:10384000672F782F8827B85F39F0B93FCCF386957A
:1038500077956795B395D9F73EF4909580957095D7
:1038600061957F4F8F4F9F4F0895E89409C097FB54
:103870003EF490958095709561957F4F8F4F9F4F47
:103880009923A9F0F92F96E9BB279395F69587958B
:1038900077956795B795F111F8CFFAF4BB0F11F44E
:1038A00060FF1BC06F5F7F4F8F4F9F4F16C08823F5
:1038B00011F096E911C0772321F09EE8872F762F2B
:1038C00005C0662371F096E8862F70E060E02AF06C
:1038D0009A95660F771F881FDAF7880F9695879558
:1038E00097F908950E94D41C90F09F3748F49111E5
:1038F00016F00C94ED1C60E070E080E89FEB0895FA
:1039000026F41B16611D711D811D0C94891C0C94DD
:10391000A41C882371F4772321F09850872B762FED
:1039200007C0662311F499270DC09051862B70E0D3
:1039300060E02AF09A95660F771F881FDAF7880FE4
:103940009695879597F908959F3F31F0915020F40F
:10395000879577956795B795880F911D969587956B
:1039600097F9089557FD9058440F551F59F05F3F40
:1039700071F04795880F97FB991F61F09F3F79F091
:1039800087950895121613061406551FF2CF469513
:10399000F1DF08C0161617061806991FF1CF869595
:1039A00071056105089408950E94BA1CA0F0BEE755
:1039B000B91788F4BB279F3860F41616B11D672F1E
:1039C000782F8827985FF7CF869577956795B11DF3
:1039D00093959639C8F30895E894BB27662777270F
:1039E000CB0197F9089581E090E0F8940C94BF1D05
:1039F0008F929F92AF92BF92CF92DF92EF92FF92FF
:103A0000CF93DF93EC01688179818A819B81611575
:103A100071058105910521F464E279ED8BE597E06C
:103A20002DE133EF41E050E00E945C1D49015A0155
:103A30009B01AC01A7EAB1E40E947B1D6B017C01F4
:103A4000ACEEB4EFA50194010E94891DDC01CB010D
:103A50008C0D9D1DAE1DBF1DB7FF03C00197A109B1
:103A6000B04888839983AA83BB83BC01CD019F772B
:103A7000DF91CF91FF90EF90DF90CF90BF90AF900C
:103A80009F908F9008950E94F81C08958EE891E011
:103A90000E94F81C089560938E0170938F018093AB
:103AA0009001909391010895F999FECF92BD81BD47
:103AB000F89A992780B50895052E97FB1EF4009477
:103AC0000E94731D57FD07D00E948E1D07FC03D076
:103AD0004EF40C94731D50954095309521953F4FB1
:103AE0004F4F5F4F089590958095709561957F4FEA
:103AF0008F4F9F4F08950E94B01DA59F900DB49FBA
:103B0000900DA49F800D911D11240895B7FF0C9472
:103B10007B1D0E947B1D821B930B0895A1E21A2E30
:103B2000AA1BBB1BFD010DC0AA1FBB1FEE1FFF1F61
:103B3000A217B307E407F50720F0A21BB30BE40BB1
:103B4000F50B661F771F881F991F1A9469F76095F8
:103B50007095809590959B01AC01BD01CF010895B2
:103B6000A29FB001B39FC001A39F700D811D1124BE
:103B7000911DB29F700D811D1124911D0895F8941F
:023B8000FFCF75
:103B82000B000B000B000B000B000B000B000B00DB
:103B92000B000B000B000B000B000B000B000B00CB
:103BA2000B000B000B000B000B000B000B000B00BB
:103BB2000B000B000B000B000B000B000B000B00AB
:103BC2000B000B000B000B000B000B000B000B009B
:103BD2000B000B000B000B000B000B000B000B008B
:103BE2000B000B000B000B000B000B000B000B007B
:103BF2000B000B000B000B000B000B000B000B006B
:103C02000100FFFFFFFF00E10000000000000100D3
:103C1200000000C1808100000000000000450B860A
:103C22000B0B0C5B0B660B330C0F0C00000000DE61
:0E3C320009060B810B800B4000050008000006
:00000001FF
