:100000000C94B2050C94DA050C94DA050C94DA051C
:100010000C94DA050C94DA050C94DA050C94DA05E4
:100020000C94DA050C94DA050C94140C0C94860CE0
:100030000C94DA050C94DA050C94DA050C94DA05C4
:100040000C94DA050C94AF0A0C94DA050C94DA05DA
:100050000C94DA050C94DA050C94DA050C94D707A5
:100060000C94DA050C94DA050C94DA050C94DA0594
:100070000C94DA050C94DA050C94DA050C94DA0584
:100080000C944D0B0C94DA050C94DA050C94DA05FB
:100090000C94DA050C94DA050C94DA050C94DA0564
:1000A0000C94DA050C94DA050C94DA05F710FA10C2
:1000B000E910ED10F1101B111B111B11FE100211A4
:1000C00006110C1110111B111611921197119C1190
:1000D000A611B011FA11FA11FA11BA11C411CE1108
:1000E000D811E511FA11ED11F0F89C8E8783878EF7
:1000F0009CF8F00000FEFF0303030303070EFCF867
:100100000000FEFF0303030303070EFCF80000FFDB
:10011000FF00000000000000FFFF0000FEFF8383DF
:10012000838383C7EE7C380000F8FC0E07030303CB
:10013000070EFCF800003F7FE0C08080C0E07F3FFA
:10014000FFFF01010101010101FFFF0000FFFF0CA2
:100150000C0C0C1C3E77E3C100007FFFC0C0C0C088
:10016000C0E0703F1F00001F3F70E0C0C0C0E070E3
:100170003F1F00007FFFC1C1C1C1C1E3773E1C002A
:10018000001F3F70E0C0C0C0E0703F1F00000000D3
:100190000001FFFF01000000D5F08D14A1C881CF40
:1001A000D9F1AF200014021302120215020702084F
:1001B0000204010C0106010038303C2E272E3C3091
:1001C000382810BA6A3F6ABA10287038EA3C783C7E
:1001D000EA387070386ABC38BC6A3870182A25EC66
:1001E000386D66A818000000000000000000000044
:1001F00000000000000000000000000000000000FF
:1002000000000000000000000000000000000000EE
:10021000000000000000FFFFFFFFFFFFFFFF0000E6
:1002200000000000C0F0F8FCFEFEFFFF7F7F3F3FB4
:100230007F7FFFFFFEFEFC78300000000000000022
:1002400000000000000000000000000000000000AE
:10025000000000000000000000000000000000009E
:10026000000000000000000000000000000000008E
:1002700000000000000000000000FFFFFFFFFFFF84
:10028000FFFF0000000000003FFFFFFFFFFFFFF83F
:10029000F0E0E0C0C080800301000000000000002A
:1002A000000000000000000000000000000000004E
:1002B000000000000000000000000000000000003E
:1002C000000000000000000000000000000000002E
:1002D0000000000000000000000000000000FFFF20
:1002E000FFFFFFFFFFFF0000000000000000010310
:1002F00007070F0F1F1F3F3F7F7FFFFFFFFEFEFC23
:10030000F8F0C00000000000000000000000000045
:1003100000020202020202020201010101010101C6
:1003200001010101010101010101010101010101BD
:10033000010101010171F1F9F9FDFDF1E1E1E1E1F5
:10034000E1E1FFFFFFFFFFFF7F0F0202020232F237
:10035000FAFAFCFCFCF4E4E4C4C8C8C8C8D0F0F164
:10036000FFFFFFFFFFFF7FC0C08080000000000094
:10037000000000000000000000000000000000007D
:10038000000000000000000000000000000000006D
:100390000000000000000000000000010307070744
:1003A0000F0F0F0F0F0F0F070707030100000000CB
:1003B0000000000001030307070F0F0F0F1F1F1F8F
:1003C0001F1F0F0F0F0F07030301000000010103A0
:1003D000079EFEFCF8E000000000000000000000A6
:1003E000000000000000000000000000000000000D
:1003F0000000000000000000000000000000CE002F
:100400000640C08A4682C680CEC8C640C6CEC6C098
:10041000CE0C0C0E0A020C02000A040E0E02000E94
:100420000E000000000000000000808080C0E0E0BE
:10043000F030783C1E1F0F07030000000000000092
:1004400000000000000000000000000000000000AC
:10045000000000000000000000000000000000009C
:100460000000010000000100010100010100000185
:1004700000018181818080C0C0C0C0E0E060607008
:100480007030303818181C1C0C0E0E0607070303BA
:100490000101010000000000000000000000000059
:1004A00000080B0002020201000904000001020220
:1004B00000000524001001052401010104240206A6
:1004C000052406000107058103100040090401000E
:1004D000020A00000007050202400000070583022F
:1004E0004000000403090412010002EF0201404130
:1004F00023368000010102030141726475696E6F49
:10050000204C4C430041726475696E6F204C656FDE
:100510006E6172646F0000000000003E5B4F5B3E46
:100520003E6B4F6B3E1C3E7C3E1C183C7E3C181CB8
:10053000577D571C1C5E7F5E1C00183C1800FFE7AF
:10054000C3E7FF0018241800FFE7DBE7FF30483A55
:10055000060E2629792926407F050507407F0525B7
:100560003F5A3CE73C5A7F3E1C1C08081C1C3E7F3F
:1005700014227F22145F5F005F5F06097F017F0006
:100580006689956A606060606094A2FFA294080426
:100590007E040810207E201008082A1C08081C2A47
:1005A00008081E101010100C1E0C1E0C30383E389F
:1005B00030060E3E0E06000000000000005F000046
:1005C0000007000700147F147F14242A7F2A1223B7
:1005D0001308646236495620500008070300001CC7
:1005E0002241000041221C002A1C7F1C2A08083ED0
:1005F00008080080703000080808080800006060E3
:100600000020100804023E5149453E00427F400050
:1006100072494949462141494D331814127F102728
:10062000454545393C4A4949314121110907364977
:10063000494936464949291E00001400000040344B
:100640000000000814224114141414140041221450
:100650000802015909063E415D594E7C1211127C77
:100660007F494949363E414141227F4141413E7FD8
:10067000494949417F090909013E414151737F08B8
:1006800008087F00417F41002040413F017F08145E
:1006900022417F404040407F021C027F7F040810BF
:1006A0007F3E4141413E7F090909063E4151215E9D
:1006B0007F09192946264949493203017F01033F31
:1006C0004040403F1F2040201F3F4038403F6314C0
:1006D00008146303047804036159494D43007F41C2
:1006E00041410204081020004141417F04020102FF
:1006F0000440404040400003070800205454784024
:100700007F284444383844444428384444287F38B7
:100710005454541800087E090218A4A49C787F0839
:1007200004047800447D40002040403D007F1028B4
:10073000440000417F40007C047804787C08040475
:10074000783844444438FC1824241818242418FC0D
:100750007C08040408485454542404043F44243CB2
:100760004040207C1C2040201C3C4030403C442821
:100770001028444C9090907C4464544C44000836BB
:100780004100000077000000413608000201020429
:10079000023C2623263C1EA1A161123A4040207A49
:1007A0003854545559215555794121545478412193
:1007B0005554784020545579400C1E5272123955C8
:1007C00055555939545454593955545458000045C5
:1007D0007C410002457D420001457C40F0292429EE
:1007E000F0F0282528F07C545545002054547C54C2
:1007F0007C0A097F493249494932324848483232F5
:100800004A4848303A4141217A3A42402078009D96
:10081000A0A07D39444444393D4040403D3C24FF44
:100820002424487E4943662B2FFC2F2BFF0929F6F1
:1008300020C0887E090320545479410000447D4142
:100840003048484A32384040227A007A0A0A727D9B
:100850000D19317D2629292F2826292929263048B6
:100860004D4020380808080808080808382F10C824
:10087000ACBA2F102834FA00007B000008142A14A8
:100880002222142A14089500220095AA005500AAD5
:10089000AA55AA55AA000000FF00101010FF00146E
:1008A0001414FF001010FF00FF1010F010F01414CB
:1008B00014FC001414F700FF0000FF00FF1414F4F0
:1008C00004FC141417101F10101F101F1414141FF1
:1008D00000101010F0000000001F101010101F106A
:1008E000101010F010000000FF1010101010101069
:1008F0001010FF10000000FF140000FF00FF0000B8
:100900001F10170000FC04F414141710171414F42B
:1009100004F40000FF00F714141414141414F70066
:10092000F7141414171410101F101F141414F414B7
:100930001010F010F000001F101F0000001F140026
:100940000000FC140000F010F01010FF10FF141451
:1009500014FF141010101F00000000F010FFFFFF24
:10096000FFFFF0F0F0F0F0FFFFFF0000000000FFDD
:10097000FF0F0F0F0F0F38444438447C2A2A3E14CF
:100980007E02020606027E027E02635549416338FA
:1009900044443C04407E201E2006027E020299A5AB
:1009A000E7A5991C2A492A1C4C7201724C304A4D09
:1009B0004D303048784830BC625A463D3E4949493E
:1009C000007E0101017E2A2A2A2A2A44445F4444E7
:1009D00040514A444040444A51400000FF0103E076
:1009E00080FF000008086B6B083612362436060FAD
:1009F000090F06000018180000001010003040FF1A
:100A00000101001F01011E00191D1712003C3C3C92
:100A10003C000000000006011501260137014A01D3
:100A20005D01720188019F01B801D201EE010B0244
:100A30002A024B026E029302BA02E40210033F0341
:100A40007003A403DC03170455049704DD04270591
:100A50007505C80520067D06E0064907B8072D087C
:100A6000A9082D09B9094D0AEA0A900B400CFA0CA5
:100A7000C00D910E6F0F5A1053115B1272139A141E
:100A8000D41520178018F519801B231DDE1EB420F5
:100A9000A622B524E4263429A72B402E0031EA33C0
:100AA0000037453ABC3D68414C456B49C84D6852DA
:100AB0004F57805C006210111213151617181A1C7C
:100AC0001D1F21232527292C2E3134373A3E41453D
:100AD000494E52575C62686E757B838B939CA5AFC1
:100AE000B9C4D0DCE9F700000000240027002A0088
:100AF0002D0030000000000200090F000003040177
:100B0000000C0000000000000000000000000000D9
:100B10000000000408020110408040102040804086
:100B20008008020401804020100201108010204043
:100B3000402000000000250028002B002E0031007E
:100B40000404040404030405020202020403020272
:100B50000202060606060606040402020204040354
:100B600001004C1811241FBECFEFDAE0DEBFCDBF6D
:100B700026E0AEE7B1E001C01D92AD39B207E1F762
:100B800011E0A0E0B1E0E8E9FCE302C005900D92BD
:100B9000AE37B107D9F715E0C2EBD5E004C0219715
:100BA000FE010E94A718C13BD107C9F70E941E137E
:100BB0000C944A1E0C940000CF92DF92EF92FF92A9
:100BC0000F931F93CF93DF936C017A018B01C0E0E9
:100BD000D0E0CE15DF0589F0D8016D918D01D601E9
:100BE000ED91FC910190F081E02DC6010995892BD2
:100BF00011F47E0102C02196ECCFC701DF91CF91A5
:100C00001F910F91FF90EF90DF90CF90089508957E
:100C100080E090E008950E94151BEF92FF920F93E1
:100C20001F93CF93DF931092FB011092FA018091F2
:100C3000440224E6829FC001112460913A0270E0D0
:100C40000E949318672B09F05CC1CFB7F89480918C
:100C50007F01811127C0E1E5FBE08491E4E2FBE044
:100C60009491E82FF0E0EE0FFF1FEA51F54FA591A8
:100C7000B491EC91E92321F461E081E10E94CC1070
:100C800061E081E10E942F118CB580618CBD8CB533
:100C900080648CBD61E08FE00E942F1161E080E1F3
:100CA0000E942F1180917F018F5F80937F01CFBFC2
:100CB000C5EAD1E0FE0184912296319664918823A1
:100CC00019F00E942F11F6CF61E086E00E94CC104F
:100CD00061E070E080E090E00E94B60E60E086E0A7
:100CE0000E94CC106AE070E080E090E00E94B60EB6
:100CF00061E086E00E94CC10ECE4FBE0E491F0E0DF
:100D0000EE0FFF1FEE5CF44F859194919093850157
:100D100080938401EFE1FBE0E491E0938301E4E45C
:100D2000FBE0E491F0E0EE0FFF1FEE5CF44F8591E5
:100D300094919093820180938101E7E1FBE0E4913B
:100D4000E09380018CB58C7F8CBD8DB581608DBDAD
:100D5000E0918401F0918501908180918301982B2D
:100D60009083A0918101B09182012C91909180019A
:100D7000909592239C939081809589238083E8E9C4
:100D8000F1E021E0E53AF20749F084918EBD0000E0
:100D90000DB407FEFDCF8EB53196F3CFE091810102
:100DA000F0918201908180918001892B8083E09174
:100DB0008401F09185019081809183018095892340
:100DC00080838091640081608093640080916400DE
:100DD00082608093640080916400806880936400E6
:100DE00080916400806480936400809165008160DC
:100DF000809365000E94031287FF1AC080E094E090
:100E00001EBC00000DB407FEFDCF2EB50197C1F743
:100E100060E070E08AE00E946B1160E070E08BE0BF
:100E20000E946B1160E070E089E00E946B11FFCFBF
:100E3000CEEEDFEF18E1EE24EA94F12C812F8C1B2B
:100E4000B701681B71098AE00E946B116FEF70E0B7
:100E50008BE00E946B116FEF70E089E00E946B11D4
:100E60000E94821000E128E548EE50E0BE0184E1D6
:100E700090E00E94870F85E492E00E9420126BE1CF
:100E800070E080E090E00E94B60EC03F31F46AEF5F
:100E900070E080E090E00E94B60E2196C931D10545
:100EA00069F66EEE72E080E090E00E94B60E6FEFA1
:100EB00070E08AE00E946B116FEF70E08BE00E949F
:100EC0006B116FEF70E089E00E946B1185E00E946A
:100ED000A6128DE00E94A6121092080282E090E015
:100EE0000E94BB1D882369F080916400877F8093F6
:100EF000640080916500877F8093650081E0809326
:100F00007E0180E490E09093F1018093F0011092D3
:100F1000EF011092EE011092F5011092F401ECEA4B
:100F2000F1E081E090E08193919321E0EC3EF207C3
:100F3000D1F780E290E09093F3018093F201109258
:100F4000ED011092EC01109289011092880110922B
:100F5000F7011092F601DF91CF911F910F91FF9051
:100F6000EF9008953FB7F8948091010290910202AA
:100F7000A0910302B091040226B5A89B05C02F3FA3
:100F800019F00196A11DB11D3FBFBA2FA92F982FAF
:100F90008827820F911DA11DB11DBC01CD0142E02A
:100FA000660F771F881F991F4A95D1F708951F92E2
:100FB0000F920FB60F9211242F933F938F939F930D
:100FC000AF93BF938091FD019091FE01A091FF012D
:100FD000B09100023091FC0123E0230F2D3720F463
:100FE0000196A11DB11D05C026E8230F0296A11D83
:100FF000B11D2093FC018093FD019093FE01A0930D
:10100000FF01B09300028091010290910202A09131
:101010000302B09104020196A11DB11D809301024B
:1010200090930202A0930302B0930402BF91AF9188
:101030009F918F913F912F910F900FBE0F901F9016
:1010400018952F923F924F925F926F927F928F925C
:101050009F92AF92BF92CF92DF92EF92FF920F9347
:101060001F93CF93DF9300D000D000D0CDB7DEB771
:101070006A3091F4FC01E85EFB4F40813297208199
:10108000318158E0459F200D311D1124318320838B
:10109000329711821082E4C06D3009F4E1C0FC0186
:1010A000E85EFB4FD0803297608071801C017CEE3F
:1010B000271A7BEF370AD1012D913C910D2D10E0BD
:1010C000203831057CF0B6E0DB9E200D311D112467
:1010D000F10131832083FC01E75EFB4F4081411128
:1010E00094C0BEC0F0E46F1671046CF7A90175E0FE
:1010F000D79E400D511D11241416150624F7A80182
:1011000073E0440F551F7A95E1F7460D571D1416ED
:101110001506CCF6E5E06E9FD0011124BA83A983B1
:10112000490160E070E044244394512C653071051E
:1011300041F0E981FA81E60FF71FEA5EFA4FE49188
:1011400001C0E0E05301F8E04E2F4170C42E9C82B4
:101150008B824B8148194D1508F048C0A501F42E2B
:10116000B42FBA19BD15D8F5AB81BC81A038B10533
:1011700098F54034510580F5AF2DA695A695A69516
:10118000EA2EF12CDA01A770BB27BE83AD83D7010D
:10119000B695BA2FAA27B795A795EB80FC80AE0D20
:1011A000BF1DA80FB91F72010D8002C0EE0CFF1CFD
:1011B0000A94E2F7FE82ED82CC2031F05496FC9046
:1011C0005497ED80EF2806C0ED80E0945496FC9093
:1011D0005497EF205496EC924F5F5F4FC0CF4B81F6
:1011E0005C814F5F5F4F5C834B83B3CFE695F150DB
:1011F000A00EB11EF111A8CF6F5F7F4F800E911E20
:101200006630710509F092CF5ECF6AEF6003A001EE
:10121000619F500D112440585F4F4217530704F54A
:10122000DC01ED91FC910190F081E02D6AE02696C1
:101230000FB6F894DEBF0FBECDBFDF91CF911F91E7
:101240000F91FF90EF90DF90CF90BF90AF909F9065
:101250008F907F906F905F904F903F902F90099468
:1012600026960FB6F894DEBF0FBECDBFDF91CF91AB
:101270001F910F91FF90EF90DF90CF90BF90AF90B4
:101280009F908F907F906F905F904F903F902F90A6
:1012900008958091120281110DC082E080930E02A8
:1012A00084E080930F02109211021092100281E0EC
:1012B000809312028EE092E00895CF93DF931F9205
:1012C000CDB7DEB76983DC01ED91FC910280F3813B
:1012D000E02D41E050E0BE016F5F7F4F09950F9018
:1012E000DF91CF91089583E08093E9008091F2002F
:1012F000882319F08AE38093E8000895FC0184852F
:10130000958597FD0BC09FB7F89482E08093E90024
:101310008091F2009FBF90E0019608959FB7F894E6
:1013200082E08093E9008091F2009FBF90E00895F1
:1013300040910B0250910C022091090230910A0257
:1013400042175307B4F49091E8009570E1F390913F
:10135000E80092FD19C08093F10080910B029091FA
:101360000C0201968F739927892B19F48EEF8093C5
:10137000E80080910B0290910C02019690930C0270
:1013800080930B0281E0089580E00895CF92DF9270
:10139000EF92FF920F931F93CF93DF931F92CDB7DE
:1013A000DEB7182F062FE42E862F880F8E5F9983C5
:1013B0000E94980983E00E949809F12EC12E99811C
:1013C000D92E8C2D8F19801798F4F601E7FE02C0F4
:1013D000849101C080810E949809182F80E00E94AA
:1013E00098098123FFEFCF1ADF0A8111EACF01C0EC
:1013F00081E00F90DF91CF911F910F91FF90EF90BF
:10140000DF90CF900895DF92EF92FF920F931F939A
:10141000CF93DF93D82E8A017B01E40EF51EEB01FA
:10142000CE15DF0571F0D7FE03C0FE01849101C027
:1014300088810E94980921968111F2CF8FEF9FEF4A
:1014400001C0C801DF91CF911F910F91FF90EF90E4
:10145000DF9008950F931F93CF93DF931F92CDB723
:10146000DEB782E0898342E450E061EA74E080E81C
:101470000E94030A0E944909DC0112960D911C91F9
:1014800013970115110569F0D801ED91FC910280C7
:10149000F381E02DBE016F5F7F4FC801099597FF73
:1014A00007C089810F90DF91CF911F910F9108950F
:1014B000F80100851185E5CF615030F02091F100F1
:1014C000FC0120830196F8CF289884E680932802B7
:1014D00008950E94BB1090E008950F931F93CF933F
:1014E000DF931F92CDB7DEB78C01FC018485958513
:1014F00097FF0EC0CE0101960E949110019719F43A
:10150000298130E002C02FEF3FEFF80135872487B3
:10151000F801848595850F90DF91CF911F910F91F0
:101520000895CF93DF931F92CDB7DEB7FC0184857A
:10153000958597FD05C02FEF3FEF358724870BC0BA
:10154000CE0101960E949110019719F4898190E0D3
:1015500002C08FEF9FEF0F90DF91CF9108951F9200
:101560000F920FB60F9211242F933F938F939F9357
:10157000AF93BF93EF93FF9380911E02882309F4EA
:101580004DC080911A0290911B02A0911C02B09153
:101590001D02892B8A2B8B2B51F180912D02E0911A
:1015A0002E02F0912F0290818927808380911A0268
:1015B00090911B02A0911C02B0911D0218161906F1
:1015C0001A061B06A4F580911A0290911B02A091A5
:1015D0001C02B0911D020197A109B10980931A0262
:1015E00090931B02A0931C02B0931D0220C0109286
:1015F0001E0280916F008D7F80936F0090912D026D
:10160000E0912E02F0912F028081282F30E0892F67
:1016100090E0809590958223932308C080912D02BD
:10162000E0912E02F0912F02908189278083FF9113
:10163000EF91BF91AF919F918F913F912F910F901B
:101640000FBE0F901F901895E82FF0E0E15AF44F6D
:10165000E491E13019F0E33069F0089580916F0072
:101660008D7F80936F0090912D02E0912E02F0917A
:101670002F0208C01092250290912A02E0912B02BD
:10168000F0912C028081282F30E0892F90E0809506
:10169000909582239323808308951F920F920FB613
:1016A0000F9211242F933F934F935F936F937F93E8
:1016B0008F939F93AF93BF93EF93FF9380912502F6
:1016C000882349F080912A02E0912B02F0912C02AC
:1016D00090818927808380910802882309F493C030
:1016E0008091210290912202A0912302B0912402C4
:1016F000892B8A2B8B2B09F486C080912102909133
:101700002202A0912302B09124020197A109B109FC
:101710008093210290932202A0932302B09324028B
:10172000892B8A2B8B2B09F06EC0E0911F02F09160
:101730002002BF016F5F7F4F7093200260931F02F2
:101740004491942F907F842F8F70903819F40E94C9
:10175000240BEBCF903981F43296F0932002E09382
:101760001F02FB016491909130028917F0F667FD2A
:10177000DCCF0E943012D9CF903E29F41092200283
:1017800010921F02D2CF903F19F4109208023BC072
:1017900097FDCBCF3296F0932002E0931F02FB011E
:1017A000249130E0342BA0912602B09127020E94B0
:1017B000041E6C507E4F8F4F9F4F28EE33E040E069
:1017C00050E00E94E21D20932102309322024093B8
:1017D0002302509324028091210290912202A09131
:1017E0002302B0912402892B8A2B8B2B61F481E098
:1017F00090E0A0E0B0E08093210290932202A093B9
:101800002302B0932402FF91EF91BF91AF919F917A
:101810008F917F916F915F914F913F912F910F9099
:101820000FBE0F901F9018951F920F920FB60F9238
:1018300011248F939F938091E1009091E100937F19
:101840009093E10083FF0FC01092E90091E0909324
:10185000EB001092EC0092E39093ED0010922902BD
:1018600098E09093F00082FF20C093E09093E9000D
:101870009091F200992319F09AE39093E8009091E7
:101880000D02992339F090910D02915090930D0221
:10189000992389F190912802992339F09091280297
:1018A000915090932802992341F184FF10C08091B8
:1018B000E2008E7E81608093E2008091E1008F7E65
:1018C0008093E100809107028E7E806111C080FFCD
:1018D00016C08091E2008E7E80618093E20080914C
:1018E000E1008E7E8093E100809107028E7E816010
:1018F0008093070204C05D9ACDCF289AD6CF9F91DE
:101900008F910F900FBE0F901F9018951F920F92FE
:101910000FB60F921124CF92DF92EF92FF920F93A6
:101920001F932F933F934F935F936F937F938F9367
:101930009F93AF93BF93EF93FF93CF93DF93CDB775
:10194000DEB76C97DEBFCDBF1092E9008091E80052
:1019500083FFEDC168E0CE0145960E945C0A82EFEC
:101960008093E8008D8987FF05C09091E80090FF83
:10197000FCCF03C09EEF9093E800982F907609F07B
:10198000C6C09E892F89188D91110CC0803829F40A
:10199000809106028093F10002C01092F100109233
:1019A000F10048C1422F50E0512B913051F4811188
:1019B00041C14130510509F03DC1809106028D7F42
:1019C0000BC0933061F4811135C14130510509F0EC
:1019D00031C1809106028260809306022BC195304E
:1019E00041F48091E80080FFFCCF20682093E30061
:1019F00021C1963009F05FC0EB8CFC8C1092E9009D
:101A000010920C0210920B02123091F510920A0201
:101A1000109209020E942A0A99E0BE016F5F7F4F6F
:101A2000DB01E92F1D92EA95E9F799831A8391E08A
:101A30009E8390EA98879AEF998720910B023091C4
:101A40000C02275F3F4F3C832B838D831092E9006C
:101A500010920C0210920B02F0920A02E09209021C
:101A600049E050E080E00E94030A0E942A0AE2C096
:101A7000F0920A02E09209020E944909DC011296E2
:101A8000ED90FC901397E114F10409F4C0C0D70164
:101A9000ED91FC910480F581E02DBE016B5E7F4FDE
:101AA000C7010995009719F00CF0C4C0C7C0F70131
:101AB000E084F184E8CF973009F4C0C0983021F475
:101AC00081E08093F100B6C0993009F0B3C0837013
:101AD00009F0B4C0E5E1F1E081E021E036E3908176
:101AE000992361F08093E9002093EB00919190930A
:101AF000EC003093ED008F5F873089F78EE780939D
:101B0000EA001092EA008F898093290293C08B8D9E
:101B10009C8D1092E90010920C0210920B0290938F
:101B20000A0280930902898D811156C08E899D8990
:101B3000913A59F4813209F081C047E050E068E001
:101B400071E080E00E94030A75C0913209F076C00E
:101B5000833289F4888D90E0982F88272F89822BF3
:101B6000A0E0B0E08093040190930501A0930601EA
:101B7000B09307015FC0803269F48091E80082FF72
:101B8000FCCF67E088E091E00E945C0A8BEF8093D5
:101B9000E80006C0823209F04DC08F8980930F01A2
:101BA00080910502882319F0EEEFFAE002C0E0E030
:101BB000F8E08091080190910901A0910A01B0918B
:101BC0000B01803B9440A105B10509F07BC08091D9
:101BD0000F0180FF93C076C00E944909DC01129674
:101BE0000D911C9113970115110541F1D801ED914B
:101BF000FC910190F081E02DBE016B5E7F4FC8012A
:101C00000995811117C0F80100851185ECCF1130BD
:101C100009F44EC0133091F48F89882309F445C02C
:101C2000823081F440E860E185E095E00E94C609D9
:101C3000882321F08EEF8093E80079C081E28093C1
:101C4000EB0075C0813029F440E86BE089EF94E047
:101C5000EDCF833099F70E944909DC011296ED908F
:101C6000FC9013978E010F5F1F4F6801E114F10480
:101C700079F0D701ED91FC910680F781E02DB80154
:101C8000C7010995080F111DF701E084F184EECF1B
:101C9000D8011C92F60101900020E9F73197BF01AD
:101CA0006C197D0940E0C601C1CF63EE74E002C04B
:101CB00067EE74E06115710509F2FB01449150E093
:101CC00080E840CF0FB6F894A895809160008861B5
:101CD00080936000109260000FBEA895EE3F2AE04E
:101CE000F20739F08091FE0A9091FF0A9183808378
:101CF000A1CF1092FF0A1092FE0A9CCFEE3F8AE01D
:101D0000F80731F0808191819093FF0A8093FE0A59
:101D100087E797E7918380839BE088E10FB6F8948B
:101D2000A895809360000FBE9093600083CF6C965F
:101D30000FB6F894DEBF0FBECDBFDF91CF91FF91FC
:101D4000EF91BF91AF919F918F917F916F915F9133
:101D50004F913F912F911F910F91FF90EF90DF9046
:101D6000CF900F900FBE0F901F9018958F929F925B
:101D7000AF92BF92CF92DF92EF92FF926B017C0104
:101D80000E94B2074B015C01C114D104E104F104CB
:101D9000F1F00E94B207DC01CB0188199909AA0968
:101DA000BB09883E9340A105B10570F321E0C21A3A
:101DB000D108E108F10888EE880E83E0981EA11C86
:101DC000B11CC114D104E104F10419F7DDCFFF9077
:101DD000EF90DF90CF90BF90AF909F908F9008953D
:101DE0008F929F92AF92BF92CF92DF92EF92FF922B
:101DF0000F931F93CF93DF935C016B017A01809166
:101E00000F01882309F45BC080912902882309F41B
:101E100056C08091070280FF05C08091E00082607B
:101E20008093E000E70110E00AEF83E0882E9AE358
:101E3000992E2097D9F10E94BB1081110AC0015040
:101E400009F43DC061E070E080E090E00E94B60ED1
:101E5000F0CF282F30E0C217D3070CF48C2F4FB7E8
:101E6000F8948092E9009091E80095FF1DC0282F1A
:101E700030E0C21BD30BF601982F915020F08191D6
:101E80008093F100FACFC20ED31E112319F0909265
:101E9000E80009C08091E80085FD06C09092E80046
:101EA00011E0209709F010E04FBFC3CF1111C3CF4D
:101EB0005D9884E680930D021E141F0444F081E0B7
:101EC00090E0F5019383828380E090E001C0C70138
:101ED000DF91CF911F910F91FF90EF90DF90CF9006
:101EE000BF90AF909F908F900895009769F0FC018C
:101EF00001900020E9F73197AF01481B590BBC0155
:101F000081E392E00C94DC0580E090E008952F924C
:101F10003F924F925F926F927F928F929F92AF9279
:101F2000BF92CF92DF92EF92FF920F931F93CF93C6
:101F3000DF93CDB7DEB727970FB6F894DEBF0FBE9D
:101F4000CDBFA22EB12C9C012A0D3B1D37FDC1C077
:101F5000803891050CF0BDC09B01200F311D37FD6D
:101F6000B8C0603471050CF0B4C0DB0177FF04C069
:101F7000AA27BB27A61BB70BA770BB279B0177FF20
:101F800002C0295F3F4FF3E035952795FA95E1F7B9
:101F900077FF08C02150310968E070E04B018A1AD0
:101FA0009B0AD401402E469446944694512C0770C7
:101FB00019F00FEF401A500AB9017695762F66276F
:101FC00077956795680F791F420E531EE12CF12C0F
:101FD000E8E0F0E04F018A1A9B0A9F828E82241566
:101FE000350509F476C02830310509F472C02F3F59
:101FF0000FEF30070CF463C03B0110E8610E711C59
:102000008B010B531D4F6C011B821A828A809B80AF
:102010008A149B040CF053C0E0E8CE16D10409F4F6
:102020004EC0D7FC41C02F3FFFEF3F0709F44EC021
:10203000EA81FB81EE0DFF1DE40FF51FE4914801DD
:1020400086189708860E971E2E2E312CF1010A2E27
:1020500002C0EE0FFF1F0A94E2F7FD83EC83F40148
:102060002080EC81FD81E229FD83EC833C80F4013A
:1020700030821097C9F027303105B1F0EA81FB8139
:10208000EE0DFF1DE40FF51FE491F0E01F010E803F
:1020900002C0359427940A94E2F7F8019080F10188
:1020A000E9294F01F8018082EA81FB813196FB83A7
:1020B000EA830F5F1F4FFFEFCF1ADF0AA7CF2F5F13
:1020C0003F4FEA0CFB1C60587F4F89CF1097B1F649
:1020D000EBCF27960FB6F894DEBF0FBECDBFDF91D2
:1020E000CF911F910F91FF90EF90DF90CF90BF9015
:1020F000AF909F908F907F906F905F904F903F90A8
:102100002F90089520E085E492E0B22FB111BFEF47
:10211000FC010024B193B193B193B1930394D1F72F
:102120000895FC0180912902811103C08FEF9FEF78
:1021300008959FB7F89482E08093E9002091F2001F
:1021400030E01216130614F421E030E021153105B9
:1021500059F0289884E6809328028091F1008083CA
:102160008091F200882319F09FBFC90108958BE682
:102170008093E800F9CF2FB7F89483E08093E900CB
:102180009091E800892F807295FF04C09091F20031
:1021900080E4891B2FBF0895362F90E0FC01EC509E
:1021A000F54F4491FC01ED5EF44F2491FC01E05C9D
:1021B000F44F8491882309F451C04423E1F150E0A5
:1021C000FA013197EF30F105B0F5EA5AFF4F0C9460
:1021D000A718909180009F7707C0909180009F7D05
:1021E00003C090918000977F9093800024C094B5A5
:1021F0009F7702C094B59F7D94BD1DC090919000C3
:102200009F7707C0909190009F7D03C090919000B0
:10221000977F909390000FC09091C0009F7703C06C
:102220009091C0009F7D9093C00005C09091C20026
:10223000977F9093C200E82FF0E0EE0FFF1FEE5C57
:10224000F44FA591B4918FB7F894EC91311103C07C
:1022500020952E2301C02E2B2C938FBF0895CF9352
:10226000DF9390E0FC01ED5EF44F2491FC01E05C13
:10227000F44F8491882361F190E0880F991FFC014D
:10228000EA51F54FC591D491FC01EE5CF44FA59154
:10229000B491611109C09FB7F89488812095822379
:1022A0008883EC912E230BC0623061F49FB7F894C1
:1022B0003881822F809583238883EC912E2B2C9359
:1022C0009FBF06C08FB7F894E8812E2B28838FBF5D
:1022D000DF91CF9108951F93CF93DF93182FEB01D8
:1022E00061E00E942F11209711F460E004C0CF3FFD
:1022F000D10539F461E0812FDF91CF911F910C94CA
:10230000CC10E12FF0E0EC50F54FE4914E2F50E06F
:10231000FA013197EF30F10508F06CC0EB59FF4F2F
:102320000C94A71884B5806884BDC7BD68C084B507
:10233000806284BDC8BD63C0809180008068809346
:102340008000D0938900C093880059C0809180009C
:10235000806280938000D0938B00C0938A004FC02E
:1023600080918000886080938000D0938D00C0931E
:102370008C0045C080919000806880939000D0933D
:102380009900C09398003BC0809190008062809338
:102390009000D0939B00C0939A0031C08091900030
:1023A000886080939000D0939D00C0939C0027C0CC
:1023B0008091C00080688093C0008091C0008F7BB6
:1023C0008093C000C093CF001AC08091C00080628B
:1023D0008093C000C093D00012C08091C20088607A
:1023E0008093C2008091C2008B7F8093C200C09313
:1023F000D20005C0C038D1050CF07CCF76CFDF917C
:10240000CF911F9108958FB12CB193B130E02095F9
:10241000309520743327A90123E0559547952A95D7
:10242000E1F7292F30E0209530952071332735953D
:10243000279535952795242B8095807F822B0895AD
:10244000FC0121912EBD9C5F21910DB407FEFDCFB3
:102450002EBDE817F907C1F70DB407FEFDCF0895AB
:10246000CF92DF92EF92FF920F931F93CF93E82FBB
:10247000F0E0E15AF44FC491E62FF0E0603330F41D
:10248000EA54F54FE4910E2F10E006C0EE0FFF1F47
:10249000EA54F64F059114916801E12CF12C60E0AB
:1024A00074E284EF90E0A70196010E94C31DBA0177
:1024B000A90141505109610971094115510581E096
:1024C0006807710580F060E970ED83E090E0A70196
:1024D00096010E94C31DBA01A90141505109610929
:1024E000710983E001C081E0C130C9F0C33031F52A
:1024F00090919100987F892B80939100509399003F
:1025000040939800109327020093260281E0809365
:102510002502809171008260809371000FC09091BC
:102520008100987F892B809381005093890040938C
:10253000880080916F00826080936F00CF911F911F
:102540000F91FF90EF90DF90CF900895CF93DF939E
:1025500090913002923009F46EC0C82F292F30E0DC
:10256000F901E15AF44FD491F901E55BF94F808309
:102570009F5F9093300261E00E942F11D13019F0DB
:10258000D33039F158C010928000109281008091B0
:1025900081008860809381008091810081608093B8
:1025A00081008C2F90E0FC01E05CF44FE491F0E0BE
:1025B000EE0FFF1FEE5CF44F2591349130932F0204
:1025C00020932E02FC01ED5EF44F849180932D0246
:1025D00032C010929000109291008091910088601A
:1025E00080939100809191008160809391008C2F65
:1025F00090E0FC01E05CF44FE491F0E0EE0FFF1F8F
:10260000EE5CF44F2591349130932C0220932B02F1
:10261000FC01ED5EF44F849180932A028091300298
:10262000882321F06CE380E00E94301280E0DF918B
:10263000CF910C94240BDF91CF910895CF93DF932A
:10264000CDB7DEB766970FB6F894DEBF0FBECDBF2D
:10265000789484B5826084BD84B5816084BD85B57D
:10266000826085BD85B5816085BD80916E00816089
:1026700080936E001092810080918100826080932F
:102680008100809181008160809381008091800031
:10269000816080938000809191008260809391009E
:1026A0008091910081608093910080919000816081
:1026B000809390008091C10084608093C1008091DC
:1026C000C10082608093C1008091C10081608093CD
:1026D000C1008091C30081608093C3008091C000DD
:1026E00082608093C0008091C20081608093C200AC
:1026F00080917A00846080937A0080917A00826071
:1027000080937A0080917A00816080937A00809132
:102710007A00806880937A00109229021092060253
:10272000109207028091D70081608093D70080EAE1
:102730008093D80089B5806189BD89B5826089BDE3
:1027400009B400FEFDCF61E070E080E090E00E94FF
:10275000B60E8091D8008F7C80618093D8008091E4
:10276000E000807F8093E0008091E1008E7E809386
:10277000E1008DE08093E200559A209AEEEFFFE7AA
:10278000859194918B3F9C4D19F481E080930502D3
:102790000E940D0666246394712C2AE0222E312CAF
:1027A0008FB7F8944091FD015091FE016091FF01B7
:1027B000709100028FBF80914302882389F080913D
:1027C0003B02142F181B1093440280913802909101
:1027D0003902019690933902809338021092430295
:1027E00080913F0290914002A0914102B09142023B
:1027F000481759076A077B077CF4841B823008F46A
:1028000033C483B7817F83BF83B7816083BF8895DB
:1028100083B78E7F83BF28C480913A028A019B01CF
:10282000080F111D211D311D00933F02109340021E
:10283000209341023093420240933B0250933C026A
:1028400060933D0270933E0281E080934302809149
:10285000FA019091FB01019680361AEE910729F05A
:102860009093FB018093FA0104C01092FB01109237
:10287000FA010E9482108091F8019091F901892B50
:1028800041F48091FA019091FB019093F9018093BA
:10289000F8018091020190910301892B21F180912F
:1028A000FA019091FB012091F8013091F901AC01FE
:1028B000421B530B443B510548F408E324E645EE24
:1028C00051E068E070E080E090E0CBC3109203013B
:1028D000109202019093F7018093F60185E492E053
:1028E0000E942012C1C38091F4019091F5010397D9
:1028F0005CF48091F2019091F3011816190624F40A
:102900000E94031283FDB8C38091F4019091F501F8
:10291000833091052CF003979093F5018093F40197
:102920008091F2019091F3012091EC013091ED0141
:10293000181619060CF055C229012115310509F0A8
:1029400050C20E94031285FF09C08091F00190914E
:10295000F10103979093F1018093F0010E9403121B
:1029600086FF09C08091F0019091F1010396909348
:10297000F1018093F0018091F0019091F10197FFB6
:1029800004C01092F1011092F0018091F001909139
:10299000F1018D37910534F08CE790E09093F101CF
:1029A0008093F0010E9482106091FA017091FB0106
:1029B0007C836B838091F6019091F7019E838D83D8
:1029C000681B790B6D3D95E0790710F06CED75E0B3
:1029D0006C33710590F4072E000C880B990B0E9444
:1029E000C41920E030E040E752E40E941A196B015C
:1029F0007C0120E030E0A90114C06C537109072E5E
:102A0000000C880B990B0E94C41920E030E044EBC5
:102A100054E40E941A196B017C0120E030E844E084
:102A200054E4C701B6010E94A81AA70196010E94AA
:102A3000A81AA70196010E94A81A20E030E0A90177
:102A40000E94AE1820E030E040E05FE30E94AE1844
:102A50000E948C19CB010596B1010E949318362F64
:102A6000272F8B819C8168E770E00E947F188C3350
:102A7000910530F40596B1010E949318CB010BC06B
:102A800041E450E0DA01A81BB90BCD01B1010E946D
:102A90009318CB01069681FBBB27B0F9B9871A863C
:102AA00069E0E985FA856E9FA0016F9F500D1124A2
:102AB0008A0106531E4F1C870B873D8B2E8B2CEAF9
:102AC00031E03A832983812C912CAC01455F5F4F23
:102AD000588B4F8761E170E0681B790B7A8B698BAB
:102AE000DC01AD58BF4FBC8BAB8B6D897E89685FB5
:102AF0007F4F78876F83EF84F888C988DA88A98048
:102B0000BA80C401817099279E878D87F5018081E5
:102B10009181892B09F485C00D891E890233110525
:102B20002CF07092ED016092EC01D8CE2D853E859F
:102B300008E0232B89F129E04B855C856D897E892E
:102B4000C7010E94870F8091F4019091F5018330B5
:102B500091050CF466C04091EE015091EF014E15C5
:102B60005F0534F49A012F5F3F4F2E193F0905C0CE
:102B70009701275F3F4F241B350B4D895E898417D2
:102B8000950724F40396841B950B35C06F817885D7
:102B9000681B790BCB012FC029E041EC51E06D8916
:102BA0007E89C6010E94870F8091F4019091F50102
:102BB00083309105B4F14091EE015091EF014C1535
:102BC0005D0534F49A012F5F3F4F2C193D0905C074
:102BD0009601275F3F4F241B350BAD89BE898A17AD
:102BE0009B0724F403968A1B9B0B05C0EF81F88595
:102BF000E81BF90BCF01121613069CF418161906E0
:102C000084F4D5011D921C928091F2019091F30100
:102C100001979093F3018093F2011092F5011092C5
:102C2000F401B2E0AB0EB11CEDE0EE0EF11CFDE0E4
:102C3000CF0ED11C0B891C89E016F10609F066CF76
:102C40001FEF811A910A2D893E89275F3F4F3E8BE6
:102C50002D8B49815A81405F5F4F5A83498354E0ED
:102C60008516910409F041CF8091F0019091F10116
:102C700006E029E048EB51E06AE370E005970E9426
:102C8000870F8091F4019091F50183309105BCF19B
:102C90002091EE013091EF01AC014E5F5F4F97FF45
:102CA00002C080E090E0BA014134510514F060E4C4
:102CB00070E0861797071CF52038310510F0019653
:102CC000F2CF80349105D8F7682F669566956695A2
:102CD000F901A0E86A9FE00DF11D1124EF5CFD4FA2
:102CE000BC016770772701E010E002C0000F111FE0
:102CF0006A95E2F7B8017489672B648BE0CFEEE741
:102D0000F2E0408180E090E021E030E0082E01C058
:102D1000220F0A94EAF72095422301968830910504
:102D200099F7419312E0EB38F10759F721E030E0D1
:102D3000309301012093000181E080934906ECE883
:102D4000F1E001900020E9F73197CF018C589140D4
:102D500046E0489F9001499F300D112436952795F4
:102D600080E490E0821B930B909346068093450687
:102D700010924806109247068D819E814B815C819E
:102D8000841B950B84325AEF950729F02C0164E2DD
:102D9000461A6AEF560AC2016CE370E00E9493186B
:102DA000072E000C880B990B0E94C4190E94FF1972
:102DB0000E948C197F936F9389E391E09F938F9387
:102DC0008CE891E09F938F930E941A1B8CE891E00E
:102DD0000E94750F0F900F900F900F900F900F9013
:102DE0007DCD8091FA019091FB01232B09F46BC0FA
:102DF0006FE070E00E947F186170772789E0869FFE
:102E0000A001879F500D112446535E4F08E029E032
:102E100060E170E08CE390E00E94870F7092010106
:102E20006092000181E0809349068BE290E09093EC
:102E3000460680934506A0E2B0E0B0934806A09312
:102E400047068CE391E00E94750F80918A01909172
:102E50008B01892B41F48091FA019091FB019093B1
:102E60008B0180938A0120918A0130918B01121687
:102E700013060CF033CD8091FA019091FB01821B77
:102E8000930B853B910508F429CD70920101609266
:102E9000000181E080934906309246062092450663
:102EA000E0E3F0E0F0934806E093470684E491E025
:102EB0000E94750F0E94031283FF10CD10928B01A8
:102EC00010928A01C3C02091880130918901232B7F
:102ED00021F4909389018093880140918801509159
:102EE00089019A01281B390B245C3F472130304867
:102EF00008F442C0BC01641B750B6D33710510F002
:102F00006CE370E0072E000C880B990B0E94C4192B
:102F100020E030E040E752E40E941A196B017C0186
:102F200020E030E041E154EC0E94A81AA70196018C
:102F30000E94A81AA70196010E94A81A20E030E07A
:102F400041E154E40E94AE1820E030E040E05FE34D
:102F50000E94AE180E948C19CB010596B1010E9407
:102F600093188091F0019091F10106E029E048EB7F
:102F700051E005970E94870F709201016092000155
:102F800081E08093490607E010E010934606009325
:102F9000450620E230E0309348062093470687E557
:102FA00091E00E94750F08E029E04CED51E06AE1E4
:102FB00070E088E690E00E94870F809186019091F2
:102FC0008701892B41F48091FA019091FB01909344
:102FD0008701809386018091860190918701181660
:102FE0001906BCF56091FA017091FB01681B790B21
:102FF0006937710570F1660F771F6B5C710960347A
:1030000071052CF408E029E04CED51E028C07092E5
:1030100001016092000181E0809349064DE050E09B
:10302000509346064093450660E370E0709348066F
:10303000609347068BE691E00E94750F0E94031291
:1030400083FF4CCC10928701109286010E940D06DE
:1030500045CC08E029E04CED51E065E270E089E004
:1030600090E00E94870F3ACC80E090E0892B09F431
:1030700097CB0E94000091CB8DE390E09093F501F7
:103080008093F4018091F0019091F1010197909368
:10309000EF018093EE0138CCEDE4F6E0138212826A
:1030A00088EE93E0A0E0B0E084839583A683B783A5
:1030B0008FE191E0918380838FEF9FEF95878487E5
:1030C000E1E3F2E01382128281E391E09183808355
:1030D0008CE3868380E181871086178216861786A7
:1030E000108A118A128A1092460610924506109292
:1030F00048061092470681E0809349060895AA1B6E
:10310000BB1B51E107C0AA1FBB1FA617B70710F0D2
:10311000A61BB70B881F991F5A95A9F78095909504
:10312000BC01CD01089597FB072E16F4009407D03B
:1031300077FD09D00E947F1807FC05D03EF49095DA
:1031400081959F4F0895709561957F4F0895EE0F7B
:10315000FF1F0590F491E02D09945058BB27AA2732
:103160000E94C5180C94561A0E94481A38F00E9402
:103170004F1A20F039F49F3F19F426F40C94451AA5
:103180000EF4E095E7FB0C94161AE92F0E94671ADB
:1031900058F3BA17620773078407950720F079F48C
:1031A000A6F50C94A11A0EF4E0950B2EBA2FA02DC3
:1031B0000B01B90190010C01CA01A0011124FF27E4
:1031C000591B99F0593F50F4503E68F11A16F040DF
:1031D000A22F232F342F4427585FF3CF46953795DE
:1031E0002795A795F0405395C9F77EF41F16BA0BA3
:1031F000620B730B840BBAF09150A1F0FF0FBB1F51
:10320000661F771F881FC2F70EC0BA0F621F731F99
:10321000841F48F4879577956795B795F7959E3FF6
:1032200008F0B0CF9395880F08F09927EE0F979587
:10323000879508950E942E190C94561A0E944F1AD1
:1032400058F00E94481A40F029F45F3F29F00C948E
:10325000161A51110C94A21A0C94451A0E94671A5E
:1032600068F39923B1F3552391F3951B550BBB27B5
:10327000AA2762177307840738F09F5F5F4F220FFA
:10328000331F441FAA1FA9F335D00E2E3AF0E0E8F1
:1032900032D091505040E695001CCAF72BD0FE2F3B
:1032A00029D0660F771F881FBB1F261737074807CF
:1032B000AB07B0E809F0BB0B802DBF01FF27935887
:1032C0005F4F3AF09E3F510578F00C94161A0C941B
:1032D000A21A5F3FE4F3983ED4F3869577956795FD
:1032E000B795F7959F5FC9F7880F911D96958795BC
:1032F00097F90895E1E0660F771F881FBB1F6217DB
:1033000073078407BA0720F0621B730B840BBA0B98
:10331000EE1F88F7E09508950E9493196894B11103
:103320000C94A21A08950E946F1A88F09F5798F083
:10333000B92F9927B751B0F0E1F0660F771F881FBA
:10334000991F1AF0BA95C9F714C0B13091F00E94D4
:10335000A11AB1E008950C94A11A672F782F88273D
:10336000B85F39F0B93FCCF3869577956795B395FB
:10337000D9F73EF490958095709561957F4F8F4F6A
:103380009F4F0895E89409C097FB3EF4909580956F
:10339000709561957F4F8F4F9F4F9923A9F0F92F1B
:1033A00096E9BB279395F695879577956795B79599
:1033B000F111F8CFFAF4BB0F11F460FF1BC06F5F7F
:1033C0007F4F8F4F9F4F16C0882311F096E911C091
:1033D000772321F09EE8872F762F05C0662371F0B2
:1033E00096E8862F70E060E02AF09A95660F771FC6
:1033F000881FDAF7880F9695879597F908950E94A8
:10340000891A90F09F3748F4911116F00C94A21A83
:1034100060E070E080E89FEB089526F41B16611DC4
:10342000711D811D0C941C1A0C94371A97F99F6713
:1034300080E870E060E00895882371F4772321F03C
:103440009850872B762F07C0662311F499270DC05B
:103450009051862B70E060E02AF09A95660F771FF6
:10346000881FDAF7880F9695879597F908959F3FFB
:1034700031F0915020F4879577956795B795880F2F
:10348000911D9695879597F908959FEF80EC089583
:1034900000240A9416161706180609060895002433
:1034A0000A9412161306140605060895092E0394AD
:1034B000000C11F4882352F0BB0F40F4BF2B11F421
:1034C00060FF04C06F5F7F4F8F4F9F4F089557FD80
:1034D0009058440F551F59F05F3F71F04795880F82
:1034E00097FB991F61F09F3F79F087950895121619
:1034F00013061406551FF2CF4695F1DF08C01616C5
:1035000017061806991FF1CF869571056105089475
:1035100008950E946F1AA0F0BEE7B91788F4BB2780
:103520009F3860F41616B11D672F782F8827985F93
:10353000F7CF869577956795B11D93959639C8F322
:103540000895E894BB2766277727CB0197F908955C
:103550000E94BB1A0C94561A0E94481A38F00E9416
:103560004F1A20F0952311F00C94161A0C94451A5A
:1035700011240C94A21A0E94671A70F3959FC1F34C
:10358000950F50E0551F629FF001729FBB27F00D11
:10359000B11D639FAA27F00DB11DAA1F649F662766
:1035A000B00DA11D661F829F2227B00DA11D621FB5
:1035B000739FB00DA11D621F839FA00D611D221F6F
:1035C000749F3327A00D611D231F849F600D211D53
:1035D000822F762F6A2F11249F5750409AF0F1F0D6
:1035E00088234AF0EE0FFF1FBB1F661F771F881F3F
:1035F00091505040A9F79E3F510580F00C94161A47
:103600000C94A21A5F3FE4F3983ED4F38695779525
:103610006795B795F795E7959F5FC1F7FE2B880FE4
:10362000911D9695879597F9089581E090E0F8941B
:103630000C944A1EAEE0B0E0E0E2FBE10C94211EE7
:103640000D891E8986E08C831A8309838FEF9FE79B
:103650009E838D83AE01475E5F4F6F89788DCE016B
:1036600001960E943D1B2F813885F801E20FF31F60
:1036700010822E96E4E00C943D1EACE0B0E0E3E452
:10368000FBE10C94131E7C016B018A01FC01178283
:103690001682838181FFBDC1CE0101964C01F701E5
:1036A0009381F60193FD859193FF81916F018823AA
:1036B00009F4ABC1853239F493FD859193FF819173
:1036C0006F01853229F4B70190E00E94251DE7CFF4
:1036D000512C312C20E02032A0F48B3269F030F4F0
:1036E000803259F0833269F420612CC08D3239F078
:1036F000803339F4216026C02260246023C0286012
:1037000021C027FD27C030ED380F3A3078F426FF6E
:1037100006C0FAE05F9E300D1124532E13C08AE0DC
:10372000389E300D1124332E20620CC08E3221F4CD
:1037300026FD6BC1206406C08C3611F4206802C0DF
:10374000883641F4F60193FD859193FF81916F01D5
:103750008111C1CF982F9F7D9554933028F40C5F31
:103760001F4FFFE3F9830DC0833631F0833771F0CB
:10377000833509F05BC022C0F801808189830E5F28
:103780001F4F44244394512C540115C03801F2E0DA
:103790006F0E711CF801A080B18026FF03C0652D5B
:1037A00070E002C06FEF7FEFC5012C870E941A1DE9
:1037B0002C0183012C852F77222E17C03801F2E0CF
:1037C0006F0E711CF801A080B18026FF03C0652D2B
:1037D00070E002C06FEF7FEFC5012C870E940F1DC4
:1037E0002C012C852068222E830123FC1BC0832DF5
:1037F00090E048165906B0F4B70180E290E00E94CC
:10380000251D3A94F4CFF50127FC859127FE81917F
:103810005F01B70190E00E94251D31103A94F1E05C
:103820004F1A51084114510471F7E5C0843611F064
:10383000893639F5F80127FF07C0608171818281DF
:1038400093810C5F1F4F08C060817181072E000CAF
:10385000880B990B0E5F1F4F2F76722E97FF09C0B2
:1038600090958095709561957F4F8F4F9F4F206801
:10387000722E2AE030E0A4010E945D1DA82EA81837
:1038800044C0853729F42F7EB22E2AE030E025C0CF
:10389000F22FF97FBF2E8F36C1F018F4883579F0FA
:1038A000B4C0803719F0883721F0AFC02F2F2061C6
:1038B000B22EB4FE0DC08B2D8460B82E09C024FF3B
:1038C0000AC09F2F9660B92E06C028E030E005C0E0
:1038D00020E130E002C020E132E0F801B7FE07C08D
:1038E00060817181828193810C5F1F4F06C060816E
:1038F000718180E090E00E5F1F4FA4010E945D1D6A
:10390000A82EA818FB2DFF777F2E76FE0BC0372D33
:103910003E7FA51450F474FE0AC072FC08C0372D17
:103920003E7E05C0BA2C372D03C0BA2C01C0B52C81
:1039300034FF0DC0FE01EA0DF11D8081803311F4CA
:10394000397E09C032FF06C0B394B39404C0832FFC
:10395000867809F0B39433FD13C030FF06C05A2CAB
:10396000B31418F4530C5B18B32CB31468F4B701F8
:1039700080E290E03C870E94251DB3943C85F5CF02
:10398000B31410F43B1801C0312C34FF12C0B7013E
:1039900080E390E03C870E94251D3C8532FF17C0E4
:1039A00031FD03C088E790E002C088E590E0B701F0
:1039B0000CC0832F867859F031FF02C08BE201C022
:1039C00080E237FD8DE2B70190E00E94251DA5142D
:1039D00038F4B70180E390E00E94251D5A94F7CF98
:1039E000AA94F401EA0DF11D8081B70190E00E94D4
:1039F000251DA110F5CF332009F451CEB70180E287
:103A000090E00E94251D3A94F6CFF70186819781B8
:103A100002C08FEF9FEF2C96E2E10C942F1EFC0169
:103A20000590615070400110D8F7809590958E0FE9
:103A30009F1F0895FC016150704001900110D8F75C
:103A4000809590958E0F9F1F08950F931F93CF938E
:103A5000DF93FB01238121FD03C08FEF9FEF28C07F
:103A600022FF16C0468157812481358142175307B2
:103A700044F4A081B1819D012F5F3F4F31832083AA
:103A80008C93268137812F5F3F4F3783268310C069
:103A9000EB01092F182F0084F185E02D0995892B62
:103AA000E1F68E819F8101969F838E83812F902FD7
:103AB000DF91CF911F910F910895FA01AA27283025
:103AC00051F1203181F1E8946F936E7F6E5F7F4FEB
:103AD0008F4F9F4FAF4FB1E03ED0B4E03CD0670F67
:103AE000781F891F9A1FA11D680F791F8A1F911DBA
:103AF000A11D6A0F711D811D911DA11D20D009F40A
:103B000068943F912AE0269F11243019305D31934B
:103B1000DEF6CF010895462F4770405D4193B3E034
:103B20000FD0C9F7F6CF462F4F70405D4A3318F0DB
:103B3000495D31FD4052419302D0A9F7EACFB4E08C
:103B4000A6959795879577956795BA95C9F7009744
:103B50006105710508959B01AC010A2E06945795E5
:103B6000479537952795BA95C9F7620F731F841F3C
:103B7000951FA01D0895F999FECF92BD81BDF89AB9
:103B8000992780B50895052E97FB1EF400940E9496
:103B9000DA1D57FD07D00E94E21D07FC03D04EF44A
:103BA0000C94DA1D50954095309521953F4F4F4F1D
:103BB0005F4F089590958095709561957F4F8F4FD9
:103BC0009F4F0895A1E21A2EAA1BBB1BFD010DC039
:103BD000AA1FBB1FEE1FFF1FA217B307E407F507BD
:103BE00020F0A21BB30BE40BF50B661F771F881F99
:103BF000991F1A9469F760957095809590959B012F
:103C0000AC01BD01CF010895A29FB001B39FC001D7
:103C1000A39F700D811D1124911DB29F700D811DF8
:103C20001124911D08952F923F924F925F926F92AF
:103C30007F928F929F92AF92BF92CF92DF92EF923C
:103C4000FF920F931F93CF93DF93CDB7DEB7CA1BBD
:103C5000DB0B0FB6F894DEBF0FBECDBF09942A88E8
:103C6000398848885F846E847D848C849B84AA8490
:103C7000B984C884DF80EE80FD800C811B81AA811D
:103C8000B981CE0FD11D0FB6F894DEBF0FBECDBFE8
:083C9000ED010895F894FFCF47
:103C980001000100FFFFFFFF00E10000000000003D
:103CA8000100000000C18081000000000000005DEC
:103CB80009F00E690A73097E09910A6D0A0000006D
:103CC800002108DC0508060706257500204F482056
:103CD8004E4F21007072657373205B415D20746FD5
:103CE800207265747279002048554D414E495459E7
:103CF800205052455641494C5321005B415D207488
:0E3D08006F20706C617920616761696E000048
:00000001FF
