:100000000C9434050C945C050C945C050C945C0514
:100010000C945C050C945C050C945C050C945C05DC
:100020000C945C050C945C050C9490110C940212D9
:100030000C945C050C945C050C945C050C945C05BC
:100040000C945C050C943A090C945C050C945C05CA
:100050000C945C050C945C050C945C050C944D08A8
:100060000C945C050C945C050C945C050C945C058C
:100070000C945C050C945C050C945C050C945C057C
:100080000C94D8090C945C050C945C050C945C05EC
:100090000C945C050C945C050C945C050C945C055C
:1000A0000C945C050C945C050C945C05B605B905D4
:1000B000A805AC05B005DA05DA05DA05BD05C10508
:1000C000C505CB05CF05DA05D505510656065B06F5
:1000D00065066F06B906B906B906790683068D0668
:1000E0009706A406B906AC0600000000240027000D
:1000F0002A002D0030000000000200090F0000035C
:100100000401000C000000000000000000000000DE
:100110000000000000010101010120A4AAA1A4BA6D
:1001200000A040000002020201000000F824241890
:10013000007E08087000F824241800000000000069
:1001400000000000000000007CFE8383C6441038DD
:100150001000103810000001010000000000000035
:1001600000001092BAFFFFFFFFFFFFFFFFFE7C3889
:100170001000000000010101010101010100000067
:10018000000000000000000000000000000000006F
:100190000000000000000000000080C0C0C080001F
:1001A000000000000000000000C00000000000008F
:1001B00000000000000000FFFEFCF800000000004E
:1001C0000080C0C0C08000000000000000000000EF
:1001D000000000000000000000000000000000001F
:1001E000000000000000000000000000000000000F
:1001F000000000000000F8FCFEFF0F0703070FFFE0
:10020000FEFCF80000F8FCFEFFFFFFFEFCF800001B
:10021000F8FCFE9F0F070F9FFFFFFF0000F8FCFE9A
:10022000FF8F0763670F0F1E3C780000000000007F
:1002300000000000000000000000000000000000BE
:1002400000000000000000000000000000000000AE
:100250000000000000000703010000000000000093
:100260000103070000071F030F1F0F031F070000F4
:10027000C143474F0F4ECF4F0F8743404000C1034C
:1002800007CF0F4E4ECC404000C040404000C04021
:10029000408000C0000000000000000000000000DE
:1002A000000000000000000000000000000000004E
:1002B000000000000000000000000000000000003E
:1002C000000000000000000000000000000000002E
:1002D00007010100000407040003040503000701EF
:1002E00001070000000700000007050504000701E2
:1002F00003040005000000000000000000000000F2
:10030000000001F0F89C8E8783878E9CF8F0000037
:10031000FEFF0303030303070EFCF80000FEFF03C8
:1003200003030303070EFCF80000FFFF00000000BA
:10033000000000FFFF0000FEFF8383838383C7EE7E
:100340007C380000F8FC0E07030303070EFCF800DE
:10035000003F7FE0C08080C0E07F3FFFFF010101E0
:1003600001010101FFFF0000FFFF0C0C0C0C1C3E03
:1003700077E3C100007FFFC0C0C0C0C0E0703F1F76
:1003800000001F3F70E0C0C0C0E0703F1F00007F52
:10039000FFC1C1C1C1C1E3773E1C00001F3F70E037
:1003A000C0C0C0E0703F1F000000000001FFFF015F
:1003B000000000D5F08D14A1C881CFD9F1AF200085
:1003C00014021302120215020702080204010C01B2
:1003D00006010000000000003E5B4F5B3E3E6B4F9D
:1003E0006B3E1C3E7C3E1C183C7E3C181C577D57C7
:1003F0001C1C5E7F5E1C00183C1800FFE7C3E7FF73
:100400000018241800FFE7DBE7FF30483A060E2605
:1004100029792926407F050507407F05253F5A3C5D
:10042000E73C5A7F3E1C1C08081C1C3E7F14227FA0
:1004300022145F5F005F5F06097F017F0066899578
:100440006A606060606094A2FFA29408047E040861
:1004500010207E201008082A1C08081C2A08081EE4
:10046000101010100C1E0C1E0C30383E3830060ECA
:100470003E0E06000000000000005F0000000700C4
:100480000700147F147F14242A7F2A122313086480
:100490006236495620500008070300001C22410024
:1004A0000041221C002A1C7F1C2A08083E08080064
:1004B0008070300008080808080000606000201004
:1004C0000804023E5149453E00427F4000724949BE
:1004D00049462141494D331814127F10274545459F
:1004E000393C4A49493141211109073649494936C0
:1004F000464949291E000014000000403400000055
:100500000814224114141414140041221408020186
:100510005909063E415D594E7C1211127C7F4949B2
:1005200049363E414141227F4141413E7F4949494F
:10053000417F090909013E414151737F0808087F45
:1005400000417F41002040413F017F081422417F4C
:10055000404040407F021C027F7F0408107F3E41E4
:1005600041413E7F090909063E4151215E7F09193B
:100570002946264949493203017F01033F40404053
:100580003F1F2040201F3F4038403F631408146342
:1005900003047804036159494D43007F41414102FE
:1005A00004081020004141417F0402010204404040
:1005B000404040000307080020545478407F2844FE
:1005C00044383844444428384444287F38545454E8
:1005D0001800087E090218A4A49C787F08040478F7
:1005E00000447D40002040403D007F102844000032
:1005F000417F40007C047804787C08040478384407
:10060000444438FC1824241818242418FC7C0804BA
:100610000408485454542404043F44243C404020DB
:100620007C1C2040201C3C4030403C442810284486
:100630004C9090907C4464544C4400083641000037
:1006400000770000004136080002010204023C2647
:1006500023263C1EA1A161123A4040207A3854540E
:100660005559215555794121545478412155547893
:100670004020545579400C1E527212395555555927
:10068000395454545939555454580000457C41004C
:1006900002457D420001457C40F0292429F0F028E4
:1006A0002528F07C545545002054547C547C0A097C
:1006B0007F4932494949323248484832324A4848EB
:1006C000303A4141217A3A42402078009DA0A07DF5
:1006D00039444444393D4040403D3C24FF242448B3
:1006E0007E4943662B2FFC2F2BFF0929F620C0885B
:1006F0007E090320545479410000447D413048482C
:100700004A32384040227A007A0A0A727D0D193145
:100710007D2629292F28262929292630484D4020A1
:10072000380808080808080808382F10C8ACBA2F7D
:10073000102834FA00007B000008142A1422221426
:100740002A14089500220095AA005500AAAA55AAC5
:1007500055AA000000FF00101010FF00141414FF31
:10076000001010FF00FF1010F010F0141414FC0023
:100770001414F700FF0000FF00FF1414F404FC142D
:100780001417101F10101F101F1414141F00101026
:1007900010F0000000001F101010101F101010109B
:1007A000F010000000FF101010101010101010FFBB
:1007B00010000000FF140000FF00FF00001F1017D2
:1007C0000000FC04F414141710171414F404F400BB
:1007D00000FF00F714141414141414F700F7141481
:1007E00014171410101F101F141414F4141010F008
:1007F00010F000001F101F0000001F14000000FC7C
:10080000140000F010F01010FF10FF141414FF1467
:100810001010101F00000000F010FFFFFFFFFFF09E
:10082000F0F0F0F0FFFFFF0000000000FFFF0F0FEF
:100830000F0F0F38444438447C2A2A3E147E0202AB
:100840000606027E027E0263554941633844443CF9
:1008500004407E201E2006027E020299A5E7A5998B
:100860001C2A492A1C4C7201724C304A4D4D3030C2
:1008700048784830BC625A463D3E494949007E01AD
:1008800001017E2A2A2A2A2A44445F444440514ACC
:10089000444040444A51400000FF0103E080FF0013
:1008A0000008086B6B083612362436060F090F064F
:1008B000000018180000001010003040FF01010077
:1008C0001F01011E00191D1712003C3C3C3C00009A
:1008D00000000006011501260137014A015D017281
:1008E0000188019F01B801D201EE010B022A024BDF
:1008F000026E029302BA02E40210033F037003A4E3
:1009000003DC03170455049704DD0427057505C8A7
:100910000520067D06E0064907B8072D08A9082D21
:1009200009B9094D0AEA0A900B400CFA0CC00D9166
:100930000E6F0F5A1053115B1272139A14D41520B4
:10094000178018F519801B231DDE1EB420A622B5C2
:1009500024E4263429A72B402E0031EA3300374502
:100960003ABC3D68414C456B49C84D68524F578071
:100970005C006210111213151617181A1C1D1F2186
:10098000232527292C2E3134373A3E4145494E52F2
:10099000575C62686E757B838B939CA5AFB9C4D09E
:1009A000DCE9F7040802011040804010204080403C
:1009B00080080204018040201002011080102040B5
:1009C000402000000000250028002B002E003100F0
:1009D00004040404040304050202020204030202E4
:1009E00002020606060606060404020202040403C6
:1009F00001080B00020202010009040000010202CA
:100A00000000052400100105240101010424020650
:100A100005240600010705810310004009040100B8
:100A2000020A0000000705020240000007058302D9
:100A30004000000403090412010002EF02014041DA
:100A400023368000010102030141726475696E6FF3
:100A5000204C4C430041726475696E6F204C656F89
:100A60006E6172646F00261911241FBECFEFDAE0A9
:100A7000DEBFCDBF11E0A0E0B1E0E2E9F6E302C0E5
:100A800005900D92AA36B107D9F727E0AAE6B1E0A2
:100A900001C01D92A530B207E1F715E0C4E3D5E02F
:100AA00004C02197FE010E94281BC333D107C9F758
:100AB0000E9432140C94471B0C940000CF92DF92DA
:100AC000EF92FF920F931F93CF93DF936C017A0104
:100AD0008B01C0E0D0E0CE15DF0589F0D8016D9123
:100AE0008D01D601ED91FC910190F081E02DC601C0
:100AF0000995892B11F47E0102C02196ECCFC70124
:100B0000DF91CF911F910F91FF90EF90DF90CF90E9
:100B100008950E94421B362F90E0FC01EA50FF4FDF
:100B20004491FC01ED55F64F2491FC01E053F64F42
:100B30008491882309F451C04423E1F150E0FA0183
:100B40003197EF30F105B0F5EA5AFF4F0C94281BAE
:100B5000909180009F7707C0909180009F7D03C097
:100B600090918000977F9093800024C094B59F77E8
:100B700002C094B59F7D94BD1DC0909190009F7759
:100B800007C0909190009F7D03C090919000977F47
:100B9000909390000FC09091C0009F7703C09091F8
:100BA000C0009F7D9093C00005C09091C200977FC8
:100BB0009093C200E82FF0E0EE0FFF1FEE53F64FC8
:100BC000A591B4918FB7F894EC91311103C02095A1
:100BD0002E2301C02E2B2C938FBF0895CF93DF932C
:100BE00090E0FC01ED55F64F2491FC01E053F64FE7
:100BF0008491882361F190E0880F991FFC01E851EE
:100C0000FF4FC591D491FC01EE53F64FA591B491DD
:100C1000611109C09FB7F894888120958223888349
:100C2000EC912E230BC0623061F49FB7F8943881A9
:100C3000822F809583238883EC912E2B2C939FBF4A
:100C400006C08FB7F894E8812E2B28838FBFDF91E1
:100C5000CF9108951F93CF93DF93182FEB0161E09D
:100C60000E94EE05209711F460E004C0CF3FD1054B
:100C700039F461E0812FDF91CF911F910C948B05A6
:100C8000E12FF0E0EA50FF4FE4914E2F50E0FA01DF
:100C90003197EF30F10508F06CC0EB59FF4F0C9421
:100CA000281B84B5806884BDC7BD68C084B58062D8
:100CB00084BDC8BD63C0809180008068809380003F
:100CC000D0938900C093880059C0809180008062D1
:100CD00080938000D0938B00C0938A004FC0809196
:100CE0008000886080938000D0938D00C0938C003A
:100CF00045C080919000806880939000D0939900C7
:100D0000C09398003BC080919000806280939000D7
:100D1000D0939B00C0939A0031C08091900088606E
:100D200080939000D0939D00C0939C0027C0809139
:100D3000C00080688093C0008091C0008F7B80934A
:100D4000C000C093CF001AC08091C0008062809321
:100D5000C000C093D00012C08091C2008860809310
:100D6000C2008091C2008B7F8093C200C093D200EA
:100D700005C0C038D1050CF07CCF76CFDF91CF9184
:100D80001F9108958F929F92AF92BF92CF92DF9260
:100D9000EF92FF926B017C010E9428084B015C01DD
:100DA000C114D104E104F104F1F00E942808DC012F
:100DB000CB0188199909AA09BB09883E9340A1056E
:100DC000B10570F321E0C21AD108E108F10888EEFC
:100DD000880E83E0981EA11CB11CC114D104E1044B
:100DE000F10419F7DDCFFF90EF90DF90CF90BF9027
:100DF000AF909F908F9008952F923F924F925F9265
:100E00006F927F928F929F92AF92BF92CF92DF921A
:100E1000EF92FF920F931F93CF93DF9300D000D0F8
:100E200000D0CDB7DEB76A3091F4FC01E85EFB4F2D
:100E3000408132972081318158E0459F200D311D3E
:100E4000112431832083329711821082E4C06D30E7
:100E500009F4E1C0FC01E85EFB4FD080329760806E
:100E600071801C017CEE271A7BEF370AD1012D918E
:100E70003C910D2D10E0203831057CF0B6E0DB9E72
:100E8000200D311D1124F10131832083FC01E75E27
:100E9000FB4F4081411194C0BEC0F0E46F16710455
:100EA0006CF7A90175E0D79E400D511D1124141651
:100EB000150624F7A80173E0440F551F7A95E1F752
:100EC000460D571D14161506CCF6E5E06E9FD001B1
:100ED0001124BA83A983490160E070E0442443945B
:100EE000512C6530710541F0E981FA81E60FF71F59
:100EF000ED52FC4FE49101C0E0E05301F8E04E2FC9
:100F00004170C42E9C828B824B8148194D1508F08C
:100F100048C0A501F42EB42FBA19BD15D8F5AB8180
:100F2000BC81A038B10598F54034510580F5AF2D4E
:100F3000A695A695A695EA2EF12CDA01A770BB27F7
:100F4000BE83AD83D701B695BA2FAA27B795A795CB
:100F5000EB80FC80AE0DBF1DA80FB91F72010D8084
:100F600002C0EE0CFF1C0A94E2F7FE82ED82CC2058
:100F700031F05496FC905497ED80EF2806C0ED8038
:100F8000E0945496FC905497EF205496EC924F5F67
:100F90005F4FC0CF4B815C814F5F5F4F5C834B8362
:100FA000B3CFE695F150A00EB11EF111A8CF6F5F3F
:100FB0007F4F800E911E6630710509F092CF5ECF93
:100FC0006AEF6003A001619F500D112440585F4FEC
:100FD0004217530704F5DC01ED91FC910190F0817B
:100FE000E02D6AE026960FB6F894DEBF0FBECDBFA7
:100FF000DF91CF911F910F91FF90EF90DF90CF90F5
:10100000BF90AF909F908F907F906F905F904F9028
:101010003F902F90099426960FB6F894DEBF0FBE2E
:10102000CDBFDF91CF911F910F91FF90EF90DF9097
:10103000CF90BF90AF909F908F907F906F905F9078
:101040004F903F902F900895089580E090E008958C
:101050003FB7F8948091780290917902A0917A023A
:10106000B0917B0226B5A89B05C02F3F19F00196D1
:10107000A11DB11D3FBFBA2FA92F982F8827820F1E
:10108000911DA11DB11DBC01CD0142E0660F771F6E
:10109000881F991F4A95D1F708951F920F920FB696
:1010A0000F9211242F933F938F939F93AF93BF93EE
:1010B00080916A0190916B01A0916C01B0916D01DA
:1010C0003091770223E0230F2D3720F40196A11DE4
:1010D000B11D05C026E8230F0296A11DB11D209366
:1010E000770280936A0190936B01A0936C01B09397
:1010F0006D018091780290917902A0917A02B0916D
:101100007B020196A11DB11D809378029093790214
:10111000A0937A02B0937B02BF91AF919F918F9180
:101120003F912F910F900FBE0F901F9018958FB188
:101130002CB193B130E02095309520743327A9016C
:1011400023E0559547952A95E1F7292F30E0209522
:101150003095207133273595279535952795242B84
:101160008095807F822B0895FC0121912EBD9C5F8C
:1011700021910DB407FEFDCF2EBDE817F907C1F789
:101180000DB407FEFDCF0895CF92DF92EF92FF924C
:101190000F931F93CF93E82FF0E0E151F64FC491E6
:1011A000E62FF0E0603330F4ED58F64FE4910E2F67
:1011B00010E006C0EE0FFF1FED58F74F0591149198
:1011C0006801E12CF12C60E074E284EF90E0A7016B
:1011D00096010E94BD19BA01A90141505109610946
:1011E00071094115510581E06807710580F060E9DA
:1011F00070ED83E090E0A70196010E94BD19BA014D
:10120000A901415051096109710983E001C081E0E0
:10121000C130C9F0C33031F590919100987F892B8E
:101220008093910050939900409398001093760218
:101230000093750281E08093740280917100826056
:10124000809371000FC090918100987F892B8093CB
:101250008100509389004093880080916F008260E4
:1012600080936F00CF911F910F91FF90EF90DF90CF
:10127000CF9008951F920F920FB60F9211242F93C3
:101280003F938F939F93AF93BF93EF93FF9380917F
:101290006C02882309F44DC0809168029091690224
:1012A000A0916A02B0916B02892B8A2B8B2B51F192
:1012B00080918302E0918402F091850290818927D8
:1012C00080838091680290916902A0916A02B09136
:1012D0006B02181619061A061B06A4F580916802FF
:1012E00090916902A0916A02B0916B020197A109E5
:1012F000B1098093680290936902A0936A02B09347
:101300006B0220C010926C0280916F008D7F8093E1
:101310006F0090918302E0918402F09185028081B8
:10132000282F30E0892F90E0809590958223932399
:1013300008C080918302E0918402F091850290813F
:1013400089278083FF91EF91BF91AF919F918F91FA
:101350003F912F910F900FBE0F901F901895E82F7F
:10136000F0E0E151F64FE491E13019F0E33069F03B
:10137000089580916F008D7F80936F00909183021C
:10138000E0918402F091850208C01092740290915D
:101390008002E0918102F09182028081282F30E06A
:1013A000892F90E0809590958223932380830895E0
:1013B0001F920F920FB60F9211242F933F934F93CA
:1013C0005F936F937F938F939F93AF93BF93EF93AD
:1013D000FF9380917402882349F080918002E0910C
:1013E0008102F0918202908189278083809173022B
:1013F000882309F493C080916F0290917002A091AC
:101400007102B0917202892B8A2B8B2B09F486C052
:1014100080916F0290917002A0917102B09172025E
:101420000197A109B10980936F0290937002A09374
:101430007102B0937202892B8A2B8B2B09F06EC03C
:10144000E0916D02F0916E02BF016F5F7F4F70936C
:101450006E0260936D024491942F907F842F8F7061
:10146000903819F40E94AF09EBCF903981F432968D
:10147000F0936E02E0936D02FB01649190918602FD
:101480008917F0F667FDDCCF0E94C408D9CF903EE3
:1014900029F410926E0210926D02D2CF903F19F48F
:1014A000109273023BC097FDCBCF3296F0936E0241
:1014B000E0936D02FB01249130E0342BA091750282
:1014C000B09176020E94111A6C507E4F8F4F9F4F41
:1014D00028EE33E040E050E00E94EF1920936F02C5
:1014E00030937002409371025093720280916F02A8
:1014F00090917002A0917102B0917202892B8A2B97
:101500008B2B61F481E090E0A0E0B0E080936F026B
:1015100090937002A0937102B0937202FF91EF91C9
:10152000BF91AF919F918F917F916F915F914F91FB
:101530003F912F910F900FBE0F901F9018952F92F3
:101540003F924F925F926F927F928F929F92AF9253
:10155000BF92CF92DF92EF92FF920F931F93CF93A0
:10156000DF931092E5011092E40180919A0224E643
:10157000829FC00111246091900270E00E94141BB0
:10158000672B09F05CC1CFB7F894809139028111C3
:1015900027C0E1EEF9E08491E4EBF9E09491E82FC3
:1015A000F0E0EE0FFF1FE851FF4FA591B491EC91D1
:1015B000E92321F461E081E10E948B0561E081E192
:1015C0000E94EE058CB580618CBD8CB580648CBDAD
:1015D00061E08FE00E94EE0561E080E10E94EE058F
:1015E000809139028F5F80933902CFBFC0ECD3E086
:1015F000FE018491229631966491882319F00E940D
:10160000EE05F6CF61E086E00E948B0561E070E0B8
:1016100080E090E00E94C20660E086E00E948B05B8
:101620006AE070E080E090E00E94C20661E086E03F
:101630000E948B05ECEDF9E0E491F0E0EE0FFF1F66
:10164000EE53F64F8591949190933F0280933E0222
:10165000EFEAF9E0E491E0933D02E4EDF9E0E49192
:10166000F0E0EE0FFF1FEE53F64F859194919093AB
:101670003C0280933B02E7EAF9E0E491E0933A020E
:101680008CB58C7F8CBD8DB581608DBDE0913E02A7
:10169000F0913F02908180913D02982B9083A09120
:1016A0003B02B0913C022C9190913A02909592238A
:1016B0009C939081809589238083E3EBF3E023E082
:1016C000E03CF20749F084918EBD00000DB407FEA6
:1016D000FDCF8EB53196F3CFE0913B02F0913C0205
:1016E000908180913A02892B8083E0913E02F091B3
:1016F0003F02908180913D02809589238083809173
:1017000064008160809364008091640082608093B3
:10171000640080916400806880936400809164001C
:10172000806480936400809165008160809365008F
:101730000E94970887FF1AC080E094E01EBC00005A
:101740000DB407FEFDCF2EB50197C1F760E070E044
:101750008AE00E942A0660E070E08BE00E942A0680
:1017600060E070E089E00E942A06FFCFCEEEDFEF56
:1017700018E1EE24EA94F12C812F8C1BB701681B31
:1017800071098AE00E942A066FEF70E08BE00E94E8
:101790002A066FEF70E089E00E942A060E94820EFE
:1017A00000E128E543E053E0BE0184E190E00E94BF
:1017B000090F8BE992E00E94B4086BE170E080E0D1
:1017C00090E00E94C206C03F31F46AEF70E080E012
:1017D00090E00E94C2062196C931D10569F66EEEED
:1017E00072E080E090E00E94C2066FEF70E08AE055
:1017F0000E942A066FEF70E08BE00E942A066FEFCE
:1018000070E089E00E942A0685E00E94910E8DE03A
:101810000E94910E1092730282E090E00E94B5192E
:10182000882369F080916400877F809364008091B1
:101830006500877F8093650081E080933802109275
:101840006F0110926E0181E090E09093710180939E
:10185000700182E090E09093730180937201C0E484
:10186000D2E00CEB11E0A4E92A2EA1E03A2EB0E878
:101870004B2E512C612C712C82E093E0899399932B
:101880000E94A719E0E88E2E912CA12CB12CA30167
:1018900092010E94BD190E94581A0E94931A0E9438
:1018A000201AF801619371938F010E94A719F0E447
:1018B000CF2ED12CE12CF12C20E430E040E050E0A0
:1018C0000E94BD19F101619371931F01F2E0C836C6
:1018D000DF0791F610928B0110928A018AE090E066
:1018E000909387018093860180E290E09093890134
:1018F000809388010E94A71923E0422E512C612C6D
:10190000712CA30192010E94BD190E94581A0E94D5
:10191000931A0E94201A660F771FFB01E259FE4FAF
:101920008081918190938101809380010E94A71909
:10193000A50194010E94BD19605C7F4F8F4F9F4F9E
:101940000E94581A0E94931A0E94201A70937501DF
:10195000609374010E94A719A70196010E94BD1906
:101960000E94581A0E94931A0E94201A70937B01B9
:1019700060937A010E94A719A30192010E94BD19E8
:101980000E94581A0E94931A0E94201A660F771F0D
:10199000FB01E259FE4F80819181909383018093F6
:1019A00082010E94A719A50194010E94BD19605CE3
:1019B0007F4F8F4F9F4F0E94581A0E94931A0E9488
:1019C000201A70937701609376010E94A719A701EE
:1019D00096010E94BD190E94581A0E94931A0E94F3
:1019E000201A70937D0160937C010E94A719A301C6
:1019F00092010E94BD190E94581A0E94931A0E94D7
:101A0000201A660F771FFB01E259FE4F80819181FA
:101A100090938501809384010E94A719A5019401E8
:101A20000E94BD19605C7F4F8F4F9F4F0E94581AD4
:101A30000E94931A0E94201A709379016093780192
:101A40000E94A719A70196010E94BD190E94581A69
:101A50000E94931A0E94201A70937F0160937E0166
:101A6000109291011092900181E090E09093030117
:101A70008093020110928F0110928E0182E390E018
:101A8000909393018093920190938D0180938C01A8
:101A9000DF91CF911F910F91FF90EF90DF90CF904A
:101AA000BF90AF909F908F907F906F905F904F907E
:101AB0003F902F900895FC0180917F02811103C017
:101AC0008FEF9FEF08959FB7F89482E08093E9002D
:101AD0002091F20030E01216130614F421E030E0F9
:101AE0002115310559F0289884E680937E02809173
:101AF000F10080838091F200882319F09FBFC90113
:101B000008958BE68093E800F9CF2FB7F89483E02F
:101B10008093E9009091E800892F807295FF04C0BE
:101B20009091F20080E4891B2FBF0895CF93DF933B
:101B30001F92CDB7DEB76983DC01ED91FC91028085
:101B4000F381E02D41E050E0BE016F5F7F4F0995CA
:101B50000F90DF91CF91089583E08093E900809109
:101B6000F200882319F08AE38093E80008950E9428
:101B7000850D90E00895CF93DF931F92CDB7DEB728
:101B8000FC018485958597FD05C02FEF3FEF3587D4
:101B900024870BC0CE0101960E945B0D019719F4BA
:101BA000898190E002C08FEF9FEF0F90DF91CF917E
:101BB00008950F931F93CF93DF931F92CDB7DEB796
:101BC0008C01FC018485958597FF0EC0CE0101969E
:101BD0000E945B0D019719F4298130E002C02FEFBC
:101BE0003FEFF80135872487F801848595850F90AC
:101BF000DF91CF911F910F9108958F929F92AF9295
:101C0000BF92CF92DF92EF92FF920F931F93CF93E9
:101C1000DF935C016B017A0180910B01882309F449
:101C20005BC080917F02882309F456C080917D02B9
:101C300080FF05C08091E00082608093E000E701B2
:101C400010E00AEF83E0882E9AE3992E2097D9F1CD
:101C50000E94850D81110AC0015009F43DC061E068
:101C600070E080E090E00E94C206F0CF282F30E0C4
:101C7000C217D3070CF48C2F4FB7F8948092E90069
:101C80009091E80095FF1DC0282F30E0C21BD30BB8
:101C9000F601982F915020F081918093F100FACFB6
:101CA000C20ED31E112319F09092E80009C0809152
:101CB000E80085FD06C09092E80011E0209709F049
:101CC00010E04FBFC3CF1111C3CF5D9884E680935E
:101CD0007C021E141F0444F081E090E0F501938320
:101CE000828380E090E001C0C701DF91CF911F9116
:101CF0000F91FF90EF90DF90CF90BF90AF909F90AB
:101D00008F90089520E08BE992E0B22FB111BFEFE0
:101D1000FC010024B193B193B193B1930394D1F733
:101D20000895CF93DF9390918602923009F46EC0AC
:101D3000C82F292F30E0F901E151F64FD491F90174
:101D4000E355F94F80839F5F9093860261E00E9484
:101D5000EE05D13019F0D33039F158C0109280001F
:101D60001092810080918100886080938100809131
:101D700081008160809381008C2F90E0FC01E05312
:101D8000F64FE491F0E0EE0FFF1FEE53F64F259172
:101D900034913093850220938402FC01ED55F64F77
:101DA00084918093830232C010929000109291002F
:101DB0008091910088608093910080919100816072
:101DC000809391008C2F90E0FC01E053F64FE4915A
:101DD000F0E0EE0FFF1FEE53F64F25913491309354
:101DE000820220938102FC01ED55F64F849180938D
:101DF000800280918602882321F06CE380E00E94BB
:101E0000C40880E0DF91CF910C94AF09DF91CF91AE
:101E100008952F923F924F925F926F927F928F928E
:101E20009F92AF92BF92CF92DF92EF92FF920F9369
:101E30001F93CF93DF93CDB7DEB727970FB6F894F4
:101E4000DEBF0FBECDBFA22EB12C9C012A0D3B1DC3
:101E500037FDC1C0803891050CF0BDC09B01200F3B
:101E6000311D37FDB8C0603471050CF0B4C0DB0122
:101E700077FF04C0AA27BB27A61BB70BA770BB27F9
:101E80009B0177FF02C0295F3F4FF3E0359527950F
:101E9000FA95E1F777FF08C02150310968E070E05A
:101EA0004B018A1A9B0AD401402E469446944694CC
:101EB000512C077019F00FEF401A500AB9017695AE
:101EC000762F662777956795680F791F420E531E08
:101ED000E12CF12CE8E0F0E04F018A1A9B0A9F8286
:101EE0008E822415350509F476C02830310509F4B1
:101EF00072C02F3F0FEF30070CF463C03B0110E8B6
:101F0000610E711C8B01055E1C4F6C011B821A82D5
:101F10008A809B808A149B040CF053C0E0E8CE16A4
:101F2000D10409F44EC0D7FC41C02F3FFFEF3F075B
:101F300009F44EC0EA81FB81EE0DFF1DE40FF51F91
:101F4000E491480186189708860E971E2E2E312C94
:101F5000F1010A2E02C0EE0FFF1F0A94E2F7FD8383
:101F6000EC83F4012080EC81FD81E229FD83EC8388
:101F70003C80F40130821097C9F027303105B1F070
:101F8000EA81FB81EE0DFF1DE40FF51FE491F0E007
:101F90001F010E8002C0359427940A94E2F7F801DD
:101FA0009080F101E9294F01F8018082EA81FB81EB
:101FB0003196FB83EA830F5F1F4FFFEFCF1ADF0AD3
:101FC000A7CF2F5F3F4FEA0CFB1C60587F4F89CF94
:101FD0001097B1F6EBCF27960FB6F894DEBF0FBE81
:101FE000CDBFDF91CF911F910F91FF90EF90DF90C8
:101FF000CF90BF90AF909F908F907F906F905F90A9
:102000004F903F902F900895009769F0FC01019048
:102010000020E9F73197AF01481B590BBC0187E855
:1020200092E00C945E0580E090E008958F929F927C
:10203000AF92BF92CF92DF92EF92FF920F931F93D6
:10204000CF93DF93CDB7DEB7A1970FB6F894DEBF7D
:102050000FBECDBF6C01990FEE08FF08F7FE31C02F
:10206000E0918702F09188020190F081E02D6DE20D
:1020700087E892E009958C0122273327A9012C19C2
:102080003D094E095F0919A2CE0181967C019AE0B3
:10209000892E912CA12CB12CCA01B901A501940162
:1020A0000E94EF19605DF70162937F0121153105F0
:1020B0004105510589F7CF010E940410800F911F3F
:1020C0001DC0A701960119A28E010F5D1F4F8AE066
:1020D000C82ED12CE12CF12CCA01B901A70196011F
:1020E0000E94EF19605DF80162938F01211531059F
:1020F0004105510589F7CF010E940410A1960FB642
:10210000F894DEBF0FBECDBFDF91CF911F910F912D
:10211000FF90EF90DF90CF90BF90AF909F908F9007
:1021200008958091A50681110DC082E08093A106DB
:1021300084E08093A2061092A4061092A30681E088
:102140008093A50681EA96E00895FC018485958533
:1021500097FD0BC09FB7F89482E08093E9008091CF
:10216000F2009FBF90E0019608959FB7F89482E037
:102170008093E9008091F2009FBF90E00895409124
:10218000030750910407209101073091020742177D
:102190005307B4F49091E8009570E1F39091E80052
:1021A00092FD19C08093F10080910307909104077C
:1021B00001968F739927892B19F48EEF8093E8008D
:1021C00080910307909104070196909304078093F0
:1021D000030781E0089580E00895CF92DF92EF92A7
:1021E000FF920F931F93CF93DF931F92CDB7DEB76C
:1021F000182F062FE42E862F880F8E5F99830E945A
:10220000BF1083E00E94BF10F12EC12E9981D92EFC
:102210008C2D8F19801798F4F601E7FE02C0849187
:1022200001C080810E94BF10182F80E00E94BF1063
:102230008123FFEFCF1ADF0A8111EACF01C081E0CD
:102240000F90DF91CF911F910F91FF90EF90DF9052
:10225000CF900895DF92EF92FF920F931F93CF9349
:10226000DF93D82E8A017B01E40EF51EEB01CE151B
:10227000DF0571F0D7FE03C0FE01849101C08881A3
:102280000E94BF1021968111F2CF8FEF9FEF01C006
:10229000C801DF91CF911F910F91FF90EF90DF90D8
:1022A0000895615030F02091F100FC0120830196E7
:1022B000F8CF289884E680937E0208950F931F93A9
:1022C000CF93DF931F92CDB7DEB782E0898342E4DC
:1022D00050E061EF79E080E80E942A110E9491109D
:1022E000DC0112960D911C9113970115110569F0EF
:1022F000D801ED91FC910280F381E02DBE016F5F6A
:102300007F4FC801099597FF07C089810F90DF9122
:10231000CF911F910F910895F80100851185E5CFA8
:102320001F920F920FB60F9211248F939F9380915B
:10233000E1009091E100937F9093E10083FF0FC053
:102340001092E90091E09093EB001092EC0092E380
:102350009093ED0010927F0298E09093F00082FF3E
:1023600020C093E09093E9009091F200992319F036
:102370009AE39093E80090917C02992339F0909130
:102380007C02915090937C02992389F190917E0276
:10239000992339F090917E02915090937E02992377
:1023A00041F184FF10C08091E2008E7E81608093B5
:1023B000E2008091E1008F7E8093E10080917D02B8
:1023C0008E7E806111C080FF16C08091E2008E7EFB
:1023D00080618093E2008091E1008E7E8093E10035
:1023E00080917D028E7E816080937D0204C05D9A23
:1023F000CDCF289AD6CF9F918F910F900FBE0F907F
:102400001F9018951F920F920FB60F921124CF9222
:10241000DF92EF92FF920F931F932F933F934F936F
:102420005F936F937F938F939F93AF93BF93EF933C
:10243000FF93CF93DF93CDB7DEB76C97DEBFCDBFF1
:102440001092E9008091E80083FFEDC168E0CE01C1
:1024500045960E94511182EF8093E8008D8987FF95
:1024600005C09091E80090FFFCCF03C09EEF9093D1
:10247000E800982F907609F0C6C09E892F89188DA4
:1024800091110CC0803829F4809100078093F100ED
:1024900002C01092F1001092F10048C1422F50E0AA
:1024A000512B913051F4811141C14130510509F056
:1024B0003DC1809100078D7F0BC0933061F4811185
:1024C00035C14130510509F031C18091000782606A
:1024D000809300072BC1953041F48091E80080FF84
:1024E000FCCF20682093E30021C1963009F05FC043
:1024F000EB8CFC8C1092E9001092040710920307F9
:10250000123091F510920207109201070E945E119D
:1025100099E0BE016F5F7F4FDB01E92F1D92EA95C5
:10252000E9F799831A8391E09E8390EA98879AEF5E
:1025300099872091030730910407275F3F4F3C8321
:102540002B838D831092E9001092040710920307E9
:10255000F0920207E092010749E050E080E00E941B
:102560002A110E945E11E2C0F0920207E092010778
:102570000E949110DC011296ED90FC901397E114EB
:10258000F10409F4C0C0D701ED91FC910480F581FC
:10259000E02DBE016B5E7F4FC7010995009719F0D2
:1025A0000CF0C4C0C7C0F701E084F184E8CF9730D5
:1025B00009F4C0C0983021F481E08093F100B6C0E6
:1025C000993009F0B3C0837009F0B4C0E3E3F1E0DF
:1025D00081E021E036E39081992361F08093E90066
:1025E0002093EB0091919093EC003093ED008F5F7E
:1025F000873089F78EE78093EA001092EA008F898E
:1026000080937F0293C08B8D9C8D1092E900109275
:102610000407109203079093020780930107898DA6
:10262000811156C08E899D89913A59F4813209F001
:1026300081C047E050E064E071E080E00E942A1130
:1026400075C0913209F076C0833289F4888D90E0AC
:10265000982F88272F89822BA0E0B0E080930C016F
:1026600090930D01A0930E01B0930F015FC08032D3
:1026700069F48091E80082FFFCCF67E084E091E09C
:102680000E9451118BEF8093E80006C0823209F05E
:102690004DC08F8980930B018091FF06882319F02C
:1026A000EEEFFAE002C0E0E0F8E0809104019091E2
:1026B0000501A0910601B0910701803B9440A1055E
:1026C000B10509F07BC080910B0180FF93C076C0FB
:1026D0000E949110DC0112960D911C911397011527
:1026E000110541F1D801ED91FC910190F081E02DAF
:1026F000BE016B5E7F4FC8010995811117C0F801BB
:1027000000851185ECCF113009F44EC0133091F4DF
:102710008F89882309F445C0823081F440E860E164
:1027200085E59AE00E94ED10882321F08EEF8093DA
:10273000E80079C081E28093EB0075C0813029F414
:1027400040E86BE089E49AE0EDCF833099F70E948E
:102750009110DC011296ED90FC9013978E010F5FA3
:102760001F4F6801E114F10479F0D701ED91FC915C
:102770000680F781E02DB801C7010995080F111DEA
:10278000F701E084F184EECFD8011C92F6010190AC
:102790000020E9F73197BF016C197D0940E0C601BF
:1027A000C1CF63E37AE002C067E37AE061157105A7
:1027B00009F2FB01449150E080E840CF0FB6F89455
:1027C000A8958091600088618093600010926000FD
:1027D0000FBEA895EE3F2AE0F20739F08091FE0A7D
:1027E0009091FF0A91838083A1CF1092FF0A1092EB
:1027F000FE0A9CCFEE3F8AE0F80731F0808191819C
:102800009093FF0A8093FE0A87E797E7918380837E
:102810009BE088E10FB6F894A895809360000FBE06
:102820009093600083CF6C960FB6F894DEBF0FBE16
:10283000CDBFDF91CF91FF91EF91BF91AF919F916C
:102840008F917F916F915F914F913F912F911F9148
:102850000F91FF90EF90DF90CF900F900FBE0F90F1
:102860001F901895CF93DF93CDB7DEB728970FB69B
:10287000F894DEBF0FBECDBF789484B5826084BD6E
:1028800084B5816084BD85B5826085BD85B5816074
:1028900085BD80916E00816080936E0010928100F2
:1028A00080918100826080938100809181008160AD
:1028B000809381008091800081608093800080916E
:1028C000910082608093910080919100816080935B
:1028D0009100809190008160809390008091C10070
:1028E00084608093C1008091C10082608093C100A8
:1028F0008091C10081608093C1008091C30081609C
:102900008093C3008091C00082608093C00080915A
:10291000C20081608093C20080917A0084608093BD
:102920007A0080917A00826080937A0080917A00A8
:10293000816080937A0080917A00806880937A0029
:1029400010927F021092000710927D028091D700B2
:1029500081608093D70080EA8093D80089B5806138
:1029600089BD89B5826089BD09B400FEFDCF61E0F3
:1029700070E080E090E00E94C2068091D8008F7CD9
:1029800080618093D8008091E000807F8093E00098
:102990008091E1008E7E8093E1008DE08093E200E3
:1029A000559A209AEEEFFFE7859194918B3F9C4DCD
:1029B00019F481E08093FF060E949F0A90E4892E1B
:1029C000912CA12CB12C2FB7F89480916A01909191
:1029D0006B01A0916C01B0916D012FBF2091990204
:1029E000222391F020919102382F321B30939A02CA
:1029F00020918E0230918F022F5F3F4F30938F02D4
:102A000020938E0210929902409195025091960265
:102A1000609197027091980284179507A607B707EF
:102A20007CF4481B423008F4FBC383B7817F83BF2B
:102A300083B7816083BF889583B78E7F83BFF0C3E0
:102A400020919002AC01BD01420F511D611D711D0D
:102A50004093950250939602609397027093980268
:102A60008093910290939202A0939302B093940268
:102A700081E0809399028091E4019091E5010196B3
:102A80008036EAEE9E0729F09093E5018093E401F9
:102A900004C01092E5011092E4010E94820E04E944
:102AA000E02E01E0F02E8CEB682E81E0782EF4EE23
:102AB0006F16F1E07F0691F16301F301808191814E
:102AC000181619066CF020E830E0318320830E944C
:102AD000A719A50194010E94BD19F70171836083B4
:102AE00080913602909137021816190634F0F301DE
:102AF00080819181019791838083F7016191719128
:102B00007F01F2E06F0E711C01E021E042E053E032
:102B1000F601808191810E94090FC9CF8091360210
:102B2000909137021816190634F08AE090E09093DD
:102B3000370280933602809192019091930118168A
:102B400019062CF401979093930180939201809140
:102B5000020190910301892B99F10BE120E642E8F3
:102B600051E06AE070E080E090E00E94090F81E0AF
:102B700080939F068AE090E090939C0680939B064A
:102B800084E390E090939E0680939D0689E391E014
:102B90000E94041080913602909137020297909320
:102BA0003702809336020E94970883FF35C38091D5
:102BB000920190919301181619060CF42DC338C395
:102BC00080918E0190918F01892B09F450C08091E2
:102BD0008C0190918D01181619062CF40197909391
:102BE0008D0180938C01FF24F394F0929F061AE0EC
:102BF000C12ED12CD0929C06C0929B0600E210E020
:102C000010939E0600939D0687E491E00E940410B5
:102C1000F0929F068AE590E090939C0680939B0635
:102C200010939E0600939D0680918A0190918B01DE
:102C30000E941610F0929F06D0929C06C0929B06AE
:102C400084E390E090939E0680939D0684E591E056
:102C50000E9404100E94970883FFDEC280918C01BD
:102C600090918D01181619060CF4D6C2ECC2809111
:102C7000900190919101892B09F4CEC2C09000017E
:102C8000D090010122E0C21AD108D0920101C09275
:102C900000016090880170908901E0908601F090B9
:102CA000870109E020E142E651E0B301C7010E943B
:102CB000090F8301015011090F33110528F50E94F6
:102CC000970887FF0BC00115110529F010938901A2
:102CD0000093880119C081E090E012C00E9497081B
:102CE00084FF12C03FEF631A730A80E46816710410
:102CF00029F0709289016092880106C08FE390E00C
:102D000090938901809388010E94970883FF36C0C1
:102D10001C141D049CF1E2E2F2E080E090E02191BD
:102D20003191232B11F00196FACF880F991FFC01E6
:102D3000EA51FE4F25E131E031832083FC01E6506A
:102D4000FE4F2EE0E20EF11CF182E082FC01E25F18
:102D5000FD4F20918801309189012C5F3F4F3183D5
:102D60002083FC01EE5DFD4F21E030E031832083C4
:102D70008EE190E0909301018093000184E791E05F
:102D80009A838983E0E8F1E0FE83ED83AAE7EA2EE7
:102D9000A1E0FA2E8701FC83EB8398878F838F81D4
:102DA00098858A57914009F464C1EB81FC81408089
:102DB000518041145104A9F4F80120813181EF813F
:102DC000F8856081718140918801509189018091DD
:102DD00086019091870168177907F4F4635F7F4F4C
:102DE00018C091E04916510411F5F8012081318194
:102DF000EF81F8856081718140918801509189014E
:102E00008091860190918701681779072CF4625FA1
:102E10007F4F681B790B05C04096FC01E61BF70B42
:102E2000BF012417350774F5275F3F4F26C092E096
:102E30004916510409F041C0F80120813181EF8128
:102E4000F88560817181409188015091890180915C
:102E5000860190918701681779072CF4675F7F4F8F
:102E6000681B790B05C04096FC01E61BF70BBF0100
:102E7000241735073CF4265F3F4FC901841B950B8F
:102E8000AC0104C0475F5F4F421B530B1616170679
:102E900024F481E0141615060CF080E090E0892BF4
:102EA00061F00E94820E1092910110929001E1E077
:102EB000F0E0F0938F01E0938E0152E2252E52E074
:102EC000352E6EE0C62E62E0D62E7AEF672E71E0C8
:102ED000772E82E2C81682E0D80609F4BCC0F10160
:102EE00080819181892B09F4ACC04114510499F47B
:102EF000F80140815181EF81F88520813181F6010F
:102F000060817181F3018081918128173907F4F480
:102F1000235F3F4F16C031E04316510401F5F8011D
:102F200040815181EF81F88520813181F6016081F6
:102F30007181F30180819181281739073CF4225F68
:102F40003F4FF901E81BF90BCF0103C00596821B27
:102F5000930B4617570764F5475F5F4F24C032E075
:102F60004316510409F06DC0F80140815181EF8191
:102F7000F88520813181F60160817181F3018081C2
:102F80009181281739073CF4275F3F4FF901E81B6F
:102F9000F90BCF0103C00596821B930B4617570709
:102FA0003CF4465F5F4F9A01261B370BB90104C002
:102FB0006F5F7F4F641B750B1816190624F481E0B0
:102FC000161617060CF080E090E0892BD1F120E86E
:102FD00030E0EF81F88531832083F1011182108286
:102FE0000E94A71923E030E040E050E00E94BD19A4
:102FF0000E94581A0E94931A0E94201A660F771F87
:10300000FB01E259FE4F80819181EB81FC8191832C
:1030100080830E94A719A50194010E94BD190E94F6
:10302000581A0E94931A0E94201AF8017183608333
:1030300080918A0190918B01019690938B018093EE
:103040008A01F2E02F0E311C22E0C20ED11C32E0C8
:10305000630E711C3ECFEF81F8853296F887EF83BF
:103060002B813C812E5F3F4F3C832B830E5F1F4F94
:1030700096CE809136029091370201979093370255
:103080008093360230E8E31631E0F30609F46CC0B1
:10309000ED81FE8100811181E981FA818081918138
:1030A0001816190664F120E830E0318320830E946D
:1030B000A71923E030E040E050E00E94BD190E94D3
:1030C000581A0E94931A0E94201A660F771FFB015C
:1030D000E259FE4F80819181ED81FE819183808351
:1030E0000E94A719A50194010E94BD190E94581AB7
:1030F0000E94931A0E94201AF70171836083E9816C
:10310000FA8180819181019781939193FA83E98378
:103110000115110541F4F7016081718109E02DE08D
:1031200048E451E015C00130110541F4F701608118
:10313000718109E02EE04CE251E00AC00230110535
:1031400049F4F701608171810AE029E04AE151E028
:103150000E94090FF2E0EF0EF11C2D813E812E5FDF
:103160003F4F3E832D838ECF82E2682E82E0782E01
:103170009AEFE92E91E0F92E2EE0C22E22E0D22E17
:1031800086E3681682E0780631F1F301808191814F
:10319000892BB9F0F701808191818038910524F065
:1031A000F301118210820DC00196F7019183808393
:1031B000F6016081718101E025E045E151E00E9466
:1031C000090FF2E06F0E711C22E0E20EF11C32E0FA
:1031D000C30ED11CD5CF11E010939F0610929C0610
:1031E00010929B0610929E0610929D0684E691E036
:1031F0000E94041010939F0682E390E090939C0637
:1032000080939B0610929E0610929D0680918A01E3
:1032100090918B010E9416108BE992E00E94B408F5
:1032200080E090E0892B09F4CECB0E940000CBCB4C
:10323000109203011092020181E090E090939101BD
:1032400080939001E9CF0E949F0AE6CFEFEAF6E073
:103250001382128288EE93E0A0E0B0E0848395832D
:10326000A683B78388E191E0918380838FEF9FEFFE
:1032700095878487E7E8F2E0138212828AE291E080
:10328000918380838CE3868380E181871086178217
:1032900016861786108A118A128A10929C0610923E
:1032A0009B0610929E0610929D0681E080939F06D9
:1032B00008958F929F92AF92BF92CF92DF92EF923A
:1032C000FF92CF93DF93EC01688179818A819B81A2
:1032D000611571058105910521F464E279ED8BE5B5
:1032E00097E02DE133EF41E050E00E94BD19490124
:1032F0005A019B01AC01A7EAB1E40E94DC196B0101
:103300007C01ACEEB4EFA50194010E94EA19DC0146
:10331000CB018C0D9D1DAE1DBF1DB7FF03C00197D6
:10332000A109B04888839983AA83BB83BC01CD01DE
:103330009F77DF91CF91FF90EF90DF90CF90BF907C
:10334000AF909F908F9008950E945919089580E141
:1033500091E00E9459190895609310017093110132
:1033600080931201909313010895F999FECF92BDB5
:1033700081BDF89A992780B50895052E97FB1EF414
:1033800000940E94D41957FD07D00E94EF1907FC42
:1033900003D04EF40C94D419509540953095219556
:1033A0003F4F4F4F5F4F0895909580957095619571
:1033B0007F4F8F4F9F4F08950E94111AA59F900D28
:1033C000B49F900DA49F800D911D11240895B7FF07
:1033D0000C94DC190E94DC19821B930B0895A1E266
:1033E0001A2EAA1BBB1BFD010DC0AA1FBB1FEE1F7F
:1033F000FF1FA217B307E407F50720F0A21BB30BCA
:10340000E40BF50B661F771F881F991F1A9469F745
:1034100060957095809590959B01AC01BD01CF01A1
:103420000895A29FB001B39FC001A39F700D811D9D
:103430001124911DB29F700D811D1124911D0895BD
:103440000E94271A6894B1110C940E1B08950E94D3
:10345000DB1A88F09F5798F0B92F9927B751B0F031
:10346000E1F0660F771F881F991F1AF0BA95C9F708
:1034700014C0B13091F00E940D1BB1E008950C947E
:103480000D1B672F782F8827B85F39F0B93FCCF331
:10349000869577956795B395D9F73EF49095809585
:1034A000709561957F4F8F4F9F4F0895E89409C0A5
:1034B00097FB3EF490958095709561957F4F8F4F67
:1034C0009F4F9923A9F0F92F96E9BB279395F6957D
:1034D000879577956795B795F111F8CFFAF4BB0FFB
:1034E00011F460FF1BC06F5F7F4F8F4F9F4F16C05F
:1034F000882311F096E911C0772321F09EE8872FE9
:10350000762F05C0662371F096E8862F70E060E0A4
:103510002AF09A95660F771F881FDAF7880F96951D
:10352000879597F908950E94F51A90F09F3748F40F
:10353000911116F00C940E1B60E070E080E89FEB98
:10354000089526F41B16611D711D811D0C94AA1A85
:103550000C94C51A882371F4772321F09850872B97
:10356000762F07C0662311F499270DC09051862B42
:1035700070E060E02AF09A95660F771F881FDAF7EF
:10358000880F9695879597F908959F3F31F0915050
:1035900020F4879577956795B795880F911D969537
:1035A000879597F9089557FD9058440F551F59F086
:1035B0005F3F71F04795880F97FB991F61F09F3F20
:1035C00079F087950895121613061406551FF2CF49
:1035D0004695F1DF08C0161617061806991FF1CF99
:1035E000869571056105089408950E94DB1AA0F084
:1035F000BEE7B91788F4BB279F3860F41616B11DD3
:10360000672F782F8827985FF7CF869577956795EE
:10361000B11D93959639C8F30895E894BB276627A2
:103620007727CB0197F9089597FB072E16F400949E
:1036300007D077FD09D00E942E1B07FC05D03EF471
:10364000909581959F4F0895709561957F4F08954E
:10365000EE0FFF1F0590F491E02D0994AA1BBB1BF0
:1036600051E107C0AA1FBB1FA617B70710F0A61B82
:10367000B70B881F991F5A95A9F780959095BC01A3
:10368000CD01089581E090E0F8940C94471BF894E4
:02369000FFCF6A
:103692000A00010000E1000000000000FFFFFFFF40
:1036A2000100000000000000960DFD0DB70DAC0DED
:1036B200A510BB0DD90D00000000FC065E05250813
:1036C200240800C180810000005B415D20746F20EE
:1036D2006669676874210046696E616C2053636F86
:1036E20072653A005B415D20746F2072657374618C
:0A36F2007274210053636F726500CB
:00000001FF
